:100000000C943F010C9470010C9470010C947001DD
:100010000C9470010C9470010C9470010C9470019C
:100020000C9470010C9470010C9470010C9470018C
:100030000C9470010C9470010C9470010C9470017C
:100040000C9470010C9470010C9470010C9470016C
:100050000C9470010C9470010C9470010C944D0779
:100060000C9470010C9470010C9470010C9470014C
:100070000C9470010C9470010C9470010C9470013C
:100080000C9470010C9470010C9470010C9470012C
:100090000C9470010C9470010C9470010C949707EF
:1000A0000C9470010C9470010C9470010C9470010C
:1000B0000C9470010C9470010C9470010C947001FC
:1000C0000C9470010C9470010C9470010C947001EC
:1000D0000C9470010C9470010C9470010C947001DC
:1000E0000C9470010C94C7010C94A2010C94710340
:1000F0000C94AF010C949A010C94D5010C94A501B9
:100100000C94BB080C94C3010C94B8020C944E03DD
:100110000C949E010C94BB040C94B5010C94CB017F
:100120000C94B9010C94AB010C944F030C94BD01D9
:100130000C94A5030C9462060C94D1010C94B902A2
:100140000C94E7020C9496010C94D0010C945E037D
:100150000C9478030C94BA020C94900100002100D6
:10016000240027002A002D00300033000101000088
:10017000040107010A0100002200250028002B00CD
:100180002E003100340002010000050108010B01BE
:10019000000020002300260029002C002F00320040
:1001A0000001000003010601090105050505070519
:1001B00008080808020202020A0A080804040404E3
:1001C000010101010101010103030303030303030F
:1001D000040707070C0C0C0C0C0C0C0C020202029E
:1001E00006060606060606060B0B0B0B0B0B0B0B87
:1001F0000102102020080810204010204080020139
:10020000020108040201010204081020408080401D
:10021000201008040201800402018040201008041C
:1002200002010804020101020408102040800102BA
:1002300004081020408000000A0B02090C0D0E0873
:10024000070304010000000000000000000000009F
:10025000000000000000000000000000000000009E
:10026000000012111000000000000000000000005B
:10027000000000000000000000000000BB08112486
:100280001FBECFEFD1E2DEBFCDBF00E00CBF23E049
:10029000A6E6B2E001C01D92AF34B207E1F712E06A
:1002A000A0E0B2E0E4E3FBE100E00BBF02C0079096
:1002B0000D92A636B107D9F711E0CFE3D1E000E007
:1002C00006C021970109802FFE010E94710BCE33D9
:1002D000D10780E00807A9F70E94DB080C94980D6D
:1002E0000C9400008150823108F05AC0E82FF0E0F1
:1002F0008827E258FE4F8F4F0C94710B9E01A2018C
:10030000900196019A01D001A501AB01AF01B501A1
:10031000B901BD01C301C701D001CB01D101D50194
:10032000809180008F778093800008958091800075
:100330008F7DF9CF80918000877FF5CF84B58F774F
:1003400084BD089584B58F7DFBCF8091B0008F77F9
:100350008093B00008958091B0008F7DF9CF809197
:1003600090008F77809390000895809190008F7D0A
:10037000F9CF80919000877FF5CF8091A0008F7793
:100380008093A00008958091A0008F7DF9CF809187
:10039000A000877FF5CF809120018F778093200187
:1003A0000895809120018F7DF9CF80912001877F72
:1003B000F5CFCF93DF93282F30E0F901EA5CFD4FB2
:1003C0008491F901E051FE4FD491F901E655FE4FB9
:1003D000C491CC23A1F081110E947201EC2FF0E0B6
:1003E000EE0FFF1FE057FE4FA591B491EC91ED2366
:1003F00081E090E009F480E0DF91CF91089580E002
:1004000090E0FACF1F93CF93DF93282F30E0F901CC
:10041000EA5CFD4F8491F901E051FE4FD491F9015E
:10042000E655FE4FC491CC23A9F0162F81110E94EE
:100430007201EC2FF0E0EE0FFF1FEA58FE4FA5917E
:10044000B4918FB7F894EC91111108C0D095DE23C8
:10045000DC938FBFDF91CF911F910895DE2BF8CFF2
:10046000CF93DF9390E0FC01E051FE4F249186553D
:100470009E4FFC0184918823D1F090E0880F991F52
:10048000FC01E45AFE4FA591B491FC01EA58FE4FDD
:10049000C591D491623071F49FB7F8943C91822F4A
:1004A000809583238C93E8812E2B28839FBFDF9137
:1004B000CF9108958FB7F894EC912E2B2C938FBF8A
:1004C000F6CF3FB7F89480912F0390913003A0911D
:1004D0003103B091320326B5A89B05C02F3F19F018
:1004E0000196A11DB11D3FBFBA2FA92F982F8827B4
:1004F000BC01CD01620F711D811D911D42E0660F8F
:10050000771F881F991F4A95D1F708958F929F9260
:10051000AF92BF92CF92DF92EF92FF924B015C01BC
:100520000E9461026B017C010E9461026C197D09CD
:100530008E099F09683E734081059105A8F321E06B
:10054000821A9108A108B10888EEC80E83E0D81E6F
:10055000E11CF11C81149104A104B10429F7FF905E
:10056000EF90DF90CF90BF90AF909F908F900895C5
:1005700008950895AF92BF92CF92DF92EF92FF92CB
:100580000F931F93CF93DF936C017B018B01040FBB
:10059000151FEB015E01AE18BF08C017D10759F057
:1005A0006991D601ED91FC910190F081E02DC60199
:1005B0001995892B79F7C501DF91CF911F910F9183
:1005C000FF90EF90DF90CF90BF90AF900895089587
:1005D0002091AD02260F3327331F21323105ECF471
:1005E0002091F602FC0190E080E0243069F082E086
:1005F0000895A091AD022191AC0143575D4FA40F26
:10060000B52FB11D2C930196861798F38091AD02FA
:10061000680F6093AD0280E0089581E00895109224
:10062000F60281E08093F5021092D00261E084E14D
:100630000E94020261E085E10E940202E9EBF0E023
:1006400080818E7F808380818D7F808388E480930A
:10065000B80085E48093BC000895CF93DF9391E0C8
:1006600090938C028823B9F0C091B800D091BA0061
:100670008091BC008A7B8093BC0060E084E10E9492
:10068000020260E085E10E9402020E940F03D09303
:10069000BA00C093B800DF91CF9108950895E0911A
:1006A000250380912403E81730F4F0E0E459FD4F6E
:1006B000808190E008958FEF9FEF0895909125033A
:1006C000809124032FEF3FEF981748F4E92FF0E0D3
:1006D000E459FD4F208130E09F5F90932503C901CD
:1006E00008958091240390912503891B990B089507
:1006F000CF92DF92EF92FF920F931F93CF93DF93EE
:100700007C01CB018A012091FC02222389F0EB01BC
:100710006B01C40ED51ECC15DD0569F06991D701BA
:10072000ED91FC910190F081E02DC7011995F3CF77
:10073000642F0E94E802C801DF91CF911F910F91B1
:10074000FF90EF90DF90CF900895CF93DF931F92AB
:10075000CDB7DEB769832091FC022223F9F0209106
:100760002203203258F021E030E0FC013383228361
:1007700090E080E00F90DF91CF9108958091230366
:10078000E82FF0E0E350FD4F998190838F5F8093D5
:1007900023038093220381E090E0ECCF61E0CE015F
:1007A00001960E94E802F7CFCF92DF92EF92FF927C
:1007B0000F931F93CF93DF93FC01C48121E020931B
:1007C000FC02C0931D031092230310922203838521
:1007D000682B83E393E00E94A503D0912203D132DA
:1007E00008F092C00E9461026B017C018091F602C8
:1007F000811165C082E08093F60281E08093F5026A
:100800008FEF8093F4021092F302D093F202ADEFD7
:10081000B2E0E2EDF2E080E0D81385C01092D102A0
:100820008091D102CC0FC82BC093D1028091D0020D
:10083000813009F07CC01092D0020E9461026B01ED
:100840007C018091D1028093BB008091F80290914D
:10085000F902A091FA02B091FB02892B8A2B8B2B13
:1008600099F00E9461020091F8021091F902209122
:10087000FA023091FB026C197D098E099F09061757
:10088000170728073907E0F18091BC0083FDD9CF15
:1008900085EC8093BC000E9461026B017C01809119
:1008A000F602823009F445C08091F4028F3F61F175
:1008B0008091F402803241F18091F40225C0809150
:1008C000F8029091F902A091FA02B091FB02892BF3
:1008D0008A2B8B2B09F48ACF0E9461020091F802C7
:1008E0001091F9022091FA023091FB026C197D09F6
:1008F0008E099F09061717072807390708F076CFD2
:100900008091F7020E942D0310922303109222037C
:100910001092FC02DF91CF911F910F91FF90EF9009
:10092000DF90CF9008959D9191938F5F75CF85EE65
:10093000B0CF8091F8029091F902A091FA02B091A3
:10094000FB02892B8A2B8B2B09F4A9CF0E94610211
:100950000091F8021091F9022091FA023091FB0205
:100960006C197D098E099F09061717072807390793
:1009700008F095CFC5CF90E080E008951F93CF9306
:10098000DF93182F862F61E04130510509F060E0B8
:100990000E94020261E0812F0E940202CBE7DCE0AC
:1009A000CE010197F1F760E0812F0E9402022197AA
:1009B000F1F7DF91CF911F9108952FB7F8948091AF
:1009C0002B0390912C03A0912D03B0912E032FBFE8
:1009D0008093260390932703A0932803B0932903C1
:1009E00008950F931F93CF93DF93EC018881998132
:1009F000009759F02A813B812617370730F081E0B4
:100A0000DF91CF911F910F9108958B016F5F7F4F01
:100A10000E949E0C009759F0998388831B830A8358
:100A20002C813D81232B59F7FC011082E8CF80E017
:100A3000E7CFEF92FF920F931F93CF93DF93611550
:100A4000710541F480E0DF91CF911F910F91FF90EC
:100A5000EF90089541155105B1F07B01EC010C8137
:100A60001D81040F151FB8010E94F104882351F362
:100A7000288139818C819D81B701820F931F0E944B
:100A8000910D1D830C8381E0DECFCF93DF93EC01CA
:100A900088819981009711F00E94150C19821882A3
:100AA0001D821C821B821A82DF91CF910895CF9202
:100AB000DF92EF92FF920F931F93CF93DF93CDB707
:100AC000DEB762970FB6F894DEBF0FBECDBF8C01C4
:100AD000CB01F801118210821382128215821482D6
:100AE0004AE09E012F5F3F4F6901B9010E943C0B14
:100AF000F60101900020E9F731977F01EC18FD081D
:100B0000B701C8010E94F104811112C0C8010E94FE
:100B1000450562960FB6F894DEBF0FBECDBFDF91DC
:100B2000CF911F910F91FF90EF90DF90CF9008959C
:100B3000F801F582E482B601808191810E94910DD5
:100B4000E8CFCF93DF93EC01FB0101900020E9F7A0
:100B50003197AF01461B570B0E941905811103C045
:100B6000CE010E944505CE01DF91CF910895CF932C
:100B7000DF93EC01FB0144815581608171810E940A
:100B80001905811103C0CE010E944505CE01DF91F8
:100B9000CF910895EF92FF920F931F93CF93DF931E
:100BA000EC017B01198218821B821A821D821C8231
:100BB000FB0101900020E9F731978F01061B170B0D
:100BC000B8010E94F104811109C0CE01DF91CF91DB
:100BD0001F910F91FF90EF900C9445051D830C839E
:100BE000B70188819981DF91CF911F910F91FF907B
:100BF000EF900C94910DFC0180819181009711F090
:100C00000C94150C08950F931F93CF938C01C62F4E
:100C10000E94D4036C2F6460C8010E94D4036C2F1F
:100C20006B7FC8010E94D40383EC90E00197F1F739
:100C3000CF911F910F9108950F931F93CF93DF933F
:100C40008C01D62FC42F607F642B0E94030680E1A5
:100C5000D89FB00111246C2BC801DF91CF911F9157
:100C60000F910C940306CF93DF9300D000D01F9216
:100C70001F92CDB7DEB798E0E6E0F2E0DE01119614
:100C800001900D929A95E1F790914703981708F417
:100C90008FEF90E0880F991F21E030E02C0F3D1F6F
:100CA000820F931FFC016081606840E08FE393E056
:100CB00028960FB6F894DEBF0FBECDBFDF91CF915F
:100CC0000C941C0641E00E941C0681E090E008950F
:100CD00085ED8093BC008091F8029091F902A0917B
:100CE000FA02B091FB020796A11DB11D23E0B69553
:100CF000A795979587952A95D1F72091BC0024FD5B
:100D000003C01092F60208954091F8025091F90242
:100D10006091FA027091FB02452B462B472B69F339
:100D20000097A105B10541F02AE22A95F1F700C02C
:100D30000197A109B109E1CF8091F7020C942D032D
:100D4000EF92FF920F931F93CF93DF93CDB7DEB750
:100D500068970FB6F894DEBF0FBECDBF7B01FC01D4
:100D600024813581232BA9F1008111816CE272E08D
:100D7000C8010E94880D892B51F480916A029091DC
:100D80006B028E0D9F1D90936B0280936A026BE342
:100D900072E0C8010E94880D892B51F4809168028D
:100DA000909169028E0D9F1D909369028093680255
:100DB0006DE372E0C8010E94880D60916602709137
:100DC0006702892B31F46E0D7F1D7093670260936B
:100DD000660281E00E9433066091660270916702AC
:100DE000CE0143960E945705609168027091690296
:100DF000CE010D960E94570560916A0270916B02B8
:100E0000CE0107960E9457056EE272E0CE01019670
:100E10000E94CA05BE01695F7F4FCE0101960E9404
:100E2000B70561E372E00E94A105BE01635F7F4FD9
:100E30000E94B70565E372E00E94A105BE016D5EE8
:100E40007F4F0E94B70569E372E00E94A105FC0193
:100E500044815581608171818FE393E00E94BA02E1
:100E6000CE0101960E94FB05CE0107960E94FB056C
:100E7000CE010D960E94FB05CE0143960E94FB0514
:100E800068960FB6F894DEBF0FBECDBFDF91CF914D
:100E90001F910F91FF90EF9008951F920F920FB640
:100EA0000F9211242F933F938F939F93AF93BF93F0
:100EB00080912B0390912C03A0912D03B0912E03D0
:100EC00030912A0323E0230F2D3758F50196A11DF9
:100ED000B11D20932A0380932B0390932C03A0939E
:100EE0002D03B0932E0380912F0390913003A09196
:100EF0003103B09132030196A11DB11D80932F03E0
:100F000090933003A0933103B0933203BF91AF911C
:100F10009F918F913F912F910F900FBE0F901F9037
:100F2000189526E8230F0296A11DB11DD2CF1F925E
:100F30000F920FB60F9211240BB60F922F933F937F
:100F40004F935F936F937F938F939F93AF93BF93D1
:100F5000EF93FF938091B900887F803609F44DC0EC
:100F600008F040C0883209F4A9C028F5803109F49E
:100F70009DC0C8F4882309F4FBC0883009F496C0EA
:100F8000FF91EF91BF91AF919F918F917F916F9161
:100F90005F914F913F912F910F900BBE0F900FBE1D
:100FA0000F901F901895883109F488C0803241F75E
:100FB0008093F40214C0803409F49DC040F480335F
:100FC000B9F38833E9F68093F40285ECB0C080353C
:100FD00009F485C0883509F496C0883489F60E94E2
:100FE0006806CECF883909F48CC038F5883729F0E7
:100FF00050F4883611F0803719F683E08093F602BA
:101000001092CF0257C0883809F47BC0803919F09C
:10101000803809F0B5CF8091CF02803208F071C0DE
:10102000E091CF0281E08E0F8093CF028091BB00D0
:10103000F0E0E155FD4F80833DC0803B39F0E0F4A6
:10104000803A09F479C0883A09F09ACF84E0809315
:10105000F6021092AE021092AD02E0912003F091E0
:10106000210319958091AD0281110FC081E0809319
:10107000AD0210928D0209C0803C09F4A6CF883CD5
:1010800009F4A3CF883B09F07BCFE091AE0281E069
:101090008E0F8093AE02F0E0E357FD4F8081809386
:1010A000BB009091AE028091AD0229C08091D10227
:1010B0008093BB0085EC8093BC0062CF9091F302DB
:1010C0008091F202981758F5E091F30281E08E0FBB
:1010D0008093F302F0E0EE52FD4F8081E9CFE09182
:1010E000F30281E08E0F8093F3028091BB00F0E069
:1010F000EE52FD4F80839091F3028091F202981797
:10110000C8F285E8D8CFE091F30281E08E0F80939A
:10111000F3028091BB00F0E0EE52FD4F808380919E
:10112000F50281115CCF81E08093D00284EA809344
:10113000BC001092F60224CF85EC8093BC00109284
:10114000F6028091CF02803230F4E091CF02F0E0DD
:10115000E155FD4F10826091CF0270E0E0911E03D7
:10116000F0911F038FEA92E019951092CF0208CFF9
:101170001092F40234CFE3E3F3E01382128288EE9C
:1011800093E0A0E0B0E084839583A683B78382E1F7
:1011900092E091838083EFE3F3E01382128284E292
:1011A00092E09183808387E2848380E1818782E07B
:1011B000828713860895CF93DF9300D000D0CDB7F8
:1011C000DEB7789484B5826084BD84B5816084BDC7
:1011D00085B5826085BD85B5816085BD80916E00D5
:1011E000816080936E001092810080918100826006
:1011F0008093810080918100816080938100809143
:1012000080008160809380008091B1008460809331
:10121000B1008091B00081608093B0008091910016
:101220008260809391008091910081608093910011
:10123000809190008160809390008091A1008260F5
:101240008093A1008091A10081608093A100809192
:10125000A00081608093A000809121018260809332
:1012600021018091210181608093210180912001E1
:1012700081608093200180917A00846080937A005D
:1012800080917A00826080937A0080917A008160F8
:1012900080937A0080917A00806880937A0010921F
:1012A000C100109225031092240310922303109280
:1012B00022030E940F0388EB92E090932103809316
:1012C000200389EB92E090931F0380931E031092FA
:1012D000440380914903823018F098E090934403CE
:1012E0008093470362E370E080E090E00E94860212
:1012F00060914A038FE393E00E94D40368EE73E0A9
:1013000080E090E00E94860260E38FE393E00E9419
:1013100003060BE416E4C8010197F1F760E38FE3DD
:1013200093E00E940306C8010197F1F760E38FE3A1
:1013300093E00E94030683E592E00197F1F760E2F3
:101340008FE393E00E94030660914403606240E0F3
:101350008FE393E00E941C0684E08093450340E005
:101360006CE08FE393E00E941C0640E061E08FE3B5
:1013700093E00E941C060BE31FE1C8010197F1F7FF
:1013800082E08093460340E066E08FE393E00E94B2
:101390001C0640E062E08FE393E00E941C06C80157
:1013A0000197F1F788E080934A0360E08FE393E0D0
:1013B0000E94D40380E00E94330640E150E06FE3D6
:1013C00072E08FE393E00E94BA0261E086E10E943E
:1013D000300261E087E10E94300261E088E10E9412
:1013E000300261E089E10E94300261E08AE10E94FE
:1013F000300261E08BE10E94300261E08BE00E94EC
:10140000300262E08CE10E94300262E08DE10E94D5
:10141000300262E08EE10E94300262E08FE10E94C1
:10142000300262E080E20E94300262E081E20E94CB
:10143000300260E08BE00E9402020E94DD0400E0C6
:1014400010E088E0F82E2FB7F89480912B0390914C
:101450002C03A0912D03B0912E032FBF40912603A2
:10146000509127036091280370912903841B950BE9
:10147000A60BB70B803E9349A440B10578F060E01D
:101480008BE00E94020281E00E94330644E150E0BA
:1014900060E572E08FE393E00E94BA022FB7F89400
:1014A00080912B0390912C03A0912D03B0912E03DA
:1014B0002FBF40912603509127036091280370911C
:1014C0002903841B950BA60BB70B813C9742A940BF
:1014D000B10508F4CEC010924A0360E08FE393E0B8
:1014E0000E94D4038CE10E94D901892BD1F441E000
:1014F00050E067E170E086E190E00E94BE046CE29B
:1015000072E0CE0101960E94CA0561E070E0CE0152
:1015100001960E94A006CE0101960E94FB050E9442
:10152000DD048DE10E94D901892BD1F44FEF5FEFEB
:1015300067E170E086E190E00E94BE046CE272E038
:10154000CE0101960E94CA056FEF7FEFCE01019692
:101550000E94A006CE0101960E94FB050E94DD04B8
:101560008EE10E94D901892BD1F441E050E069E17C
:1015700070E088E190E00E94BE046BE372E0CE016F
:1015800001960E94CA0561E070E0CE0101960E94BA
:10159000A006CE0101960E94FB050E94DD048FE1AA
:1015A0000E94D901892BD1F44FEF5FEF69E170E020
:1015B00088E190E00E94BE046BE372E0CE010196E8
:1015C0000E94CA056FEF7FEFCE0101960E94A00630
:1015D000CE0101960E94FB050E94DD0480E20E947C
:1015E000D901892BD1F441E050E06BE170E08AE150
:1015F00090E00E94BE046DE372E0CE0101960E946D
:10160000CA0561E070E0CE0101960E94A006CE01FD
:1016100001960E94FB050E94DD0481E20E94D9012F
:10162000892BD1F44FEF5FEF6BE170E08AE190E03E
:101630000E94BE046DE372E0CE0101960E94CA05CD
:101640006FEF7FEFCE0101960E94A006CE010196BA
:101650000E94FB050E94DD0464E670E080E090E0FB
:101660000E9486020115110509F4EDCE0E940000CA
:10167000EACEF0924A0331CFBB274A3031F49923A6
:1016800022F4BDE2909581959F4F0C94480BBB27A7
:10169000FB015527AA27880F991FAA1FA41710F02E
:1016A000A41B83955051B9F7A05DAA3308F0A95D3A
:1016B000A193009779F7B111B1931192CB010C94DA
:1016C000610BDC01FC01672F71917723E1F7329701
:1016D00004C07C916D9370836291AE17BF07C8F30D
:1016E0000895EE0FFF1F881F8BBF0790F691E02D26
:1016F00019940F931F93CF93DF938230910510F4C9
:1017000082E090E0E0914D03F0914E0330E020E064
:10171000B0E0A0E0309799F42115310509F44AC0F2
:10172000281B390B24303105D8F58A819B8161153E
:10173000710589F1FB0193838283FE0111C0408111
:1017400051810281138148175907E0F04817590762
:1017500099F4109761F012960C93129713961C93BC
:101760003296CF01DF91CF911F910F910895009391
:101770004D0310934E03F4CF2115310551F042175C
:10178000530738F0A901DB019A01BD01DF01F8011F
:10179000C1CFEF01F9CF90934E0380934D03CDCF8E
:1017A000FE01E20FF31F8193919322503109398397
:1017B0002883D7CF20914B0330914C03232B41F446
:1017C000209102023091030230934C0320934B038B
:1017D00020910002309101022115310541F42DB70D
:1017E0003EB74091040250910502241B350BE09155
:1017F0004B03F0914C03E217F307A0F42E1B3F0BB1
:101800002817390778F0AC014E5F5F4F2417350772
:1018100048F04E0F5F1F50934C0340934B0381934E
:1018200091939FCFF0E0E0E09CCFCF93DF930097C0
:10183000E9F0FC01329713821282A0914D03B0911E
:101840004E03ED0130E020E01097A1F420813181BA
:10185000820F931F20914B0330914C0328173907B7
:1018600009F061C0F0934C03E0934B03DF91CF91FB
:101870000895EA01CE17DF07E8F54A815B819E01F2
:1018800041155105B1F7E901FB83EA83499159916B
:10189000C40FD51FEC17FD0761F48081918102967A
:1018A000840F951FE90199838883828193819B83AB
:1018B0008A83F0E0E0E012968D919C911397009757
:1018C000B9F52D913C911197CD010296820F931F8E
:1018D00020914B0330914C032817390739F6309784
:1018E00051F510924E0310924D03B0934C03A09308
:1018F0004B03BCCFD383C28340815181840F951F9A
:10190000C817D90761F44E5F5F4F88819981480FEE
:10191000591F518340838A819B8193838283211540
:10192000310509F0B0CFF0934E03E0934D039ECF05
:10193000FD01DC01C0CF13821282D7CF4F925F929C
:101940006F927F928F929F92AF92BF92CF92DF92CF
:10195000EF92FF920F931F93CF93DF938C01009729
:1019600099F4CB01DF91CF911F910F91FF90EF90F0
:10197000DF90CF90BF90AF909F908F907F906F90AF
:101980005F904F900C94790BFC01E60FF71F9C01C0
:1019900022503109E217F30708F4AEC0D901CD9106
:1019A000DC911197C617D70720F1C530D10578F023
:1019B000CE0104978617970750F0C61BD70B2297C6
:1019C000C193D1936D937C93CF010E94150CC801F4
:1019D000DF91CF911F910F91FF90EF90DF90CF900B
:1019E000BF90AF909F908F907F906F905F904F903F
:1019F00008955B01AC1ABD0A4C018C0E9D1EA0918E
:101A00004D03B0914E03512C412CF12CE12C109739
:101A100031F580914B0390914C038815990509F09D
:101A20005CC04616570608F058C08091000290919D
:101A30000102009741F48DB79EB740910402509186
:101A40000502841B950BE817F90708F055C0F093C1
:101A50004C03E0934B03F90171836083B8CF8D9100
:101A60009C91119712966C90129713967C901397F5
:101A7000A815B90559F56C0142E0C40ED11CCA1471
:101A8000DB0420F1AC014A195B09DA0112961597C3
:101A900080F06282738251834083D9016D937C937D
:101AA000E114F10471F0D7011396FC93EE931297B1
:101AB0008ECF22968C0F9D1FF90191838083F301B5
:101AC000EFCFF0934E03E0934D0381CF48165906B4
:101AD00008F42C017D01D3019ACFCB010E94790B30
:101AE0007C01009749F0AE01B8010E947F0DC8014A
:101AF0000E94150C87016BCF10E000E068CFFB015E
:101B0000DC0102C001900D9241505040D8F7089579
:101B1000FB01DC018D91019080190110D9F3990B23
:101B20000895FB01DC0101900D920020E1F708957A
:041B3000F894FFCF57
:101B340000004F0380000000400014005400000027
:101B44000000A5037803BB044E0371035E034F0337
:101B5400000000006206BA02BB04E7025800583ACB
:101B64000020593A00205A3A00200059005A0043F4
:101B74004E43204C61736572204375747465720022
:101B84004C61736572204F66662028496E616374E8
:061B9400697665290000DE
:00000001FF
