:100000000C943F010C9470010C9470010C947001DD
:100010000C9470010C9470010C9470010C9470019C
:100020000C9470010C9470010C9470010C9470018C
:100030000C9470010C9470010C9470010C9470017C
:100040000C9470010C9470010C9470010C9470016C
:100050000C9470010C9470010C9470010C945D0769
:100060000C9470010C9470010C9470010C9470014C
:100070000C9470010C9470010C9470010C9470013C
:100080000C9470010C9470010C9470010C9470012C
:100090000C9470010C9470010C9470010C94A707DF
:1000A0000C9470010C9470010C9470010C9470010C
:1000B0000C9470010C9470010C9470010C947001FC
:1000C0000C9470010C9470010C9470010C947001EC
:1000D0000C9470010C9470010C9470010C947001DC
:1000E0000C9470010C94C3010C9496010C94D501EE
:1000F0000C94A2010C94BA020C9478030C94BB04E7
:100100000C94E7020C94CB010C94A5010C94D00143
:100110000C949A010C9471030C94AF010C94AB01F4
:100120000C94CB080C945E030C9490010C944E0339
:100130000C94C7010C94BD010C94B9020C949E015F
:100140000C944F030C94A5030C9471060C94D101EC
:100150000C94B5010C94B9010C94B8020000210074
:10016000240027002A002D00300033000101000088
:10017000040107010A0100002200250028002B00CD
:100180002E003100340002010000050108010B01BE
:10019000000020002300260029002C002F00320040
:1001A0000001000003010601090105050505070519
:1001B00008080808020202020A0A080804040404E3
:1001C000010101010101010103030303030303030F
:1001D000040707070C0C0C0C0C0C0C0C020202029E
:1001E00006060606060606060B0B0B0B0B0B0B0B87
:1001F0000102102020080810204010204080020139
:10020000020108040201010204081020408080401D
:10021000201008040201800402018040201008041C
:1002200002010804020101020408102040800102BA
:1002300004081020408000000A0B02090C0D0E0873
:10024000070304010000000000000000000000009F
:10025000000000000000000000000000000000009E
:10026000000012111000000000000000000000005B
:10027000000000000000000000000000CB08112476
:100280001FBECFEFD1E2DEBFCDBF00E00CBF23E049
:10029000A4E8B2E001C01D92AD36B207E1F712E06A
:1002A000A0E0B2E0E6E6FBE100E00BBF02C0079091
:1002B0000D92A438B107D9F711E0CFE3D1E000E007
:1002C00006C021970109802FFE010E948A0BCE33C0
:1002D000D10780E00807A9F70E94EB080C94B10D44
:1002E0000C9400008150823108F05AC0E82FF0E0F1
:1002F0008827E258FE4F8F4F0C948A0B9E01A20173
:10030000900196019A01D001A501AB01AF01B501A1
:10031000B901BD01C301C701D001CB01D101D50194
:10032000809180008F778093800008958091800075
:100330008F7DF9CF80918000877FF5CF84B58F774F
:1003400084BD089584B58F7DFBCF8091B0008F77F9
:100350008093B00008958091B0008F7DF9CF809197
:1003600090008F77809390000895809190008F7D0A
:10037000F9CF80919000877FF5CF8091A0008F7793
:100380008093A00008958091A0008F7DF9CF809187
:10039000A000877FF5CF809120018F778093200187
:1003A0000895809120018F7DF9CF80912001877F72
:1003B000F5CFCF93DF93282F30E0F901EA5CFD4FB2
:1003C0008491F901E051FE4FD491F901E655FE4FB9
:1003D000C491CC23A1F081110E947201EC2FF0E0B6
:1003E000EE0FFF1FE057FE4FA591B491EC91ED2366
:1003F00081E090E009F480E0DF91CF91089580E002
:1004000090E0FACF1F93CF93DF93282F30E0F901CC
:10041000EA5CFD4F8491F901E051FE4FD491F9015E
:10042000E655FE4FC491CC23A9F0162F81110E94EE
:100430007201EC2FF0E0EE0FFF1FEA58FE4FA5917E
:10044000B4918FB7F894EC91111108C0D095DE23C8
:10045000DC938FBFDF91CF911F910895DE2BF8CFF2
:10046000CF93DF9390E0FC01E051FE4F249186553D
:100470009E4FFC0184918823D1F090E0880F991F52
:10048000FC01E45AFE4FA591B491FC01EA58FE4FDD
:10049000C591D491623071F49FB7F8943C91822F4A
:1004A000809583238C93E8812E2B28839FBFDF9137
:1004B000CF9108958FB7F894EC912E2B2C938FBF8A
:1004C000F6CF3FB7F89480914D0390914E03A091E1
:1004D0004F03B091500326B5A89B05C02F3F19F0DC
:1004E0000196A11DB11D3FBFBA2FA92F982F8827B4
:1004F000BC01CD01620F711D811D911D42E0660F8F
:10050000771F881F991F4A95D1F708958F929F9260
:10051000AF92BF92CF92DF92EF92FF924B015C01BC
:100520000E9461026B017C010E9461026C197D09CD
:100530008E099F09683E734081059105A8F321E06B
:10054000821A9108A108B10888EEC80E83E0D81E6F
:10055000E11CF11C81149104A104B10429F7FF905E
:10056000EF90DF90CF90BF90AF909F908F900895C5
:1005700008950895AF92BF92CF92DF92EF92FF92CB
:100580000F931F93CF93DF936C017B018B01040FBB
:10059000151FEB015E01AE18BF08C017D10759F057
:1005A0006991D601ED91FC910190F081E02DC60199
:1005B0001995892B79F7C501DF91CF911F910F9183
:1005C000FF90EF90DF90CF90BF90AF900895089587
:1005D0002091CB02260F3327331F21323105ECF453
:1005E00020911403FC0190E080E0243069F082E067
:1005F0000895A091CB022191AC0145555D4FA40F08
:10060000B52FB11D2C930196861798F38091CB02DC
:10061000680F6093CB0280E0089581E00895109206
:10062000140381E0809313031092EE0261E084E1F1
:100630000E94020261E085E10E940202E9EBF0E023
:1006400080818E7F808380818D7F808388E480930A
:10065000B80085E48093BC000895CF93DF9391E0C8
:100660009093AA028823B9F0C091B800D091BA0043
:100670008091BC008A7B8093BC0060E084E10E9492
:10068000020260E085E10E9402020E940F03D09303
:10069000BA00C093B800DF91CF9108950895E0911A
:1006A000430380914203E81730F4F0E0E657FD4F32
:1006B000808190E008958FEF9FEF0895909143031C
:1006C000809142032FEF3FEF981748F4E92FF0E0B5
:1006D000E657FD4F208130E09F5F90934303C901AF
:1006E00008958091420390914303891B990B0895CB
:1006F000CF92DF92EF92FF920F931F93CF93DF93EE
:100700007C01CB018A0120911A03222389F0EB019D
:100710006B01C40ED51ECC15DD0569F06991D701BA
:10072000ED91FC910190F081E02DC7011995F3CF77
:10073000642F0E94E802C801DF91CF911F910F91B1
:10074000FF90EF90DF90CF900895CF93DF931F92AB
:10075000CDB7DEB7698320911A032223F9F02091E7
:100760004003203258F021E030E0FC013383228343
:1007700090E080E00F90DF91CF9108958091410348
:10078000E82FF0E0E55EFC4F998190838F5F8093C6
:1007900041038093400381E090E0ECCF61E0CE0123
:1007A00001960E94E802F7CFCF92DF92EF92FF927C
:1007B0000F931F93CF93DF93FC01C48121E020931B
:1007C0001A03C0933B0310924103109240038385A8
:1007D000682B81E593E00E94A503D0914003D132BC
:1007E00008F092C00E9461026B017C0180911403A9
:1007F000811165C082E08093140381E0809313032C
:100800008FEF8093120310921103D0931003ABE18A
:10081000B3E0E0EFF2E080E0D81385C01092EF0281
:100820008091EF02CC0FC82BC093EF028091EE02B3
:10083000813009F07CC01092EE020E9461026B01CF
:100840007C018091EF028093BB0080911603909110
:100850001703A0911803B0911903892B8A2B8B2BB6
:1008600099F00E94610200911603109117032091E4
:100870001803309119036C197D098E099F09061719
:10088000170728073907E0F18091BC0083FDD9CF15
:1008900085EC8093BC000E9461026B017C01809119
:1008A0001403823009F445C0809112038F3F61F137
:1008B00080911203803241F18091120325C0809112
:1008C000160390911703A0911803B0911903892B77
:1008D0008A2B8B2B09F48ACF0E94610200911603A8
:1008E0001091170320911803309119036C197D0999
:1008F0008E099F09061717072807390708F076CFD2
:10090000809115030E942D03109241031092400321
:1009100010921A03DF91CF911F910F91FF90EF90EA
:10092000DF90CF9008959D9191938F5F75CF85EE65
:10093000B0CF8091160390911703A0911803B09146
:100940001903892B8A2B8B2B09F4A9CF0E946102F2
:100950000091160310911703209118033091190389
:100960006C197D098E099F09061717072807390793
:1009700008F095CFC5CF90E080E008951F93CF9306
:10098000DF93182F862F61E04130510509F060E0B8
:100990000E94020261E0812F0E940202CBE7DCE0AC
:1009A000CE010197F1F760E0812F0E9402022197AA
:1009B000F1F7DF91CF911F9108952FB7F8948091AF
:1009C000490390914A03A0914B03B0914C032FBF70
:1009D0008093440390934503A0934603B093470349
:1009E0000895FC0101900020E9F73197AF01481B01
:1009F000590BBC018DE593E00C94BA020F931F9341
:100A0000CF93DF93EC0188819981009759F02A8177
:100A10003B812617370730F081E0DF91CF911F919E
:100A20000F9108958B016F5F7F4F0E94B70C009765
:100A300059F0998388831B830A832C813D81232B62
:100A400059F7FC011082E8CF80E0E7CFEF92FF92E8
:100A50000F931F93CF93DF936115710541F480E0ED
:100A6000DF91CF911F910F91FF90EF900895411565
:100A70005105B1F07B01EC010C811D81040F151FA4
:100A8000B8010E94FE04882351F3288139818C81AA
:100A90009D81B701820F931F0E94AA0D1D830C83B5
:100AA00081E0DECFCF93DF93EC01888199810097BD
:100AB00011F00E942E0C198218821D821C821B824A
:100AC0001A82DF91CF910895CF92DF92EF92FF9239
:100AD0000F931F93CF93DF93CDB7DEB762970FB617
:100AE000F894DEBF0FBECDBF8C01CB01F80111829F
:100AF000108213821282158214824AE09E012F5FB7
:100B00003F4F6901B9010E94550BF6010190002089
:100B1000E9F731977F01EC18FD08B701C8010E9481
:100B2000FE04811112C0C8010E94520562960FB6E0
:100B3000F894DEBF0FBECDBFDF91CF911F910F9113
:100B4000FF90EF90DF90CF900895F801F582E48256
:100B5000B601808191810E94AA0DE8CFCF93DF93E7
:100B6000EC01FB0101900020E9F73197AF01461B32
:100B7000570B0E942605811103C0CE010E94520529
:100B8000CE01DF91CF910895CF93DF93EC01FB016C
:100B900044815581608171810E942605811103C0C5
:100BA000CE010E945205CE01DF91CF910895EF92C0
:100BB000FF920F931F93CF93DF93EC017B01198278
:100BC00018821B821A821D821C82FB010190002068
:100BD000E9F731978F01061B170BB8010E94FE043D
:100BE000811109C0CE01DF91CF911F910F91FF902C
:100BF000EF900C9452051D830C83B7018881998175
:100C0000DF91CF911F910F91FF90EF900C94AA0D5F
:100C1000FC0180819181009711F00C942E0C0895B5
:100C20000F931F93CF938C01C62F0E94D4036C2F78
:100C30006460C8010E94D4036C2F6B7FC8010E94BE
:100C4000D40383EC90E00197F1F7CF911F910F91BE
:100C500008950F931F93CF93DF938C01D62FC42F4A
:100C6000607F642B0E94100680E1D89FB0011124A0
:100C70006C2BC801DF91CF911F910F910C9410063E
:100C8000CF93DF9300D000D01F921F92CDB7DEB775
:100C900098E0E6E0F2E0DE01119601900D929A955F
:100CA000E1F790916503961708F46FEF262F30E077
:100CB000220F331F41E050E04C0F5D1F240F351F02
:100CC000F9016081680F606840E08DE593E0289647
:100CD0000FB6F894DEBF0FBECDBFDF91CF910C945D
:100CE000290641E00E94290681E090E0089585ED03
:100CF0008093BC008091160390911703A091180374
:100D0000B09119030796A11DB11D23E0B695A795D3
:100D1000979587952A95D1F72091BC0024FD03C0B3
:100D20001092140308954091160350911703609197
:100D3000180370911903452B462B472B69F3009735
:100D4000A105B10541F02AE22A95F1F700C001970B
:100D5000A109B109E1CF809115030C942D03EF9205
:100D6000FF920F931F93CF93DF93CDB7DEB76897B2
:100D70000FB6F894DEBF0FBECDBF7B01FC0124810E
:100D80003581232BA9F1008111816CE272E0C80149
:100D90000E94A10D892B51F48091880290918902C3
:100DA0008E0D9F1D909389028093880269E372E003
:100DB000C8010E94A10D892B51F480918602909167
:100DC00087028E0D9F1D90938702809386026BE3AE
:100DD00072E0C8010E94A10D6091840270918502A9
:100DE000892B31F46E0D7F1D709385026093840210
:100DF00061E080E00E94400660918402709185026B
:100E0000CE0143960E94640560918602709187022C
:100E1000CE010D960E94640560918802709189024E
:100E2000CE0107960E9464056EE272E0CE01019643
:100E30000E94D705BE01695F7F4FCE0101960E94D7
:100E4000C40561E372E00E94AE05BE01635F7F4F9F
:100E50000E94C40565E372E00E94AE05BE016D5EAE
:100E60007F4F0E94C40567E772E00E94AE05FC0157
:100E700044815581608171818DE593E00E94BA02C1
:100E8000CE0101960E940806CE0107960E94080630
:100E9000CE010D960E940806CE0143960E940806D8
:100EA00068960FB6F894DEBF0FBECDBFDF91CF912D
:100EB0001F910F91FF90EF9008951F920F920FB620
:100EC0000F9211242F933F938F939F93AF93BF93D0
:100ED0008091490390914A03A0914B03B0914C0338
:100EE0003091480323E0230F2D3758F50196A11DBB
:100EF000B11D209348038093490390934A03A09324
:100F00004B03B0934C0380914D0390914E03A091FD
:100F10004F03B09150030196A11DB11D80934D0365
:100F200090934E03A0934F03B0935003BF91AF91A2
:100F30009F918F913F912F910F900FBE0F901F9017
:100F4000189526E8230F0296A11DB11DD2CF1F923E
:100F50000F920FB60F9211240BB60F922F933F935F
:100F60004F935F936F937F938F939F93AF93BF93B1
:100F7000EF93FF938091B900887F803609F44DC0CC
:100F800008F040C0883209F4A9C028F5803109F47E
:100F90009DC0C8F4882309F4FBC0883009F496C0CA
:100FA000FF91EF91BF91AF919F918F917F916F9141
:100FB0005F914F913F912F910F900BBE0F900FBEFD
:100FC0000F901F901895883109F488C0803241F73E
:100FD0008093120314C0803409F49DC040F4803320
:100FE000B9F38833E9F68093120385ECB0C08035FD
:100FF00009F485C0883509F496C0883489F60E94C2
:101000007706CECF883909F48CC038F5883729F0B7
:1010100050F4883611F0803719F683E0809314037A
:101020001092ED0257C0883809F47BC0803919F05E
:10103000803809F0B5CF8091ED02803208F071C0A0
:10104000E091ED0281E08E0F8093ED028091BB0074
:10105000F0E0E353FD4F80833DC0803B39F0E0F486
:10106000803A09F479C0883A09F09ACF84E08093F5
:1010700014031092CC021092CB02E0913E03F09147
:101080003F0319958091CB0281110FC081E08093BD
:10109000CB021092AB0209C0803C09F4A6CF883C79
:1010A00009F4A3CF883B09F07BCFE091CC0281E02B
:1010B0008E0F8093CC02F0E0E555FD4F8081809348
:1010C000BB009091CC028091CB0229C08091EF02AD
:1010D0008093BB0085EC8093BC0062CF909111039C
:1010E00080911003981758F5E091110381E08E0F5D
:1010F00080931103F0E0E051FD4F8081E9CFE09152
:10110000110381E08E0F809311038091BB00F0E00A
:10111000E051FD4F80839091110380911003981747
:10112000C8F285E8D8CFE091110381E08E0F80935B
:1011300011038091BB00F0E0E051FD4F808380916E
:10114000130381115CCF81E08093EE0284EA8093E7
:10115000BC001092140324CF85EC8093BC00109245
:1011600014038091ED02803230F4E091ED02F0E062
:10117000E353FD4F10826091ED0270E0E0913C037B
:10118000F0913D038DEC92E019951092ED0208CF9D
:101190001092120334CFE1E5F3E01382128288EE5D
:1011A00093E0A0E0B0E084839583A683B78382E1D7
:1011B00092E091838083EDE5F3E01382128284E272
:1011C00092E09183808387E2848380E1818782E05B
:1011D000828713860895CF93DF9300D000D0CDB7D8
:1011E000DEB7789484B5826084BD84B5816084BDA7
:1011F00085B5826085BD85B5816085BD80916E00B5
:10120000816080936E0010928100809181008260E5
:101210008093810080918100816080938100809122
:1012200080008160809380008091B1008460809311
:10123000B1008091B00081608093B00080919100F6
:1012400082608093910080919100816080939100F1
:10125000809190008160809390008091A1008260D5
:101260008093A1008091A10081608093A100809172
:10127000A00081608093A000809121018260809312
:1012800021018091210181608093210180912001C1
:1012900081608093200180917A00846080937A003D
:1012A00080917A00826080937A0080917A008160D8
:1012B00080937A0080917A00806880937A001092FF
:1012C000C10060E087E10E94020282E20E94D9012F
:1012D0000197A9F461E086E10E94020261E070E0FA
:1012E00080E090E00E94860260E086E10E940202B7
:1012F00061E070E080E090E00E948602E6CF10920C
:1013000043031092420310924103109240030E9443
:101310000F0388EB92E090933F0380933E0389EBA9
:1013200092E090933D0380933C031092620380917E
:101330006703823018F098E090936203809365030E
:1013400062E370E080E090E00E94860260916803B2
:101350008DE593E00E94D40368EE73E080E090E0B6
:101360000E94860260E38DE593E00E9410060BE484
:1013700016E4C8010197F1F760E38DE593E00E9460
:101380001006C8010197F1F760E38DE593E00E9434
:10139000100683E592E00197F1F760E28DE593E0B6
:1013A0000E94100660916203606240E08DE593E068
:1013B0000E94290684E08093630340E06CE08DE5A1
:1013C00093E00E94290640E061E08DE593E00E94F1
:1013D00029060BE31FE1C8010197F1F782E0809332
:1013E000640340E066E08DE593E00E94290640E05A
:1013F00062E08DE593E00E942906C8010197F1F7AC
:1014000088E08093680360E08DE593E00E94D40358
:1014100060E080E00E9440068DE392E00E94F104CB
:1014200061E086E10E94300261E087E10E943002C3
:1014300061E088E10E94300261E089E10E943002AF
:1014400061E08AE10E94300261E08BE10E9430029B
:1014500061E08BE00E94300260E08BE00E940202BB
:1014600062E08CE10E94300262E08DE10E94300275
:1014700062E08EE10E94300262E08FE10E94300261
:1014800062E080E20E94300262E081E20E9430026B
:1014900061E080E00E9440068EE492E00E94F10448
:1014A0000E94DD0400E010E02FB7F894809149031A
:1014B00090914A03A0914B03B0914C032FBF4091F0
:1014C0004403509145036091460370914703841B88
:1014D000950BA60BB70B803E9349A440B10560F075
:1014E00060E08BE00E94020261E080E00E94400622
:1014F0008AE592E00E94F1048CE10E94D901892BD7
:10150000C1F441E050E067E170E086E190E00E94C4
:10151000BE046CE272E0CE0101960E94D70561E044
:1015200070E0CE0101960E94AF06CE0101960E94A6
:1015300008068DE10E94D901892BC1F44FEF5FEFBE
:1015400067E170E086E190E00E94BE046CE272E028
:10155000CE0101960E94D7056FEF7FEFCE01019675
:101560000E94AF06CE0101960E9408068EE10E94FD
:10157000D901892BC1F441E050E069E170E088E1D4
:1015800090E00E94BE0469E372E0CE0101960E94E1
:10159000D70561E070E0CE0101960E94AF06CE0152
:1015A00001960E9408068FE10E94D901892BC1F49F
:1015B0004FEF5FEF69E170E088E190E00E94BE04C8
:1015C00069E372E0CE0101960E94D7056FEF7FEFCD
:1015D000CE0101960E94AF06CE0101960E94080638
:1015E00080E20E94D901892BC1F441E050E06BE117
:1015F00070E08AE190E00E94BE046BE372E0CE01ED
:1016000001960E94D70561E070E0CE0101960E942C
:10161000AF06CE0101960E94080681E20E94D90120
:10162000892BC1F44FEF5FEF6BE170E08AE190E04E
:101630000E94BE046BE372E0CE0101960E94D705C2
:101640006FEF7FEFCE0101960E94AF06CE010196AB
:101650000E9408068BE00E94D901892BD9F461E031
:101660008BE00E94020261E08AE00E9440068FE661
:1016700092E00E94F1040E94DD0464E670E080E0E4
:1016800090E00E9486020115110509F40DCF0E9419
:1016900000000ACF60E08BE00E94020261E08AE075
:1016A0000E94400689E792E0E4CFBB274A3031F43C
:1016B000992322F4BDE2909581959F4F0C94610B84
:1016C000BB27FB015527AA27880F991FAA1FA4171C
:1016D00010F0A41B83955051B9F7A05DAA3308F010
:1016E000A95DA193009779F7B111B1931192CB0144
:1016F0000C947A0BDC01FC01672F71917723E1F7E1
:10170000329704C07C916D9370836291AE17BF07CE
:10171000C8F30895EE0FFF1F881F8BBF0790F69147
:10172000E02D19940F931F93CF93DF93823091058F
:1017300010F482E090E0E0916B03F0916C0330E0F4
:1017400020E0B0E0A0E0309799F42115310509F4CC
:101750004AC0281B390B24303105D8F58A819B817A
:101760006115710589F1FB0193838283FE0111C02C
:10177000408151810281138148175907E0F04817D1
:10178000590799F4109761F012960C9312971396DB
:101790001C933296CF01DF91CF911F910F91089545
:1017A00000936B0310936C03F4CF2115310551F0B6
:1017B0004217530738F0A901DB019A01BD01DF018F
:1017C000F801C1CFEF01F9CF90936C0380936B03C5
:1017D000CDCFFE01E20FF31F819391932250310987
:1017E00039832883D7CF2091690330916A03232B53
:1017F00041F4209102023091030230936A03209356
:10180000690320910002309101022115310541F454
:101810002DB73EB74091040250910502241B350BB1
:10182000E0916903F0916A03E217F307A0F42E1B1D
:101830003F0B2817390778F0AC014E5F5F4F241734
:10184000350748F04E0F5F1F50936A0340936903BA
:10185000819391939FCFF0E0E0E09CCFCF93DF9313
:101860000097E9F0FC01329713821282A0916B037A
:10187000B0916C03ED0130E020E01097A1F42081DD
:101880003181820F931F2091690330916A032817D9
:10189000390709F061C0F0936A03E0936903DF91AF
:1018A000CF910895EA01CE17DF07E8F54A815B8101
:1018B0009E0141155105B1F7E901FB83EA83499186
:1018C0005991C40FD51FEC17FD0761F480819181F8
:1018D0000296840F951FE901998388838281938101
:1018E0009B838A83F0E0E0E012968D919C911397A0
:1018F0000097B9F52D913C911197CD010296820F79
:10190000931F2091690330916A032817390739F62C
:10191000309751F510926C0310926B03B0936A03E9
:10192000A0936903BCCFD383C28340815181840FCC
:10193000951FC817D90761F44E5F5F4F8881998161
:10194000480F591F518340838A819B8193838283EF
:101950002115310509F0B0CFF0936C03E0936B03D0
:101960009ECFFD01DC01C0CF13821282D7CF4F92F0
:101970005F926F927F928F929F92AF92BF92CF921F
:10198000DF92EF92FF920F931F93CF93DF938C011F
:10199000009799F4CB01DF91CF911F910F91FF90A8
:1019A000EF90DF90CF90BF90AF909F908F907F90FF
:1019B0006F905F904F900C94920BFC01E60FF71F15
:1019C0009C0122503109E217F30708F4AEC0D90197
:1019D000CD91DC911197C617D70720F1C530D105FD
:1019E00078F0CE0104978617970750F0C61BD70BE7
:1019F0002297C193D1936D937C93CF010E942E0CBB
:101A0000C801DF91CF911F910F91FF90EF90DF9070
:101A1000CF90BF90AF909F908F907F906F905F908E
:101A20004F9008955B01AC1ABD0A4C018C0E9D1EAF
:101A3000A0916B03B0916C03512C412CF12CE12C43
:101A4000109731F58091690390916A038815990583
:101A500009F05CC04616570608F058C08091000295
:101A600090910102009741F48DB79EB74091040216
:101A700050910502841B950BE817F90708F055C033
:101A8000F0936A03E0936903F90171836083B8CF2F
:101A90008D919C91119712966C90129713967C9051
:101AA0001397A815B90559F56C0142E0C40ED11C75
:101AB000CA14DB0420F1AC014A195B09DA01129661
:101AC000159780F06282738251834083D9016D93B0
:101AD0007C93E114F10471F0D7011396FC93EE931B
:101AE00012978ECF22968C0F9D1FF90191838083D0
:101AF000F301EFCFF0936C03E0936B0381CF4816B3
:101B0000590608F42C017D01D3019ACFCB010E9424
:101B1000920B7C01009749F0AE01B8010E94980D2C
:101B2000C8010E942E0C87016BCF10E000E068CF47
:101B3000FB01DC0102C001900D9241505040D8F7EA
:101B40000895FB01DC018D91019080190110D9F3FA
:101B5000990B0895FB01DC0101900D920020E1F743
:061B60000895F894FFCF88
:101B660000006D03800000004000140054000000D7
:101B76000000A5037803BB044E0371035E034F0305
:101B8600000000007106BA02BB04E7025800583A8A
:101B96000020593A00205A3A0059005A00434E4351
:101BA600204C617365722043757474657200583AEF
:101BB6003020593A30205A3A30004C617365722011
:101BC6004F66662028496E61637469766529004C04
:101BD60061736572204F4E20004C61736572204F11
:041BE600464600006F
:00000001FF
