:100000000C9432010C9463010C9463010C94630111
:100010000C9463010C9463010C9463010C946301D0
:100020000C9463010C9463010C9463010C946301C0
:100030000C9463010C9463010C9463010C946301B0
:100040000C9463010C9463010C9463010C946301A0
:100050000C9463010C9463010C9463010C940A05E5
:100060000C9463010C9463010C9463010C94630180
:100070000C9463010C9463010C9463010C94630170
:100080000C9463010C9463010C9463010C94630160
:100090000C9463010C9463010C9463010C9454055B
:1000A0000C9463010C9463010C9463010C94630140
:1000B0000C9463010C9463010C9463010C94630130
:1000C0000C9463010C9463010C9463010C94630120
:1000D0000C9463010C9463010C9463010C94630110
:1000E0000C9463010C94DA010C94E0010C940D0360
:1000F0000C9478060C9468020C940A020C94D301B8
:100100000C9496020C9427030C9467020C94FE0244
:100110000C94FC010C9400020C94F8010C94540310
:100120000C94B4010C94F2010C9406020C94E401BA
:100130000C94D7010C94FD020C94EA010C946A040F
:100140000C94B9010C9469020C94CC040C94200317
:100150000C94CF010C94CB010C94EE0100000A0B1F
:1001600002090C0D0E080703040100000000000046
:10017000000000000000000000000000000000007F
:10018000000000000000000012111000000000003C
:10019000000000000000000000000000000000005F
:1001A000000000002200250028002B002E00310056
:1001B000340002010000050108010B0100002100CC
:1001C000240027002A002D00300033000101000028
:1001D000040107010A0105050505070508080808C7
:1001E000020202020A0A08080404040401010101CF
:1001F00001010101030303030303030304070707CA
:100200000C0C0C0C0C0C0C0C02020202060606066E
:10021000060606060B0B0B0B0B0B0B0B010210203B
:10022000200808102040102040800201020108042C
:1002300002010102040810204080804020100804C0
:100240000201800402018040201008040201080419
:10025000020101020408102040800102040810205D
:100260004080780611241FBECFEFD1E2DEBFCDBFA4
:1002700000E00CBF23E0ACE4B2E001C01D92AB3261
:10028000B207E1F712E0A0E0B2E0E4E0F0E100E064
:100290000BBF02C007900D92AC34B107D9F711E043
:1002A000C2E3D1E000E006C021970109802FFE01E2
:1002B0000E94F807C133D10780E00807A9F70E9420
:1002C00098060C9400080C94000090E0FC01E45E99
:1002D000FD4F24918A529E4FFC018491882399F00E
:1002E00090E0880F991FFC01E454FE4FA591B49152
:1002F000FC01EE55FE4F859194918FB7F894EC91E7
:10030000E22BEC938FBF0895282F30E0F901E45AD7
:10031000FE4F9491F901E45EFD4F44912A523E4F05
:10032000F9012491222309F435C0992311F1915048
:100330009231F8F4E92FF0E08827EE55FE4F8F4F09
:100340000C94F807D301D701B401CB01CF01B90157
:10035000DA01E001E401EA01EE01F201F801FC0139
:10036000B901000206020A02809180008F77809313
:100370008000E22FF0E0EE0FFF1FEE55FE4FA5913B
:10038000B4918FB7F894EC91611148C040954E2319
:100390004C938FBF0895809180008F7DE8CF80912E
:1003A0008000877FE4CF84B58F7784BDE2CF84B5AA
:1003B0008F7DFBCF8091B0008F778093B000D9CF35
:1003C0008091B0008F7DF9CF809190008F778093DE
:1003D0009000CFCF809190008F7DF9CF80919000D9
:1003E000877FF5CF8091A0008F778093A000C1CF49
:1003F0008091A0008F7DF9CF8091A000877FF5CFFD
:10040000809120018F7780932001B3CF80912001CC
:100410008F7DF9CF80912001877FF5CF4E2BB8CF0C
:100420003FB7F89480910F0390911003A0911103AE
:10043000B091120326B5A89B05C02F3F19F0019675
:10044000A11DB11D3FBFBA2FA92F982F8827BC012E
:10045000CD01620F711D811D911D42E0660F771F56
:10046000881F991F4A95D1F708958F929F92AF9256
:10047000BF92CF92DF92EF92FF924B015C010E94FC
:1004800010026B017C010E9410026C197D098E091B
:100490009F09683E734081059105A8F321E0821A07
:1004A0009108A108B10888EEC80E83E0D81EE11CAF
:1004B000F11C81149104A104B10429F7FF90EF907D
:1004C000DF90CF90BF90AF909F908F900895089548
:1004D0000895AF92BF92CF92DF92EF92FF920F9367
:1004E0001F93CF93DF936C017B018B01040F151FCA
:1004F000EB015E01AE18BF08C017D10759F0699132
:10050000D601ED91FC910190F081E02DC601199585
:10051000892B79F7C501DF91CF911F910F91FF9042
:10052000EF90DF90CF90BF90AF9008950895209105
:100530008D02260F3327331F21323105ECF4209131
:10054000D602FC0190E080E0243069F082E008955A
:10055000A0918D022191AC0143595D4FA40FB52F9D
:10056000B11D2C930196861798F380918D02680F28
:1005700060938D0280E0089581E008951092D60284
:1005800081E08093D5021092B00261E084E10E9484
:10059000840161E085E10E948401E9EBF0E0808163
:1005A0008E7F808380818D7F808388E48093B800F4
:1005B00085E48093BC000895CF93DF9391E09093FE
:1005C0006C028823B9F0C091B800D091BA00809134
:1005D000BC008A7B8093BC0060E084E10E948401BF
:1005E00060E085E10E9484010E94BE02D093BA00BF
:1005F000C093B800DF91CF9108950895E09105036D
:1006000080910403E81730F4F0E0E45BFD4F808153
:1006100090E008958FEF9FEF0895909105038091EA
:1006200004032FEF3FEF981748F4E92FF0E0E45B65
:10063000FD4F208130E09F5F90930503C90108952D
:100640008091040390910503891B990B0895CF9223
:10065000DF92EF92FF920F931F93CF93DF937C0172
:10066000CB018A012091DC02222389F0EB016B018E
:10067000C40ED51ECC15DD0569F06991D701ED9149
:10068000FC910190F081E02DC7011995F3CF642F03
:100690000E949702C801DF91CF911F910F91FF90A7
:1006A000EF90DF90CF900895CF93DF931F92CDB757
:1006B000DEB769832091DC022223F9F02091020346
:1006C000203258F021E030E0FC013383228390E0B7
:1006D00080E00F90DF91CF91089580910303E82F80
:1006E000F0E0E352FD4F998190838F5F8093030385
:1006F0008093020381E090E0ECCF61E0CE010196AF
:100700000E949702F7CFCF92DF92EF92FF920F9362
:100710001F93CF93DF93FC01C48121E02093DC027F
:10072000C093FD0210920303109202038385682B8D
:1007300083E193E00E945403D0910203D13208F088
:1007400092C00E9410026B017C018091D60281113F
:1007500065C082E08093D60281E08093D5028FEF5E
:100760008093D4021092D302D093D202ADEDB2E0C6
:10077000E2EBF2E080E0D81385C01092B1028091E4
:10078000B102CC0FC82BC093B1028091B00281306E
:1007900009F07CC01092B0020E9410026B017C0133
:1007A0008091B1028093BB008091D8029091D902D0
:1007B000A091DA02B091DB02892B8A2B8B2B99F066
:1007C0000E9410020091D8021091D9022091DA0201
:1007D0003091DB026C197D098E099F0906171707F6
:1007E00028073907E0F18091BC0083FDD9CF85EC63
:1007F0008093BC000E9410026B017C018091D602A4
:10080000823009F445C08091D4028F3F61F180911C
:10081000D402803241F18091D40225C08091D80267
:100820009091D902A091DA02B091DB02892B8A2B38
:100830008B2B09F48ACF0E9410020091D8021091EC
:10084000D9022091DA023091DB026C197D098E0900
:100850009F09061717072807390708F076CF8091F8
:10086000D7020E94DC02109203031092020310923E
:10087000DC02DF91CF911F910F91FF90EF90DF90FD
:10088000CF9008959D9191938F5F75CF85EEB0CFF6
:100890008091D8029091D902A091DA02B091DB0246
:1008A000892B8A2B8B2B09F4A9CF0E94100200916F
:1008B000D8021091D9022091DA023091DB026C1932
:1008C0007D098E099F09061717072807390708F0C1
:1008D00095CFC5CF90E080E008950F931F93CF93FD
:1008E0008C01C62F0E9483036C2F6460C8010E9494
:1008F00083036C2F6B7FC8010E94830383EC90E01D
:100900000197F1F7CF911F910F9108950F931F93C6
:10091000CF93DF938C01D62FC42F607F642B0E946E
:100920006D0480E1D89FB00111246C2BC801DF91C8
:10093000CF911F910F910C946D04CF93DF9300D052
:1009400000D01F921F92CDB7DEB798E0E0E0F2E052
:10095000DE01119601900D929A95E1F7909127038F
:10096000981708F48FEF90E0880F991F21E030E08E
:100970002C0F3D1F820F931FFC016081606840E0D7
:100980008FE193E028960FB6F894DEBF0FBECDBF7F
:10099000DF91CF910C94860441E00E94860481E0AF
:1009A00090E0089585ED8093BC008091D8029091ED
:1009B000D902A091DA02B091DB020796A11DB11D08
:1009C00023E0B695A795979587952A95D1F720911D
:1009D000BC0024FD03C01092D60208954091D802B5
:1009E0005091D9026091DA027091DB02452B462BBF
:1009F000472B69F30097A105B10541F02AE22A953A
:100A0000F1F700C00197A109B109E1CF8091D702A8
:100A10000C94DC021F920F920FB60F9211242F93A9
:100A20003F938F939F93AF93BF9380910B039091CC
:100A30000C03A0910D03B0910E0330910A0323E043
:100A4000230F2D3758F50196A11DB11D20930A03E0
:100A500080930B0390930C03A0930D03B0930E03AC
:100A600080910F0390911003A0911103B091120394
:100A70000196A11DB11D80930F0390931003A093C5
:100A80001103B0931203BF91AF919F918F913F914A
:100A90002F910F900FBE0F901F90189526E8230FEF
:100AA0000296A11DB11DD2CF1F920F920FB60F92C9
:100AB00011240BB60F922F933F934F935F936F9335
:100AC0007F938F939F93AF93BF93EF93FF93809107
:100AD000B900887F803609F44DC008F040C08832E4
:100AE00009F4A9C028F5803109F49DC0C8F4882311
:100AF00009F4FBC0883009F496C0FF91EF91BF91D3
:100B0000AF919F918F917F916F915F914F913F91A5
:100B10002F910F900BBE0F900FBE0F901F90189546
:100B2000883109F488C0803241F78093D40214C020
:100B3000803409F49DC040F48033B9F38833E9F67A
:100B40008093D40285ECB0C0803509F485C0883527
:100B500009F496C0883489F60E94D204CECF883931
:100B600009F48CC038F5883729F050F4883611F034
:100B7000803719F683E08093D6021092AF0257C0F7
:100B8000883809F47BC0803919F0803809F0B5CF76
:100B90008091AF02803208F071C0E091AF0281E035
:100BA0008E0F8093AF028091BB00F0E0E157FD4FC4
:100BB00080833DC0803B39F0E0F4803A09F479C08D
:100BC000883A09F09ACF84E08093D60210928E0280
:100BD00010928D02E0910003F0910103199580912C
:100BE0008D0281110FC081E080938D0210926D0201
:100BF00009C0803C09F4A6CF883C09F4A3CF883B08
:100C000009F07BCFE0918E0281E08E0F80938E02FF
:100C1000F0E0E359FD4F80818093BB0090918E02FC
:100C200080918D0229C08091B1028093BB0085EC38
:100C30008093BC0062CF9091D3028091D20298172A
:100C400058F5E091D30281E08E0F8093D302F0E05B
:100C5000EE54FD4F8081E9CFE091D30281E08E0F09
:100C60008093D3028091BB00F0E0EE54FD4F80836F
:100C70009091D3028091D2029817C8F285E8D8CF1C
:100C8000E091D30281E08E0F8093D3028091BB006C
:100C9000F0E0EE54FD4F80838091D50281115CCF4E
:100CA00081E08093B00284EA8093BC001092D60267
:100CB00024CF85EC8093BC001092D6028091AF02C5
:100CC000803230F4E091AF02F0E0E157FD4F108246
:100CD0006091AF0270E0E091FE02F091FF028FE8B8
:100CE00092E019951092AF0208CF1092D40234CF3F
:100CF000E3E1F3E01382128288EE93E0A0E0B0E03B
:100D000084839583A683B7838CE092E0918380836C
:100D1000EFE1F3E0138212828EE192E0918380830F
:100D200087E2848380E1818782E082871386089549
:100D3000789484B5826084BD84B5816084BD85B5B6
:100D4000826085BD85B5816085BD80916E008160C2
:100D500080936E0010928100809181008260809368
:100D6000810080918100816080938100809180006A
:100D70008160809380008091B10084608093B10095
:100D80008091B00081608093B0008091910082607A
:100D90008093910080919100816080939100809177
:100DA00090008160809390008091A1008260809388
:100DB000A1008091A10081608093A1008091A0009A
:100DC00081608093A0008091210182608093210145
:100DD00080912101816080932101809120018160B7
:100DE0008093200180917A00846080937A008091C2
:100DF0007A00826080937A0080917A00816080938B
:100E00007A0080917A00806880937A001092C10005
:100E10001092050310920403109203031092020330
:100E20000E94BE0287E692E0909301038093000344
:100E300088E692E09093FF028093FE0210922403D2
:100E400080912903823018F098E0909324038093D6
:100E5000270362E370E080E090E00E943502609139
:100E60002A038FE193E00E94830368EE73E080E041
:100E700090E00E94350260E38FE193E00E946D04F0
:100E8000CBE4D6E4CE010197F1F760E38FE193E084
:100E90000E946D042197F1F760E38FE193E00E94D7
:100EA0006D0483E592E00197F1F760E28FE193E052
:100EB0000E946D0460912403606240E08FE193E042
:100EC0000E94860484E08093250340E06CE08FE17B
:100ED00093E00E94860440E061E08FE193E00E948D
:100EE0008604CBE3DFE1CE010197F1F782E0809346
:100EF000260340E066E08FE193E00E94860440E034
:100F000062E08FE193E00E9486042197F1F788E088
:100F100080932A0360E08FE193E00E94830380E0E6
:100F20000E949D0440E150E066E272E08FE193E0B0
:100F30000E94690286E10E94650187E10E946501C5
:100F400088E10E94650189E10E9465018AE10E94B1
:100F500065018BE10E9465018BE00E94650160E004
:100F60008BE00E9484012FB7F89480910B0390913D
:100F70000C03A0910D03B0910E032FBF80930603C5
:100F800090930703A0930803B0930903C0E0D0E057
:100F90002FB7F89480910B0390910C03A0910D034F
:100FA000B0910E032FBF409106035091070360914B
:100FB000080370910903841B950BA60BB70B803EA9
:100FC0009349A440B10578F060E08BE00E94840171
:100FD00081E00E949D0444E150E067E372E08FE10C
:100FE00093E00E946902209799F20E940000D0CFFE
:100FF000EE0FFF1F881F8BBF0790F691E02D19940D
:04100000F894FFCF92
:1010040000004000140054000000000054032703B3
:101014006A04FD0220030D03FE0200000000CC045C
:1010240069026A049602434E43204C617365722040
:10103400437574746572004C61736572204F666603
:0C1044002028496E6163746976652900FC
:00000001FF
