:100000000C948D010C94BE010C94BE010C94BE01A5
:100010000C94BE010C94BE010C94BE010C94BE0164
:100020000C94BE010C94BE010C94BE010C94BE0154
:100030000C94BE010C94BE010C94BE010C94BE0144
:100040000C94BE010C94BE010C94BE010C94BE0134
:100050000C94BE010C94BE010C94BE010C94D80A01
:100060000C94BE010C944C0B0C94220B0C94BE010E
:100070000C94BE010C94BE010C94BE010C94BE0104
:100080000C94BE010C94BE010C94BE010C94BE01F4
:100090000C94BE010C94BE010C94BE010C94820B16
:1000A0000C94BE010C94BE010C94BE010C94BE01D4
:1000B0000C94BE010C94BE010C94BE010C94BE01C4
:1000C0000C94BE010C94BE010C94BE010C94BE01B4
:1000D0000C94BE010C94BE010C94BE010C94BE01A4
:1000E0000C94BE010C9432040C94D9010C943E0380
:1000F0000C9404030C9435030C9415050C940E0514
:100100000C9439030C94FC010C941D030C942B03E8
:100110000C94FB040C9438020C940A020C945804BE
:100120000C947A070C94A60C0C9443030C94E506EB
:100130000C9433040C9442050C9423030C94100388
:100140000C94FE020C94EB040C9458060C940803D7
:100150000C94E8010C940C030C9485020C9413038A
:100160000C9459060C9419030C94EC040C9427037A
:100170000C943F030C9431033E3E3E2054494D45C0
:100180004F5554203E3E3E00436F6E6E656374656E
:100190006420746F004661696C656420636F6E6EE5
:1001A000656374696E6720746F0041542B43574A2E
:1001B00041505F4355523D222573222C2225732244
:1001C00000456E6420746167206E6F7420666F75E1
:1001D0006E64004E6F2074616720666F756E6400F8
:1001E0000D0A005354415455533A0041542B43498E
:1001F000505354415455530000002100240027005F
:100200002A002D0030003300010100000401070125
:100210000A0100002200250028002B002E003100DA
:10022000340002010000050108010B01000020005C
:100230002300260029002C002F00320000010000BE
:100240000301060109010505050507050808080859
:10025000020202020A0A080804040404010101015E
:100260000101010103030303030303030407070759
:100270000C0C0C0C0C0C0C0C0202020206060606FE
:10028000060606060B0B0B0B0B0B0B0B01021020CB
:1002900020080810204010204080020102010804BC
:1002A0000201010204081020408080402010080450
:1002B00002018004020180402010080402010804A9
:1002C00002010102040810204080010204081020ED
:1002D000408000000A0B02090C0D0E080703040100
:1002E000000000000000000000000000000000000E
:1002F00000000000000000000000000000001211DB
:1003000010000000000000000000000000000000DD
:100310000000000000000000A60C11241FBECFEF5B
:10032000D1E2DEBFCDBF00E00CBF24E0A4E1B3E02A
:1003300001C01D92A63CB207E1F713E0A0E0B2E0D5
:10034000ECE1FCE200E00BBF02C007900D92A4318B
:10035000B107D9F711E0CDE8D1E000E006C0219760
:100360000109802FFE010E94CF13CC38D10780E015
:100370000807A9F70E94420D0C940C160C9400007B
:10038000E0910000F09101000084F185E02D90E003
:1003900080E01995181619065CF4E0910000F091C0
:1003A00001000284F385E02D90E080E01995E8CF0C
:1003B0000895FC01538D448D252F30E0842F90E06B
:1003C000821B930B541710F0CF9608950197089550
:1003D000FC01918D828D981761F0A28DAE0FBF2F19
:1003E000B11D5D968C91928D9F5F9F73928F90E06F
:1003F00008958FEF9FEF0895FC01918D828D9817DE
:1004000031F0828DE80FF11D858D90E008958FEF1A
:100410009FEF0895FC01918D228D892F90E0805CE3
:100420009F4F821B91098F7399270895FC01A48D1A
:10043000A80FB92FB11DA35ABF4F2C91848D90E006
:1004400001968F739927848FA689B7892C93A089E9
:10045000B1898C91837080648C93938D848D981373
:1004600006C00288F389E02D80818F7D8083089506
:10047000EF92FF920F931F93CF93DF93EC0181E0F4
:10048000888F9B8D8C8D98131AC0E889F98980819B
:1004900085FF15C09FB7F894EE89FF896083E889CE
:1004A000F98980818370806480839FBF81E090E0C0
:1004B000DF91CF911F910F91FF90EF900895F62E4D
:1004C0000B8D10E00F5F1F4F0F731127E02E8C8DE7
:1004D0008E110CC00FB607FCFACFE889F98980812C
:1004E00085FFF5CFCE010E941602F1CFEB8DEC0F08
:1004F000FD2FF11DE35AFF4FF0829FB7F8940B8F49
:10050000EA89FB8980818062CFCFCF93DF93EC01B2
:10051000888D8823B9F0AA89BB89E889F9898C91EB
:1005200085FD03C0808186FD0DC00FB607FCF7CFA7
:100530008C9185FFF2CF808185FFEDCFCE010E94A7
:100540001602E9CFDF91CF91089581EE93E00E94EA
:100550000A0221E0892B09F420E0822F089580E02F
:1005600090E0892B29F00E94A50281110E940000D1
:1005700080E090E0892B49F080E090E0892B29F021
:100580000E94000081110E94000080E090E0892B11
:1005900049F080E090E0892B29F00E940000811151
:1005A0000E94000080E090E0892B49F080E090E01C
:1005B000892B29F00E94000081110C9400000895FD
:1005C0008150823108F05AC0E82FF0E08827E451CA
:1005D000FD4F8F4F0C94CF130C031003FE02040346
:1005E00008033E03130319031D03230327032B03EF
:1005F000310335033E0339033F03430380918000F9
:100600008F77809380000895809180008F7DF9CF4F
:1006100080918000877FF5CF84B58F7784BD089562
:1006200084B58F7DFBCF8091B0008F778093B00031
:1006300008958091B0008F7DF9CF809190008F77E1
:10064000809390000895809190008F7DF9CF8091E4
:100650009000877FF5CF8091A0008F778093A000D6
:1006600008958091A0008F7DF9CF8091A000877FB1
:10067000F5CF809120018F7780932001089580919C
:1006800020018F7DF9CF80912001877FF5CFCF9317
:10069000DF93282F30E0F901EE52FD4F8491F901EC
:1006A000E457FD4FD491F901EA5BFD4FC491CC238F
:1006B000A1F081110E94E002EC2FF0E0EE0FFF1F8D
:1006C000E45DFD4FA591B491EC91ED2381E090E0C4
:1006D00009F480E0DF91CF91089580E090E0FACFB7
:1006E0001F93CF93DF93282F30E0F901EE52FD4F97
:1006F0008491F901E457FD4FD491F901EA5BFD4F74
:10070000C491CC23A9F0162F81110E94E002EC2F96
:10071000F0E0EE0FFF1FEE5EFD4FA591B4918FB795
:10072000F894EC91111108C0D095DE23DC938FBFB3
:10073000DF91CF911F910895DE2BF8CFCF93DF93F8
:1007400090E0FC01E457FD4F24918A5B9D4FFC0132
:1007500084918823D1F090E0880F991FFC01E85024
:10076000FE4FA591B491FC01EE5EFD4FC591D49171
:10077000623071F49FB7F8943C91822F8095832367
:100780008C93E8812E2B28839FBFDF91CF91089512
:100790008FB7F894EC912E2B2C938FBFF6CF3FB7E9
:1007A000F8948091DD039091DE03A091DF03B09176
:1007B000E00326B5A89B05C02F3F19F00196A11DA7
:1007C000B11D3FBFBA2FA92F982F8827BC01CD019B
:1007D000620F711D811D911D42E0660F771F881FFA
:1007E000991F4A95D1F708958F929F92AF92BF9229
:1007F000CF92DF92EF92FF924B015C010E94CF03F8
:100800006B017C010E94CF036C197D098E099F0941
:10081000683E734081059105A8F321E0821A910892
:10082000A108B10888EEC80E83E0D81EE11CF11CB7
:1008300081149104A104B10429F7FF90EF90DF9097
:10084000CF90BF90AF909F908F9008952FB7F8945E
:100850006091D9037091DA038091DB039091DC03FE
:100860002FBF089508950895EF92FF920F931F935D
:10087000CF93DF938C017B01D0E0C0E0F701EC0F58
:10088000FD1F6491662361F0D801ED91FC91019008
:10089000F081E02DC8011995892B11F02196EECF3A
:1008A000CE01DF91CF911F910F91FF90EF900895AE
:1008B000AF92BF92CF92DF92EF92FF920F931F936E
:1008C000CF93DF936C017B018B01040F151FEB01AC
:1008D0005E01AE18BF08C017D10759F06991D60163
:1008E000ED91FC910190F081E02DC6011995892BC5
:1008F00079F7C501DF91CF911F910F91FF90EF9094
:10090000DF90CF90BF90AF90089520915B03260FAA
:100910003327331F21323105ECF42091A403FC016D
:1009200090E080E0243069F082E00895A0915B03BC
:100930002191AC01455C5C4FA40FB52FB11D2C93E8
:100940000196861798F380915B03680F60935B03B1
:1009500080E0089581E008951092A40381E08093DF
:10096000A30310927E0361E084E10E94700361E0C2
:1009700085E10E947003E9EBF0E080818E7F808347
:1009800080818D7F808388E48093B80085E48093A4
:10099000BC000895CF93DF9391E090933A038823AE
:1009A000B9F0C091B800D091BA008091BC008A7BA8
:1009B0008093BC0060E084E10E94700360E085E108
:1009C0000E9470030E94AC04D093BA00C093B80098
:1009D000DF91CF9108950895E091D3038091D203E0
:1009E000E81730F4F0E0E65EFC4F808190E0089577
:1009F0008FEF9FEF08959091D3038091D2032FEF53
:100A00003FEF981748F4E92FF0E0E65EFC4F2081B5
:100A100030E09F5F9093D303C90108958091D20382
:100A20009091D303891B990B0895CF92DF92EF9297
:100A3000FF920F931F93CF93DF937C01CB018A0129
:100A40002091AA03222389F0EB016B01C40ED51E6D
:100A5000CC15DD0569F06991D701ED91FC9101900C
:100A6000F081E02DC7011995F3CF642F0E94850412
:100A7000C801DF91CF911F910F91FF90EF90DF9010
:100A8000CF900895CF93DF931F92CDB7DEB76983E0
:100A90002091AA032223F9F02091D003203258F0AC
:100AA00021E030E0FC013383228390E080E00F906E
:100AB000DF91CF9108958091D103E82FF0E0E555C3
:100AC000FC4F998190838F5F8093D1038093D003F3
:100AD00081E090E0ECCF61E0CE0101960E948504B8
:100AE000F7CFCF92DF92EF92FF920F931F93CF93A6
:100AF000DF93FC01C48121E02093AA03C093CB03C0
:100B00001092D1031092D0038385682B8EE794E076
:100B10000E944205D091D003D13208F092C00E94C9
:100B2000CF036B017C018091A403811165C082E039
:100B30008093A40381E08093A3038FEF8093A203AB
:100B40001092A103D093A003ABEAB3E0E0E8F3E096
:100B500080E0D81385C010927F0380917F03CC0F73
:100B6000C82BC0937F0380917E03813009F07CC045
:100B700010927E030E94CF036B017C0180917F0362
:100B80008093BB008091A6039091A703A091A80336
:100B9000B091A903892B8A2B8B2B99F00E94CF034C
:100BA0000091A6031091A7032091A8033091A903F7
:100BB0006C197D098E099F09061717072807390741
:100BC000E0F18091BC0083FDD9CF85EC8093BC001F
:100BD0000E94CF036B017C018091A403823009F451
:100BE00045C08091A2038F3F61F18091A2038032C2
:100BF00041F18091A20325C08091A6039091A703A3
:100C0000A091A803B091A903892B8A2B8B2B09F4FF
:100C10008ACF0E94CF030091A6031091A7032091D1
:100C2000A8033091A9036C197D098E099F09061745
:100C300017072807390708F076CF8091A5030E948F
:100C4000CA041092D1031092D0031092AA03DF912C
:100C5000CF911F910F91FF90EF90DF90CF9008956B
:100C60009D9191938F5F75CF85EEB0CF8091A60354
:100C70009091A703A091A803B091A903892B8A2B77
:100C80008B2B09F4A9CF0E94CF030091A6031091EA
:100C9000A7032091A8033091A9036C197D098E093F
:100CA0009F09061717072807390708F095CFC5CF02
:100CB000089590E080E008951F93CF93DF93182F5D
:100CC000862F61E04130510509F060E00E94700319
:100CD00061E0812F0E947003CBE7DCE0CE01019739
:100CE000F1F760E0812F0E9470032197F1F7DF9107
:100CF000CF911F9108950E9426046093D4037093AE
:100D0000D5038093D6039093D70308950F931F9331
:100D1000CF938C01C62F0E9471056C2F6460C801AF
:100D20000E9471056C2F6B7FC8010E94710583ECD6
:100D300090E00197F1F7CF911F910F9108950F93D4
:100D40001F93CF93DF938C01D62FC42F607F642B2A
:100D50000E94860680E1D89FB00111246C2BC80147
:100D6000DF91CF911F910F910C948606CF93DF9363
:100D700000D000D01F921F92CDB7DEB798E0E6E01A
:100D8000F2E0DE01119601900D929A95E1F79091B3
:100D9000B804981708F48FEF90E0880F991F21E0AE
:100DA00030E02C0F3D1F820F931FFC0160816068B3
:100DB00040E080EB94E028960FB6F894DEBF0FBEBB
:100DC000CDBFDF91CF910C949F0641E00E949F061A
:100DD00081E090E00895FC0101900020E9F731974F
:100DE0009F01281B390BE0919004F0919104E21BC4
:100DF000F30B40918C0450918D04E417F50730F407
:100E000060918A0470918B04E60FF71F280F391F39
:100E100060918E0470918F04DC018217930758F45F
:100E20000196BC91A081BA1308C03196E617F70766
:100E300099F7FA01F1CF81E0089580E00895FB0170
:100E400001900020E9F73197AF01461B570BDC01F9
:100E5000ED91FC910280F381E02D19948F929F9285
:100E6000AF92BF92EF92FF920F931F93CF93DF93B6
:100E7000CDB7DEB7A1970FB6F894DEBF0FBECDBFDA
:100E80007C01FA01CB0119A2223008F42AE08E017C
:100E90000F5D1F4F822E912CB12CA12CBF01A501FB
:100EA00094010E94AD13F901CA016A300CF5605D2E
:100EB000D8016E938D01232B242B252B79F790E0FD
:100EC00080E0109721F0BD01C7010E941F07A19685
:100ED0000FB6F894DEBF0FBECDBFDF91CF911F914B
:100EE0000F91FF90EF90BF90AF909F908F900895DB
:100EF000695CDECF8F929F92AF92BF92CF92DF92CA
:100F0000EF92FF920F931F93CF93DF937C01EB013E
:100F10006C0182E0C80ED11C4701E5E08E0E911CE9
:100F200010E000E0F60141916F0150E070E060E0F8
:100F30002AE0CE010E942E075C01E881F981019030
:100F4000F081E02D6EE2CE0119958A0D9B1D080FF0
:100F5000191FC814D90431F7F701458150E070E03A
:100F600060E02AE0CE010E942E07800F911FDF91E2
:100F7000CF911F910F91FF90EF90DF90CF90BF9096
:100F8000AF909F908F9008950F931F93CF93DF930F
:100F90008C01D0E0C0E06115710519F00E941F07B7
:100FA000EC0167EE72E0C8010E941F078C0F9D1FC5
:100FB000DF91CF911F910F9108950F931F93CF93BE
:100FC000DF93EC010E9434048C0167EE72E0CE01E5
:100FD0000E941F07800F911FDF91CF911F910F91EA
:100FE00008950C941F073F924F925F926F927F92E9
:100FF0008F929F92AF92BF92CF92DF92EF92FF9229
:101000000F931F93CF93DF936C012B01342E8091AC
:101010008C0490918D0490939104809390040E948D
:1010200026044B015C0166246A94762C0D2C000C7E
:10103000EE08FF080E942604681979098A099B09AD
:101040006C157D058E059F0508F059C08FEF681659
:10105000780609F054C0E0910000F091010000848E
:10106000F185E02D90E080E01995892B19F3E0914E
:101070000000F09101000284F385E02D90E080E013
:101080001995E0919004F0919104808380919004EF
:1010900090919104019690939104809390042091F3
:1010A0008E0430918F048217930740F080918C0456
:1010B00090918D0490939104809390044114510475
:1010C00041F0C2010E94EB06882319F085E0682EEA
:1010D000712C332009F4AECF0EE012E0D0E0C0E076
:1010E000F801819191918F010E94EB06811105C059
:1010F0002196C530D105A1F79DCF3E019BCF0E941F
:101100002604681979098A099B096C157D058E05E5
:101110009F0560F06EE472E081EE93E00E94F107BB
:1011200068E771E081EE93E00E94DD07C301DF9183
:10113000CF911F910F91FF90EF90DF90CF90BF90D4
:10114000AF909F908F907F906F905F904F903F9067
:1011500008950F931F93CF93DF93EC0188819981BA
:10116000009759F02A813B812617370730F081E03C
:10117000DF91CF911F910F9108958B016F5F7F4F8A
:101180000E94FC14009759F0998388831B830A837B
:101190002C813D81232B59F7FC011082E8CF80E0A0
:1011A000E7CFEF92FF920F931F93CF93DF936115D9
:1011B000710541F480E0DF91CF911F910F91FF9075
:1011C000EF90089541155105B1F07B01EC010C81C0
:1011D0001D81040F151FB8010E94A908882351F32F
:1011E000288139818C819D81B701820F931F0E94D4
:1011F000F6151D830C8381E0DECFCF93DF93EC01E6
:1012000088819981009711F00E94731419821882C5
:101210001D821C821B821A82DF91CF910895CF928A
:10122000DF92EF92FF920F931F93CF93DF93CDB78F
:10123000DEB762970FB6F894DEBF0FBECDBF8C014C
:10124000CB01F8011182108213821282158214825E
:101250004AE09E012F5F3F4F6901B9010E94911042
:10126000F60101900020E9F731977F01EC18FD08A5
:10127000B701C8010E94A908811112C0C8010E94CB
:10128000FD0862960FB6F894DEBF0FBECDBFDF91AA
:10129000CF911F910F91FF90EF90DF90CF90089525
:1012A000F801F582E482B601808191810E94F615F1
:1012B000E8CFCF93DF93EC01FB0101900020E9F729
:1012C0003197AF01461B570B0E94D108811103C013
:1012D000CE010E94FD08CE01DF91CF910895CF93FA
:1012E000DF93EC01FB0144815581608171810E9493
:1012F000D108811103C0CE010E94FD08CE01DF910B
:10130000CF910895EF92FF920F931F93CF93DF93A6
:10131000EC017B01198218821B821A821D821C82B9
:10132000FB0101900020E9F731978F01061B170B95
:10133000B8010E94A908811109C0CE01DF91CF91A7
:101340001F910F91FF90EF900C94FD081D830C836B
:10135000B70188819981DF91CF911F910F91FF9003
:10136000EF900C94F615FC0180819181009711F0AB
:101370000C947314089585ED8093BC008091A603AE
:101380009091A703A091A803B091A9030796A11D6E
:10139000B11D23E0B695A795979587952A95D1F726
:1013A0002091BC0024FD03C01092A4030895409135
:1013B000A6035091A7036091A8037091A903452B40
:1013C000462B472B69F30097A105B10541F02AE2AE
:1013D0002A95F1F700C00197A109B109E1CF8091E9
:1013E000A5030C94CA04CF93DF93CDB7DEB7C85CD6
:1013F000D1090FB6F894DEBF0FBECDBF9E012E52AD
:101400003F4FC253DF4F48815981CE5CD04068ECDA
:1014100070E0CE0101960E94BE100E94C001BE0184
:101420006F5F7F4F90E080E00E94C40741E070E072
:1014300060E0C053DF4F88819981C05DD0400E9439
:10144000F307C853DF4F0FB6F894DEBF0FBECDBF12
:10145000DF91CF910895EF92FF920F931F93CF9357
:10146000DF93CDB7DEB768970FB6F894DEBF0FBE37
:10147000CDBF7B01FC0124813581232BA9F10081A3
:10148000118169E572E0C8010E94ED15892B51F4C4
:1014900080911803909119038E0D9F1D909319034D
:1014A0008093180366E672E0C8010E94ED15892B4F
:1014B00051F480911603909117038E0D9F1D909308
:1014C00017038093160368E672E0C8010E94ED15C9
:1014D0006091140370911503892B31F46E0D7F1DFB
:1014E000709315036093140381E00E94B606609127
:1014F000140370911503CE0143960E940F09609169
:10150000160370911703CE010D960E940F0960918A
:10151000180370911903CE0107960E940F096BE51D
:1015200072E0CE0101960E948209BE01695F7F4F81
:10153000CE0101960E946F096EE572E00E94590982
:10154000BE01635F7F4F0E946F0962E672E00E94F6
:101550005909BE016D5E7F4F0E946F096EEC72E00B
:101560000E945909FC01448155816081718180EBA1
:1015700094E00E945804CE0101960E94B309CE0166
:1015800007960E94B309CE010D960E94B309CE01C1
:1015900043960E94B30968960FB6F894DEBF0FBE5B
:1015A000CDBFDF91CF911F910F91FF90EF900895E4
:1015B0001F920F920FB60F9211242F933F938F9388
:1015C0009F93AF93BF938091D9039091DA03A09139
:1015D000DB03B091DC033091D80323E0230F2D37D8
:1015E00058F50196A11DB11D2093D8038093D9030E
:1015F0009093DA03A093DB03B093DC038091DD03C7
:101600009091DE03A091DF03B091E0030196A11D4C
:10161000B11D8093DD039093DE03A093DF03B093AD
:10162000E003BF91AF919F918F913F912F910F90C8
:101630000FBE0F901F90189526E8230F0296A11D4C
:10164000B11DD2CF1F920F920FB60F9211240BB67D
:101650000F922F933F934F935F936F937F938F934B
:101660009F93AF93BF93EF93FF9381EE93E00E941C
:101670001602FF91EF91BF91AF919F918F917F9152
:101680006F915F914F913F912F910F900BBE0F90F3
:101690000FBE0F901F9018951F920F920FB60F92CA
:1016A00011240BB60F922F938F939F93EF93FF9379
:1016B000E091F103F091F2038081E091F703F09162
:1016C000F80382FD1DC090818091FA038F5F8F73B4
:1016D0002091FB03821741F0E091FA03F0E0EF5113
:1016E000FC4F958F8093FA03FF91EF919F918F911B
:1016F0002F910F900BBE0F900FBE0F901F9018955B
:101700008081F2CF1F920F920FB60F9211240BB669
:101710000F922F933F934F935F936F937F938F938A
:101720009F93AF93BF93EF93FF938091B900887F0E
:10173000803609F44DC008F040C0883209F4A9C0D1
:1017400028F5803109F49DC0C8F4882309F4FBC052
:10175000883009F496C0FF91EF91BF91AF919F91AE
:101760008F917F916F915F914F913F912F910F904A
:101770000BBE0F900FBE0F901F901895883109F483
:1017800088C0803241F78093A20314C0803409F4EA
:101790009DC040F48033B9F38833E9F68093A20307
:1017A00085ECB0C0803509F485C0883509F496C051
:1017B000883489F60E94BB09CECF883909F48CC0E1
:1017C00038F5883729F050F4883611F0803719F64B
:1017D00083E08093A40310927D0357C0883809F4F6
:1017E0007BC0803919F0803809F0B5CF80917D0336
:1017F000803208F071C0E0917D0381E08E0F80930C
:101800007D038091BB00F0E0E35AFC4F80833DC034
:10181000803B39F0E0F4803A09F479C0883A09F065
:101820009ACF84E08093A40310925C0310925B0330
:10183000E091CE03F091CF03199580915B03811164
:101840000FC081E080935B0310923B0309C0803C92
:1018500009F4A6CF883C09F4A3CF883B09F07BCFDD
:10186000E0915C0381E08E0F80935C03F0E0E55C27
:10187000FC4F80818093BB0090915C0380915B035F
:1018800029C080917F038093BB0085EC8093BC00CE
:1018900062CF9091A1038091A003981758F5E09131
:1018A000A10381E08E0F8093A103F0E0E058FC4F8C
:1018B0008081E9CFE091A10381E08E0F8093A103A5
:1018C0008091BB00F0E0E058FC4F80839091A10331
:1018D0008091A0039817C8F285E8D8CFE091A103C2
:1018E00081E08E0F8093A1038091BB00F0E0E0586F
:1018F000FC4F80838091A30381115CCF81E08093B2
:101900007E0384EA8093BC001092A40324CF85EC6C
:101910008093BC001092A40380917D03803230F448
:10192000E0917D03F0E0E35AFC4F108260917D036B
:1019300070E0E091CC03F091CD038DE593E0199533
:1019400010927D0308CF1092A20334CF0F931F9300
:10195000CF93DF93E1EEF3E01382128288EE93E0FF
:10196000A0E0B0E084839583A683B7832CE132E0C6
:101970003183208325EC30E03587248724EC30E068
:101980003787268720EC30E0318B208B21EC30E04C
:10199000338B228B22EC30E0358B248B26EC30E02D
:1019A000378B268B118E128E138E148EEEE7F4E099
:1019B0001382128284839583A683B7838EE292E09A
:1019C00091838083E2E9F4E0CCE4D2E0D183C08368
:1019D00012821382148215820AE814E080E290E0F9
:1019E000F8019183808381E290E00E94D713F8018F
:1019F000938382839C01205E3F4F358324839783AA
:101A0000868321E2FC0111922A95E9F7E8E9F4E0E6
:101A1000D183C0831282138214821582EEE9F4E02E
:101A2000D183C0831282138214821582E4EAF4E027
:101A3000D183C0831282138214821582EAEAF4E011
:101A4000D183C0831282138214821582ECEBF4E0FE
:101A5000D183C0831282138214821582E0EBF4E0FA
:101A60001382128280E492E09183808387E28483F0
:101A700080E1818782E082871386DF91CF911F9179
:101A80000F910895CF93DF93CDB7DEB765970FB66B
:101A9000F894DEBF0FBECDBF789484B5826084BD5C
:101AA00084B5816084BD85B5826085BD85B5816062
:101AB00085BD80916E00816080936E0010928100E0
:101AC000809181008260809381008091810081609B
:101AD000809381008091800081608093800080915C
:101AE000B10084608093B1008091B00081608093E8
:101AF000B00080919100826080939100809191006C
:101B0000816080939100809190008160809390002B
:101B10008091A10082608093A1008091A1008160EA
:101B20008093A1008091A00081608093A0008091AB
:101B30002101826080932101809121018160809345
:101B400021018091200181608093200180917A00A1
:101B5000846080937A0080917A00826080937A001A
:101B600080917A00816080937A0080917A00806809
:101B700080937A001092C1001092D3031092D20386
:101B80001092D1031092D0030E94AC0482E394E03F
:101B90009093CF038093CE0383E394E09093CD039F
:101BA0008093CC031092B5048091BA04823018F06F
:101BB00098E09093B5048093B80462E370E080E00D
:101BC00090E00E94F4036091BB0480EB94E00E94DB
:101BD000710568EE73E080E090E00E94F40360E33A
:101BE00080EB94E00E9486060BE416E4C80101979E
:101BF000F1F760E380EB94E00E948606C80101974C
:101C0000F1F760E380EB94E00E94860683E592E0C2
:101C10000197F1F760E280EB94E00E948606609104
:101C2000B504606240E080EB94E00E949F0684E08F
:101C30008093B60440E06CE080EB94E00E949F0645
:101C400040E061E080EB94E00E949F060BE31FE11F
:101C5000C8010197F1F782E08093B70440E066E0A5
:101C600080EB94E00E949F0640E062E080EB94E00D
:101C70000E949F06C8010197F1F788E08093BB049A
:101C800060E080EB94E00E94710580E00E94B6065F
:101C90006AE672E080EB94E00E94F10761E086E181
:101CA0000E949E0361E087E10E949E0361E088E15B
:101CB0000E949E0361E089E10E949E0361E08AE147
:101CC0000E949E0361E08BE10E949E0361E08BE035
:101CD0000E949E0360E08BE00E94700362E08CE152
:101CE0000E949E0362E08DE10E949E0362E08EE10D
:101CF0000E949E0362E08FE10E949E0362E080E208
:101D00000E949E0362E081E20E949E0381E00E94A5
:101D1000B6066BE772E080EB94E00E94F10787E87B
:101D200092E09F938F9384E992E09F938F938EE448
:101D30008F9380E28F938AEA91E09F938F930E9422
:101D4000F3090FB6F894DEBF0FBECDBF6EE472E0AC
:101D5000892B09F07BC181EE93E00E94F10768E8CE
:101D600071E081EE93E00E9434046EEC72E081EE4B
:101D700093E00E94F10764E972E081EE93E00E9433
:101D8000C40781E00E94B6066DE972E080EB94E042
:101D90000E94F1078E010D5E1F4F63EE71E0CE01D0
:101DA0000B960E948A1060EE71E0C8010E948A10B2
:101DB00019820E94C0016BEE71E090E080E00E9409
:101DC000DD0741E0BE01655F7F4F88EE93E00E9432
:101DD000F3078530910509F074C180918C049091CE
:101DE0008D04909391048093900440918A045091C3
:101DF0008B044F5F5F4F70E060E00E94E61541E0AA
:101E0000B80184EF91E00E94F307059709F03DC106
:101E1000F80101900020E9F73197E01BF10B609188
:101E20008C0470918D044091900450919104461B54
:101E3000570B4E1B5F0B4A30510510F049E050E044
:101E4000CE0101960E94FD1541E070E060E080ED5A
:101E500097E00E94F3070FB6F894DEBF0FBECDBF28
:101E6000CE0101960E946C100297039708F019C1E9
:101E700081E00E94B6066EEB72E080EB94E00E9477
:101E8000F1070E947B068CE10E944703892BD1F465
:101E900041E050E067E170E086E190E00E945C067E
:101EA00069E572E0CE0101960E94820961E070E06E
:101EB000CE0101960E942B0ACE0101960E94B30921
:101EC0000E947B068DE10E944703892BD1F44FEFDE
:101ED0005FEF67E170E086E190E00E945C0669E5F3
:101EE00072E0CE0101960E9482096FEF7FEFCE0172
:101EF00001960E942B0ACE0101960E94B3090E940E
:101F00007B068EE10E944703892BD1F441E050E02B
:101F100069E170E088E190E00E945C0666E672E0AC
:101F2000CE0101960E94820961E070E0CE01019627
:101F30000E942B0ACE0101960E94B3090E947B06E3
:101F40008FE10E944703892BD1F44FEF5FEF69E1E6
:101F500070E088E190E00E945C0666E672E0CE01E7
:101F600001960E9482096FEF7FEFCE0101960E94D9
:101F70002B0ACE0101960E94B3090E947B0680E2E3
:101F80000E944703892BD1F441E050E06BE170E0FF
:101F90008AE190E00E945C0668E672E0CE0101965C
:101FA0000E94820961E070E0CE0101960E942B0A36
:101FB000CE0101960E94B3090E947B0681E20E9435
:101FC0004703892BD1F44FEF5FEF6BE170E08AE1BB
:101FD00090E00E945C0668E672E0CE0101960E94E5
:101FE00082096FEF7FEFCE0101960E942B0ACE018E
:101FF00001960E94B3090E947B060E94260400916C
:10200000D4031091D5032091D6033091D703601BE0
:10201000710B820B930B603E73498440910568F00D
:1020200060E08BE00E94700381E00E94B60660EDE4
:1020300072E080EB94E00E94F10764E670E080E0DB
:1020400090E00E94F4030E94AF021DCF81EE93E066
:102050000E94F10765E971E081EE93E00E9434048B
:102060006EEC72E081EE93E00E94F10764E972E0A9
:1020700081EE93E00E94C40768EE73E080E090E098
:102080000E94F4030E94C0017CCE6EE472E081EEF7
:1020900093E00E94F10761EC71E081EE93E00E9411
:1020A000DD0768EE73E080E090E00E94F40381E0D9
:1020B0000E94B60660EB72E080EB94E00E94F107AC
:1020C0006CCE059770F36EE472E081EE93E00E94AF
:1020D000F10763ED71E0E1CFFC0188279927E894CF
:1020E00021912032E9F3293010F02E30C8F32B3241
:1020F00041F02D3239F4689404C00E949C10820F84
:10210000911D219120532A30C0F31EF490958195A2
:102110009F4F0895FB01DC0105900D920020E1F72F
:102120000895BB274A3031F4992322F4BDE29095FB
:1021300081959F4F0C94A5107AE0979F902D879FD3
:10214000802D910D11240895BB27FB015527AA2747
:10215000880F991FAA1FA41710F0A41B8395505134
:10216000B9F7A05DAA3308F0A95DA193009779F7AC
:10217000B111B1931192CB010C940F130F931F93D4
:10218000CF93DF93CDB7DEB72E970FB6F894DEBFAF
:102190000FBECDBF8C01FA018EE08C831A830983B8
:1021A00077FF02C060E070E8615071097E836D8343
:1021B000A901BF01CE0101960E94F7104D815E81F9
:1021C00057FD0AC02F813885421753070CF49A0136
:1021D000020F131FF80110822E960FB6F894DEBF7F
:1021E0000FBECDBFDF91CF911F910F9108952F9218
:1021F0003F924F925F926F927F928F929F92AF9297
:10220000BF92CF92DF92EF92FF920F931F93CF93E3
:10221000DF9300D000D000D01F921F92CDB7DEB761
:102220007C013B018A01FC0117821682838181FFB8
:10223000DDC1CE0101965C01F7019381F30193FDAD
:10224000859193FF81913F01882309F453C1853221
:1022500039F493FD859193FF81913F01853229F4F3
:10226000B70190E00E941F13E7CF912C212C312C55
:10227000FFE1F31538F08B3211F190F4803209F15F
:10228000833229F137FC3CC020ED280F2A3050F56D
:1022900036FE20C08AE0989E200D1124922E06C0A2
:1022A0008D3291F0803371F7689430F8F30193FD2B
:1022B000859193FF81913F018111DACF21C068940C
:1022C00031F8689432F8F2CF689433F8EFCF68941D
:1022D00034F8ECCFEAE02E9E200D1124222E6894D3
:1022E00035F8E4CF8E3229F436FC04C1689436F810
:1022F000DDCF8C3619F4689437F8D8CF8836B1F230
:10230000982F9F7D95549330E0F08336A1F1833769
:10231000C1F1833509F063C02801F2E04F0E511C72
:10232000F801C080D180692D70E036FC02C06FEFEB
:102330007FEFC6010E94F9124C01689437F88201C0
:102340000AC00C5F1F4FFFE3F98388248394912C0C
:102350006501E89437F833FE2DC0522C81149104A6
:1023600071F5552009F468CFB70180E290E00E9432
:102370001F135A94F6CFF801808189830E5F1F4F97
:10238000E4CF2801F2E04F0E511CF801C080D1804B
:10239000692D70E036FC02C06FEF7FEFC6010E942E
:1023A00004134C018201D5CFB70180E290E00E9476
:1023B0001F132A942814190409F0B0F7CECFF601A0
:1023C00037FC859137FE81916F01B70190E00E9443
:1023D0001F1351105A94F1E08F1A9108BFCF843621
:1023E00019F0893609F077C0F80137FE6BC06081BB
:1023F0007181828193810C5F1F4FF32DFF763F2EF9
:1024000097FF09C090958095709561957F4F8F4F8C
:102410009F4F689437F82AE030E0A5010E944F13DF
:10242000C82ECA188C2C432C36FE0CC0E89440F8F9
:10243000C91440F434FE05C032FC03C0F32DFE7E07
:102440004F2E892C44FEAAC0FE01EC0DF11D8081A7
:10245000803309F09CC0242D297E422E842D887063
:10246000582E43FCAAC040FEA4C09C2C821418F431
:102470002C0C922C981844FEA6C0B70180E390E083
:102480000E941F1342FE09C088E790E041FE02C08F
:1024900088E590E0B7010E941F13C91408F49FC09B
:1024A000CA94D12C9FEFC91AD90ACA0CDB1CF601B9
:1024B00082916F01B70190E00E941F13AC14BD041C
:1024C000B1F74FCF60817181072E000C880B990BFB
:1024D0000E5F1F4F92CFD32CE894D4F82AE030E05F
:1024E0008537E1F1232D297FD22E8F36A9F1F0F423
:1024F000883551F1F701868197812B960FB6F894B4
:10250000DEBF0FBECDBFDF91CF911F910F91FF9026
:10251000EF90DF90CF90BF90AF909F908F907F9083
:102520006F905F904F903F902F900895803749F0C3
:10253000883701F7D4FE02C06894D2F820E130E079
:102540000DC06894D4F8F6CF34FE03C0822F8660A5
:10255000D82E20E132E002C028E030E0F801D7FEBA
:102560000FC060817181828193810C5F1F4FA50133
:102570000E944F13C82ECA183D2CE89437F852CF4A
:102580006081718190E080E00E5F1F4FF0CF42FCD0
:1025900002C0839463CF8394839460CF842D867824
:1025A00009F45CCFF6CFB70180E290E00E941F13E0
:1025B00083948214C0F3512C5ECF522C581882148D
:1025C00008F459CFF8CF842D867809F466CF8BE2D2
:1025D00041FE80E247FC8DE2B70190E05CCFB7019D
:1025E00080E390E00E941F139A9457CF8FEF9FEFE4
:1025F00084CFFC010590615070400110D8F78095A0
:1026000090958E0F9F1F0895FC01615070400190BE
:102610000110D8F7809590958E0F9F1F0895DC01CB
:10262000FC01672F71917723E1F7329704C07C9109
:102630006D9370836291AE17BF07C8F308950F932F
:102640001F93CF93DF93182F092FEB018B8181FD0F
:1026500009C01FEF0FEF812F902FDF91CF911F91B6
:102660000F91089582FF14C02E813F818C819D813E
:10267000281739073CF4E881F981CF010196998345
:10268000888310838E819F8101969F838E83E3CF01
:10269000E885F985812F1995892BA1F3DACFFA0105
:1026A000AA27283051F1203181F1E8946F936E7F91
:1026B0006E5F7F4F8F4F9F4FAF4FB1E03ED0B4E082
:1026C0003CD0670F781F891F9A1FA11D680F791FC3
:1026D0008A1F911DA11D6A0F711D811D911DA11DD4
:1026E00020D009F468943F912AE0269F11243019E4
:1026F000305D3193DEF6CF010895462F4770405D7F
:102700004193B3E00FD0C9F7F6CF462F4F70405D2D
:102710004A3318F0495D31FD4052419302D0A9F788
:10272000EACFB4E0A6959795879577956795BA9582
:10273000C9F700976105710508959B01AC010A2E48
:1027400006945795479537952795BA95C9F7620F1F
:10275000731F841F951FA01D0895A1E21A2EAA1BA6
:10276000BB1BFD010DC0AA1FBB1FEE1FFF1FA21741
:10277000B307E407F50720F0A21BB30BE40BF50B3E
:10278000661F771F881F991F1A9469F760957095C7
:10279000809590959B01AC01BD01CF010895EE0F8E
:1027A000FF1F881F8BBF0790F691E02D19940F93A0
:1027B0001F93CF93DF938230910510F482E090E075
:1027C000E091C404F091C50430E020E0B0E0A0E066
:1027D000309799F42115310509F44AC0281B390BAB
:1027E00024303105D8F58A819B816115710589F105
:1027F000FB0193838283FE0111C0408151810281DC
:10280000138148175907E0F04817590799F41097B2
:1028100061F012960C93129713961C933296CF0187
:10282000DF91CF911F910F9108950093C4041093ED
:10283000C504F4CF2115310551F04217530738F084
:10284000A901DB019A01BD01DF01F801C1CFEF0150
:10285000F9CF9093C5048093C404CDCFFE01E20F5D
:10286000F31F819391932250310939832883D7CF65
:102870002091C2043091C304232B41F42091020221
:10288000309103023093C3042093C20420910002CC
:10289000309101022115310541F42DB73EB7409129
:1028A000040250910502241B350BE091C204F09103
:1028B000C304E217F307A0F42E1B3F0B28173907B8
:1028C00078F0AC014E5F5F4F2417350748F04E0F8C
:1028D0005F1F5093C3044093C204819391939FCF91
:1028E000F0E0E0E09CCFCF93DF930097E9F0FC01AC
:1028F000329713821282A091C404B091C504ED01F5
:1029000030E020E01097A1F420813181820F931FE5
:102910002091C2043091C3042817390709F061C01F
:10292000F093C304E093C204DF91CF910895EA01CC
:10293000CE17DF07E8F54A815B819E0141155105FD
:10294000B1F7E901FB83EA8349915991C40FD51F7F
:10295000EC17FD0761F4808191810296840F951F29
:10296000E90199838883828193819B838A83F0E044
:10297000E0E012968D919C9113970097B9F52D91F7
:102980003C911197CD010296820F931F2091C204B2
:102990003091C3042817390739F6309751F5109252
:1029A000C5041092C404B093C304A093C204BCCF66
:1029B000D383C28340815181840F951FC817D907E3
:1029C00061F44E5F5F4F88819981480F591F518391
:1029D00040838A819B81938382832115310509F08D
:1029E000B0CFF093C504E093C4049ECFFD01DC0199
:1029F000C0CF13821282D7CF4F925F926F927F9295
:102A00008F929F92AF92BF92CF92DF92EF92FF92FE
:102A10000F931F93CF93DF938C01009799F4CB0111
:102A2000DF91CF911F910F91FF90EF90DF90CF90AA
:102A3000BF90AF909F908F907F906F905F904F90DE
:102A40000C94D713FC01E60FF71F9C0122503109AB
:102A5000E217F30708F4AEC0D901CD91DC911197CC
:102A6000C617D70720F1C530D10578F0CE010497FD
:102A70008617970750F0C61BD70B2297C193D193A7
:102A80006D937C93CF010E947314C801DF91CF91A5
:102A90001F910F91FF90EF90DF90CF90BF90AF907C
:102AA0009F908F907F906F905F904F9008955B0103
:102AB000AC1ABD0A4C018C0E9D1EA091C404B091AD
:102AC000C504512C412CF12CE12C109731F580914B
:102AD000C2049091C3048815990509F05CC046169C
:102AE000570608F058C080910002909101020097AB
:102AF00041F48DB79EB74091040250910502841BAA
:102B0000950BE817F90708F055C0F093C304E0935C
:102B1000C204F90171836083B8CF8D919C911197A4
:102B200012966C90129713967C901397A815B9057E
:102B300059F56C0142E0C40ED11CCA14DB0420F12B
:102B4000AC014A195B09DA011296159780F062828E
:102B5000738251834083D9016D937C93E114F10416
:102B600071F0D7011396FC93EE9312978ECF2296B5
:102B70008C0F9D1FF90191838083F301EFCFF093B8
:102B8000C504E093C40481CF4816590608F42C010B
:102B90007D01D3019ACFCB010E94D7137C0100970E
:102BA00049F0AE01B8010E94DD15C8010E947314FE
:102BB00087016BCF10E000E068CFFB01DC0102C0B1
:102BC00001900D9241505040D8F70895DC0101C0AA
:102BD0006D9341505040E0F70895FB01DC018D9169
:102BE000019080190110D9F3990B0895FB01DC01C4
:102BF00001900D920020E1F70895FB01DC014150A6
:102C0000504048F001900D920020C9F701C01D927C
:0C2C100041505040E0F70895F894FFCFC9
:102C1C000000C60480000000400014005400E302D1
:102C2C00EA02F402FD020903000000003802580415
:102C3C00D90185020A02E801FC01000000004205EE
:102C4C0015055906EB040E05FB04EC04000000000E
:102C5C00E506580459065806000000007A075B5731
:102C6C006946694573705D20005800583A00205938
:102C7C003A00205A3A0059005A00434E43204C6106
:102C8C007365722043757474657200583A3020591C
:102C9C003A30205A3A3000796F757250415353577D
:102CAC004F524400796F75725353494400436F6E11
:102CBC006E656374696E6720576946692E2E2E0007
:102CCC00436F6E6E656374696E672E2E2E005769A6
:102CDC00466920436F6E6E65637465642020200026
:102CEC004C61736572204F66662028496E6163746F
:102CFC007629000D0A4F4B0D0A000D0A4552524F12
:102D0C00520D0A000D0A4641494C0D0A000D0A539A
:102D1C00454E44204F4B0D0A0020434F4E4E454329
:042D2C00540D0A0038
:00000001FF
