:100000000C943F010C9470010C9470010C947001DD
:100010000C9470010C9470010C9470010C9470019C
:100020000C9470010C9470010C9470010C9470018C
:100030000C9470010C9470010C9470010C9470017C
:100040000C9470010C9470010C9470010C9470016C
:100050000C9470010C9470010C9470010C9449077D
:100060000C9470010C9470010C9470010C9470014C
:100070000C9470010C9470010C9470010C9470013C
:100080000C9470010C9470010C9470010C9470012C
:100090000C9470010C9470010C9470010C949307F3
:1000A0000C9470010C9470010C9470010C9470010C
:1000B0000C9470010C9470010C9470010C947001FC
:1000C0000C9470010C9470010C9470010C947001EC
:1000D0000C9470010C9470010C9470010C947001DC
:1000E0000C9470010C94A5030C94D0010C9496010F
:1000F0000C94B7080C949E010C94B9020C94B802AD
:100100000C9490010C945E030C94C7010C94BB04F6
:100110000C945D060C9471030C94A5010C94E702F9
:100120000C94AB010C94C3010C94D5010C94A20166
:100130000C94B9010C94B5010C94D1010C94AF014D
:100140000C94BD010C9478030C94BA020C949A019F
:100150000C944E030C94CB010C944F03000021002F
:10016000240027002A002D00300033000101000088
:10017000040107010A0100002200250028002B00CD
:100180002E003100340002010000050108010B01BE
:10019000000020002300260029002C002F00320040
:1001A0000001000003010601090105050505070519
:1001B00008080808020202020A0A080804040404E3
:1001C000010101010101010103030303030303030F
:1001D000040707070C0C0C0C0C0C0C0C020202029E
:1001E00006060606060606060B0B0B0B0B0B0B0B87
:1001F0000102102020080810204010204080020139
:10020000020108040201010204081020408080401D
:10021000201008040201800402018040201008041C
:1002200002010804020101020408102040800102BA
:1002300004081020408000000A0B02090C0D0E0873
:10024000070304010000000000000000000000009F
:10025000000000000000000000000000000000009E
:10026000000012111000000000000000000000005B
:10027000000000000000000000000000B70811248A
:100280001FBECFEFD1E2DEBFCDBF00E00CBF23E049
:10029000AEE6B2E001C01D92A335B207E1F712E06D
:1002A000A0E0B2E0EAEAFAE100E00BBF02C007908A
:1002B0000D92AE36B107D9F711E0CFE3D1E000E0FF
:1002C00006C021970109802FFE010E942C0BCE331E
:1002D000D10780E00807A9F70E94D7080C94530DB6
:1002E0000C9400008150823108F05AC0E82FF0E0F1
:1002F0008827E258FE4F8F4F0C942C0B9E01A201D1
:10030000900196019A01D001A501AB01AF01B501A1
:10031000B901BD01C301C701D001CB01D101D50194
:10032000809180008F778093800008958091800075
:100330008F7DF9CF80918000877FF5CF84B58F774F
:1003400084BD089584B58F7DFBCF8091B0008F77F9
:100350008093B00008958091B0008F7DF9CF809197
:1003600090008F77809390000895809190008F7D0A
:10037000F9CF80919000877FF5CF8091A0008F7793
:100380008093A00008958091A0008F7DF9CF809187
:10039000A000877FF5CF809120018F778093200187
:1003A0000895809120018F7DF9CF80912001877F72
:1003B000F5CFCF93DF93282F30E0F901EA5CFD4FB2
:1003C0008491F901E051FE4FD491F901E655FE4FB9
:1003D000C491CC23A1F081110E947201EC2FF0E0B6
:1003E000EE0FFF1FE057FE4FA591B491EC91ED2366
:1003F00081E090E009F480E0DF91CF91089580E002
:1004000090E0FACF1F93CF93DF93282F30E0F901CC
:10041000EA5CFD4F8491F901E051FE4FD491F9015E
:10042000E655FE4FC491CC23A9F0162F81110E94EE
:100430007201EC2FF0E0EE0FFF1FEA58FE4FA5917E
:10044000B4918FB7F894EC91111108C0D095DE23C8
:10045000DC938FBFDF91CF911F910895DE2BF8CFF2
:10046000CF93DF9390E0FC01E051FE4F249186553D
:100470009E4FFC0184918823D1F090E0880F991F52
:10048000FC01E45AFE4FA591B491FC01EA58FE4FDD
:10049000C591D491623071F49FB7F8943C91822F4A
:1004A000809583238C93E8812E2B28839FBFDF9137
:1004B000CF9108958FB7F894EC912E2B2C938FBF8A
:1004C000F6CF3FB7F8948091330390913403A09115
:1004D0003503B091360326B5A89B05C02F3F19F010
:1004E0000196A11DB11D3FBFBA2FA92F982F8827B4
:1004F000BC01CD01620F711D811D911D42E0660F8F
:10050000771F881F991F4A95D1F708958F929F9260
:10051000AF92BF92CF92DF92EF92FF924B015C01BC
:100520000E9461026B017C010E9461026C197D09CD
:100530008E099F09683E734081059105A8F321E06B
:10054000821A9108A108B10888EEC80E83E0D81E6F
:10055000E11CF11C81149104A104B10429F7FF905E
:10056000EF90DF90CF90BF90AF909F908F900895C5
:1005700008950895AF92BF92CF92DF92EF92FF92CB
:100580000F931F93CF93DF936C017B018B01040FBB
:10059000151FEB015E01AE18BF08C017D10759F057
:1005A0006991D601ED91FC910190F081E02DC60199
:1005B0001995892B79F7C501DF91CF911F910F9183
:1005C000FF90EF90DF90CF90BF90AF900895089587
:1005D0002091B502260F3327331F21323105ECF469
:1005E0002091FE02FC0190E080E0243069F082E07E
:1005F0000895A091B5022191AC014B565D4FA40F17
:10060000B52FB11D2C930196861798F38091B502F2
:10061000680F6093B50280E0089581E0089510921C
:10062000FE0281E08093FD021092D80261E084E135
:100630000E94020261E085E10E940202E9EBF0E023
:1006400080818E7F808380818D7F808388E480930A
:10065000B80085E48093BC000895CF93DF9391E0C8
:10066000909394028823B9F0C091B800D091BA0059
:100670008091BC008A7B8093BC0060E084E10E9492
:10068000020260E085E10E9402020E940F03D09303
:10069000BA00C093B800DF91CF9108950895E0911A
:1006A0002D0380912C03E81730F4F0E0EC58FD4F57
:1006B000808190E008958FEF9FEF089590912D0332
:1006C00080912C032FEF3FEF981748F4E92FF0E0CB
:1006D000EC58FD4F208130E09F5F90932D03C901BE
:1006E000089580912C0390912D03891B990B0895F7
:1006F000CF92DF92EF92FF920F931F93CF93DF93EE
:100700007C01CB018A0120910403222389F0EB01B3
:100710006B01C40ED51ECC15DD0569F06991D701BA
:10072000ED91FC910190F081E02DC7011995F3CF77
:10073000642F0E94E802C801DF91CF911F910F91B1
:10074000FF90EF90DF90CF900895CF93DF931F92AB
:10075000CDB7DEB76983209104032223F9F02091FD
:100760002A03203258F021E030E0FC013383228359
:1007700090E080E00F90DF91CF91089580912B035E
:10078000E82FF0E0EB5FFC4F998190838F5F8093BF
:100790002B0380932A0381E090E0ECCF61E0CE014F
:1007A00001960E94E802F7CFCF92DF92EF92FF927C
:1007B0000F931F93CF93DF93FC01C48121E020931B
:1007C0000403C093250310922B0310922A03838500
:1007D000682B87E393E00E94A503D0912A03D132CE
:1007E00008F092C00E9461026B017C018091FE02C0
:1007F000811165C082E08093FE0281E08093FD025A
:100800008FEF8093FC021092FB02D093FA02A5E0D6
:10081000B3E0EAEDF2E080E0D81385C01092D9028F
:100820008091D902CC0FC82BC093D9028091D802F5
:10083000813009F07CC01092D8020E9461026B01E5
:100840007C018091D9028093BB008091000390913C
:100850000103A0910203B0910303892B8A2B8B2BF8
:1008600099F00E9461020091000310910103209110
:100870000203309103036C197D098E099F09061745
:10088000170728073907E0F18091BC0083FDD9CF15
:1008900085EC8093BC000E9461026B017C01809119
:1008A000FE02823009F445C08091FC028F3F61F165
:1008B0008091FC02803241F18091FC0225C0809140
:1008C000000390910103A0910203B0910303892BCF
:1008D0008A2B8B2B09F48ACF0E94610200910003BE
:1008E0001091010320910203309103036C197D09DB
:1008F0008E099F09061717072807390708F076CFD2
:100900008091FF020E942D0310922B0310922A0364
:1009100010920403DF91CF911F910F91FF90EF9000
:10092000DF90CF9008959D9191938F5F75CF85EE65
:10093000B0CF8091000390910103A0910203B09188
:100940000303892B8A2B8B2B09F4A9CF0E94610208
:1009500000910003109101032091020330910303E1
:100960006C197D098E099F09061717072807390793
:1009700008F095CFC5CF90E080E008951F93CF9306
:10098000DF93182F862F61E04130510509F060E0B8
:100990000E94020261E0812F0E940202CBE7DCE0AC
:1009A000CE010197F1F760E0812F0E9402022197AA
:1009B000F1F7DF91CF911F910895FC010190002084
:1009C000E9F73197AF01481B590BBC0183E493E071
:1009D0000C94BA020F931F93CF93DF93EC0188819D
:1009E0009981009759F02A813B812617370730F00B
:1009F00081E0DF91CF911F910F9108958B016F5F7F
:100A00007F4F0E94590C009759F0998388831B836C
:100A10000A832C813D81232B59F7FC011082E8CFFA
:100A200080E0E7CFEF92FF920F931F93CF93DF9376
:100A30006115710541F480E0DF91CF911F910F9115
:100A4000FF90EF90089541155105B1F07B01EC0145
:100A50000C811D81040F151FB8010E94EA04882330
:100A600051F3288139818C819D81B701820F931FB9
:100A70000E944C0D1D830C8381E0DECFCF93DF936A
:100A8000EC0188819981009711F00E94D00B1982A6
:100A900018821D821C821B821A82DF91CF910895D9
:100AA000CF92DF92EF92FF920F931F93CF93DF933A
:100AB000CDB7DEB762970FB6F894DEBF0FBECDBFDD
:100AC0008C01CB01F80111821082138212821582EF
:100AD00014824AE09E012F5F3F4F6901B9010E94D5
:100AE000F70AF60101900020E9F731977F01EC1831
:100AF000FD08B701C8010E94EA04811112C0C801B3
:100B00000E943E0562960FB6F894DEBF0FBECDBFC1
:100B1000DF91CF911F910F91FF90EF90DF90CF90D9
:100B20000895F801F582E482B601808191810E94E6
:100B30004C0DE8CFCF93DF93EC01FB010190002037
:100B4000E9F73197AF01461B570B0E94120581113F
:100B500003C0CE010E943E05CE01DF91CF910895E2
:100B6000CF93DF93EC01FB0144815581608171815A
:100B70000E941205811103C0CE010E943E05CE01E4
:100B8000DF91CF910895EF92FF920F931F93CF9330
:100B9000DF93EC017B01198218821B821A821D826D
:100BA0001C82FB0101900020E9F731978F01061BA1
:100BB000170BB8010E94EA04811109C0CE01DF9130
:100BC000CF911F910F91FF90EF900C943E051D83E4
:100BD0000C83B70188819981DF91CF911F910F918B
:100BE000FF90EF900C944C0DFC0180819181009757
:100BF00011F00C94D00B08950F931F93CF938C0199
:100C0000C62F0E94D4036C2F6460C8010E94D403D5
:100C10006C2F6B7FC8010E94D40383EC90E0019796
:100C2000F1F7CF911F910F9108950F931F93CF93D9
:100C3000DF938C01D62FC42F607F642B0E94FC05AC
:100C400080E1D89FB00111246C2BC801DF91CF91B6
:100C50001F910F910C94FC05CF93DF9300D000D02F
:100C60001F921F92CDB7DEB798E0E6E0F2E0DE011A
:100C7000119601900D929A95E1F790914B0396177A
:100C800008F46FEF262F30E0220F331F41E050E0D1
:100C90004C0F5D1F240F351FF9016081680F6068DC
:100CA00040E083E493E028960FB6F894DEBF0FBED1
:100CB000CDBFDF91CF910C94150641E00E9415063F
:100CC00081E090E0089585ED8093BC008091000361
:100CD00090910103A0910203B09103030796A11D17
:100CE000B11D23E0B695A795979587952A95D1F7DD
:100CF0002091BC0024FD03C01092FE020895409193
:100D00000003509101036091020370910303452B8E
:100D1000462B472B69F30097A105B10541F02AE264
:100D20002A95F1F700C00197A109B109E1CF80919F
:100D3000FF020C942D03EF92FF920F931F93CF931A
:100D4000DF93CDB7DEB768970FB6F894DEBF0FBE5E
:100D5000CDBF7B01FC0124813581232BA9F10081CA
:100D600011816CE272E0C8010E94430D892B51F49D
:100D700080917202909173028E0D9F1D9093730269
:100D80008093720269E372E0C8010E94430D892BCF
:100D900051F480917002909171028E0D9F1D90937D
:100DA0007102809370026BE372E0C8010E94430DF0
:100DB00060916E0270916F02892B31F46E0D7F1D70
:100DC00070936F0260936E0261E080E00E942C06D7
:100DD00060916E0270916F02CE0143960E945005A1
:100DE0006091700270917102CE010D960E945005C3
:100DF0006091720270917302CE0107960E945005B5
:100E00006EE272E0CE0101960E94C305BE01695FE9
:100E10007F4FCE0101960E94B00561E372E00E940F
:100E20009A05BE01635F7F4F0E94B00565E372E0E3
:100E30000E949A05BE016D5E7F4F0E94B00562E67A
:100E400072E00E949A05FC014481558160817181A4
:100E500083E493E00E94BA02CE0101960E94F40559
:100E6000CE0107960E94F405CE010D960E94F4056E
:100E7000CE0143960E94F40568960FB6F894DEBF43
:100E80000FBECDBFDF91CF911F910F91FF90EF90DB
:100E900008951F920F920FB60F9211242F933F9334
:100EA0008F939F93AF93BF9380912F0390913003C3
:100EB000A0913103B091320330912E0323E0230F30
:100EC0002D3758F50196A11DB11D20932E03809357
:100ED0002F0390933003A0933103B093320380919A
:100EE000330390913403A0913503B09136030196FA
:100EF000A11DB11D8093330390933403A093350358
:100F0000B0933603BF91AF919F918F913F912F91F5
:100F10000F900FBE0F901F90189526E8230F029692
:100F2000A11DB11DD2CF1F920F920FB60F921124A7
:100F30000BB60F922F933F934F935F936F937F93D3
:100F40008F939F93AF93BF93EF93FF938091B900DB
:100F5000887F803609F44DC008F040C0883209F41B
:100F6000A9C028F5803109F49DC0C8F4882309F48C
:100F7000FBC0883009F496C0FF91EF91BF91AF910B
:100F80009F918F917F916F915F914F913F912F91A1
:100F90000F900BBE0F900FBE0F901F9018958831C9
:100FA00009F488C0803241F78093FC0214C0803479
:100FB00009F49DC040F48033B9F38833E9F6809397
:100FC000FC0285ECB0C0803509F485C0883509F491
:100FD00096C0883489F60E946306CECF883909F41A
:100FE0008CC038F5883729F050F4883611F08037F6
:100FF00019F683E08093FE021092D70257C088381A
:1010000009F47BC0803919F0803809F0B5CF8091A0
:10101000D702803208F071C0E091D70281E08E0FD4
:101020008093D7028091BB00F0E0E954FD4F8083AC
:101030003DC0803B39F0E0F4803A09F479C0883A49
:1010400009F09ACF84E08093FE021092B6021092CB
:10105000B502E0912803F091290319958091B5021A
:1010600081110FC081E08093B5021092950209C0F2
:10107000803C09F4A6CF883C09F4A3CF883B09F053
:101080007BCFE091B60281E08E0F8093B602F0E054
:10109000EB56FD4F80818093BB009091B60280910A
:1010A000B50229C08091D9028093BB0085EC809362
:1010B000BC0062CF9091FB028091FA02981758F51C
:1010C000E091FB0281E08E0F8093FB02F0E0E6529C
:1010D000FD4F8081E9CFE091FB0281E08E0F80938C
:1010E000FB028091BB00F0E0E652FD4F80839091BF
:1010F000FB028091FA029817C8F285E8D8CFE091F8
:10110000FB0281E08E0F8093FB028091BB00F0E038
:10111000E652FD4F80838091FD0281115CCF81E01A
:101120008093D80284EA8093BC001092FE0224CF00
:1011300085EC8093BC001092FE028091D702803231
:1011400030F4E091D702F0E0E954FD4F1082609155
:10115000D70270E0E0912603F091270387EB92E03D
:1011600019951092D70208CF1092FC0234CFE7E312
:10117000F3E01382128288EE93E0A0E0B0E0848373
:101180009583A683B78382E192E091838083E3E431
:10119000F3E01382128284E292E09183808387E2FB
:1011A000848380E1818782E0828713860895CF93CC
:1011B000DF9300D000D0CDB7DEB7789484B58260DD
:1011C00084BD84B5816084BD85B5826085BD85B5EB
:1011D000816085BD80916E00816080936E00109269
:1011E00081008091810082608093810080918100E4
:1011F0008160809381008091800081608093800075
:101200008091B10084608093B1008091B0008160D2
:101210008093B000809191008260809391008091D2
:101220009100816080939100809190008160809313
:1012300090008091A10082608093A1008091A10024
:1012400081608093A1008091A00081608093A000C4
:101250008091210182608093210180912101816030
:1012600080932101809120018160809320018091F1
:101270007A00846080937A0080917A008260809303
:101280007A0080917A00816080937A0080917A0060
:10129000806880937A001092C10010922D03109202
:1012A0002C0310922B0310922A030E940F0388EB49
:1012B00092E0909329038093280389EB92E0909326
:1012C0002703809326031092480380914D038230B8
:1012D00018F098E09093480380934B0362E370E02A
:1012E00080E090E00E94860260914E0383E493E0E8
:1012F0000E94D40368EE73E080E090E00E948602D2
:1013000060E383E493E00E94FC050BE416E4C8016B
:101310000197F1F760E383E493E00E94FC05C801C4
:101320000197F1F760E383E493E00E94FC0583E515
:1013300092E00197F1F760E283E493E00E94FC05FC
:1013400060914803606240E083E493E00E941506E8
:1013500084E08093490340E06CE083E493E00E94E2
:10136000150640E061E083E493E00E9415060BE37C
:101370001FE1C8010197F1F782E080934A0340E042
:1013800066E083E493E00E94150640E062E083E4B7
:1013900093E00E941506C8010197F1F788E0809359
:1013A0004E0360E083E493E00E94D40360E080E0B9
:1013B0000E942C068DE392E00E94DD0461E086E14C
:1013C0000E94300261E087E10E94300261E088E122
:1013D0000E94300261E089E10E94300261E08AE10E
:1013E0000E94300261E08BE10E94300261E08BE0FC
:1013F0000E94300260E08BE00E94020262E08CE119
:101400000E94300262E08DE10E94300262E08EE1D3
:101410000E94300262E08FE10E94300262E080E2CE
:101420000E94300262E081E20E94300261E080E0CE
:101430000E942C068EE492E00E94DD0400E010E0A1
:101440008CE10E94D901892BC1F441E050E067E1B1
:1014500070E086E190E00E94BE046CE272E0CE0192
:1014600001960E94C30561E070E0CE0101960E94E2
:101470009B06CE0101960E94F4058DE10E94D901E0
:10148000892BC1F44FEF5FEF67E170E086E190E0F8
:101490000E94BE046CE272E0CE0101960E94C30578
:1014A0006FEF7FEFCE0101960E949B06CE01019661
:1014B0000E94F4058EE10E94D901892BC1F441E01C
:1014C00050E069E170E088E190E00E94BE0469E3C9
:1014D00072E0CE0101960E94C30561E070E0CE018A
:1014E00001960E949B06CE0101960E94F4058FE1B1
:1014F0000E94D901892BC1F44FEF5FEF69E170E0E1
:1015000088E190E00E94BE0469E372E0CE0101969A
:101510000E94C3056FEF7FEFCE0101960E949B06EC
:10152000CE0101960E94F40580E20E94D901892B28
:10153000C1F441E050E06BE170E08AE190E00E948C
:10154000BE046BE372E0CE0101960E94C30561E028
:1015500070E0CE0101960E949B06CE0101960E948A
:10156000F40581E20E94D901892BC1F44FEF5FEFAE
:101570006BE170E08AE190E00E94BE046BE372E0F0
:10158000CE0101960E94C3056FEF7FEFCE01019659
:101590000E949B06CE0101960E94F4058BE00E94FA
:1015A000D901892BC9F461E08BE00E94020261E05D
:1015B0008AE00E942C068AE592E00E94DD0464E63F
:1015C00070E080E090E00E9486020115110509F4A8
:1015D00037CF0E94000034CF60E08BE00E9402020F
:1015E00061E08AE00E942C0684E692E0E6CFBB2709
:1015F0004A3031F4992322F4BDE2909581959F4FB2
:101600000C94030BBB27FB015527AA27880F991FB2
:10161000AA1FA41710F0A41B83955051B9F7A05D21
:10162000AA3308F0A95DA193009779F7B111B1939E
:101630001192CB010C941C0BDC01FC01672F719102
:101640007723E1F7329704C07C916D9370836291A8
:10165000AE17BF07C8F30895EE0FFF1F881F8BBF9B
:101660000790F691E02D19940F931F93CF93DF937A
:101670008230910510F482E090E0E0915103F09106
:10168000520330E020E0B0E0A0E0309799F421155B
:10169000310509F44AC0281B390B24303105D8F52F
:1016A0008A819B816115710589F1FB019383828396
:1016B000FE0111C0408151810281138148175907F1
:1016C000E0F04817590799F4109761F012960C93BF
:1016D000129713961C933296CF01DF91CF911F91F1
:1016E0000F9108950093510310935203F4CF2115E5
:1016F000310551F04217530738F0A901DB019A0177
:10170000BD01DF01F801C1CFEF01F9CF9093520382
:1017100080935103CDCFFE01E20FF31F819391938C
:101720002250310939832883D7CF20914F0330913C
:101730005003232B41F42091020230910302309395
:10174000500320934F032091000230910102211594
:10175000310541F42DB73EB7409104025091050286
:10176000241B350BE0914F03F0915003E217F30770
:10177000A0F42E1B3F0B2817390778F0AC014E5F01
:101780005F4F2417350748F04E0F5F1F50935003EB
:1017900040934F03819391939FCFF0E0E0E09CCF83
:1017A000CF93DF930097E9F0FC0132971382128206
:1017B000A0915103B0915203ED0130E020E0109769
:1017C000A1F420813181820F931F20914F0330912A
:1017D00050032817390709F061C0F0935003E093D4
:1017E0004F03DF91CF910895EA01CE17DF07E8F5A7
:1017F0004A815B819E0141155105B1F7E901FB83E7
:10180000EA8349915991C40FD51FEC17FD0761F484
:10181000808191810296840F951FE90199838883C5
:10182000828193819B838A83F0E0E0E012968D9120
:101830009C9113970097B9F52D913C911197CD018B
:101840000296820F931F20914F0330915003281767
:10185000390739F6309751F510925203109251031F
:10186000B0935003A0934F03BCCFD383C283408176
:101870005181840F951FC817D90761F44E5F5F4FE0
:1018800088819981480F591F518340838A819B81A8
:10189000938382832115310509F0B0CFF093520371
:1018A000E09351039ECFFD01DC01C0CF1382128271
:1018B000D7CF4F925F926F927F928F929F92AF920B
:1018C000BF92CF92DF92EF92FF920F931F93CF932D
:1018D000DF938C01009799F4CB01DF91CF911F9199
:1018E0000F91FF90EF90DF90CF90BF90AF909F90BF
:1018F0008F907F906F905F904F900C94340BFC0111
:10190000E60FF71F9C0122503109E217F30708F494
:10191000AEC0D901CD91DC911197C617D70720F140
:10192000C530D10578F0CE0104978617970750F09F
:10193000C61BD70B2297C193D1936D937C93CF0194
:101940000E94D00BC801DF91CF911F910F91FF90A2
:10195000EF90DF90CF90BF90AF909F908F907F904F
:101960006F905F904F9008955B01AC1ABD0A4C01D7
:101970008C0E9D1EA0915103B0915203512C412C0D
:10198000F12CE12C109731F580914F039091500389
:101990008815990509F05CC04616570608F058C02E
:1019A0008091000290910102009741F48DB79EB79B
:1019B0004091040250910502841B950BE817F9072A
:1019C00008F055C0F0935003E0934F03F901718381
:1019D0006083B8CF8D919C91119712966C9012975D
:1019E00013967C901397A815B90559F56C0142E040
:1019F000C40ED11CCA14DB0420F1AC014A195B09E6
:101A0000DA011296159780F06282738251834083C7
:101A1000D9016D937C93E114F10471F0D701139611
:101A2000FC93EE9312978ECF22968C0F9D1FF90197
:101A300091838083F301EFCFF0935203E09351033E
:101A400081CF4816590608F42C017D01D3019ACFA5
:101A5000CB010E94340B7C01009749F0AE01B80124
:101A60000E943A0DC8010E94D00B87016BCF10E095
:101A700000E068CFFB01DC0102C001900D924150F3
:101A80005040D8F70895FB01DC018D910190801939
:101A90000110D9F3990B0895FB01DC0101900D921F
:0A1AA0000020E1F70895F894FFCF4D
:101AAA0000005303800000004000140054000000AE
:101ABA000000A5037803BB044E0371035E034F03C2
:101ACA00000000005D06BA02BB04E7025800583A5B
:101ADA000020593A00205A3A0059005A00434E430E
:101AEA00204C617365722043757474657200583AAC
:101AFA003020593A30205A3A30004C6173657220CE
:0E1B0A004F4E20004C61736572204F4646001E
:00000001FF
