:100000000C943F010C9470010C9470010C947001DD
:100010000C9470010C9470010C9470010C9470019C
:100020000C9470010C9470010C9470010C9470018C
:100030000C9470010C9470010C9470010C9470017C
:100040000C9470010C9470010C9470010C9470016C
:100050000C9470010C9470010C9470010C942005A8
:100060000C9470010C9470010C9470010C9470014C
:100070000C9470010C9470010C9470010C9470013C
:100080000C9470010C9470010C9470010C9470012C
:100090000C9470010C9470010C9470010C946A051E
:1000A0000C9470010C9470010C9470010C9470010C
:1000B0000C9470010C9470010C9470010C947001FC
:1000C0000C9470010C9470010C9470010C947001EC
:1000D0000C9470010C9470010C9470010C947001DC
:1000E0000C9470010C947D020C9414030C94230363
:1000F0000C947E020C94F0010C94BD010C94360318
:100100000C94E2010C94B5010C94C1010C94800490
:100110000C946A030C94AF010C94E6010C94AC02AD
:100120000C94CE010C94F4010C94E2040C947F0224
:100130000C94CA010C94EF010C948E060C94D4011B
:100140000C94D8010C94B9010C94EA010C94DC01D4
:100150000C9413030C943D030C94C4010000200084
:100160002300260029002C002F003200000100008F
:1001700003010601090100000A0B02090C0D0E081B
:100180000703040100000000000000000000000060
:10019000000000000000000000000000000000005F
:1001A000000012111000000000000000000000001C
:1001B000000000000000000000000000000022001D
:1001C000250028002B002E00310034000201000021
:1001D000050108010B0100002100240027002A006E
:1001E0002D003000330001010000040107010A0165
:1001F00005050505070508080808020202020A0AA3
:1002000008080404040401010101010101010303C0
:10021000030303030303040707070C0C0C0C0C0C6B
:100220000C0C0202020206060606060606060B0B68
:100230000B0B0B0B0B0B01021020200808102040A9
:10024000102040800201020108040201010204089A
:100250001020408080402010080402018004020128
:100260008040201008040201080402010102040871
:100270001020408001020408102040808E061124C6
:100280001FBECFEFD1E2DEBFCDBF00E00CBF12E05A
:10029000A0E0B2E0ECE9F0E100E00BBF02C00790A3
:1002A0000D92AC34B107D9F723E0ACE4B2E001C061
:1002B0001D92AB32B207E1F711E0CFE3D1E000E0ED
:1002C00006C021970109802FFE010E944408CE3309
:1002D000D10780E00807A9F70E94AE060C944C08ED
:1002E0000C94000090E0FC01EA5CFD4F24918051E9
:1002F0009E4FFC018491882399F090E0880F991F0C
:10030000FC01EA52FE4FA591B491FC01E454FE4F6A
:10031000859194918FB7F894EC91E22BEC938FBF79
:1003200008958150823108F05AC0E82FF0E0882704
:10033000E356FE4F8F4F0C944408BD01C101AF013D
:10034000B501B901EF01C401CA01CE01D401D80140
:10035000DC01E201E601EF01EA01F001F401809124
:1003600080008F77809380000895809180008F7D3A
:10037000F9CF80918000877FF5CF84B58F7784BDDA
:10038000089584B58F7DFBCF8091B0008F778093E7
:10039000B00008958091B0008F7DF9CF80919000DA
:1003A0008F77809390000895809190008F7DF9CF92
:1003B00080919000877FF5CF8091A0008F77809308
:1003C000A00008958091A0008F7DF9CF8091A000BA
:1003D000877FF5CF809120018F778093200108954A
:1003E000809120018F7DF9CF80912001877FF5CF0B
:1003F0001F93CF93DF93282F30E0F901EA58FE4F87
:100400008491F901EA5CFD4FD491F901E051FE4F6E
:10041000C491CC23A9F0162F81110E949101EC2FD9
:10042000F0E0EE0FFF1FE454FE4FA591B4918FB79B
:10043000F894EC91111108C0D095DE23DC938FBFA6
:10044000DF91CF911F910895DE2BF8CF3FB7F8943D
:1004500080910F0390911003A0911103B0911203AA
:1004600026B5A89B05C02F3F19F00196A11DB11D0F
:100470003FBFBA2FA92F982F8827BC01CD01620F4B
:10048000711D811D911D42E0660F771F881F991F06
:100490004A95D1F708958F929F92AF92BF92CF92D3
:1004A000DF92EF92FF924B015C010E9426026B01EA
:1004B0007C010E9426026C197D098E099F09683E05
:1004C000734081059105A8F321E0821A9108A108E3
:1004D000B10888EEC80E83E0D81EE11CF11C81141F
:1004E0009104A104B10429F7FF90EF90DF90CF9021
:1004F000BF90AF909F908F90089508950895AF9208
:10050000BF92CF92DF92EF92FF920F931F93CF9300
:10051000DF936C017B018B01040F151FEB015E0162
:10052000AE18BF08C017D10759F06991D601ED91F7
:10053000FC910190F081E02DC6011995892B79F786
:10054000C501DF91CF911F910F91FF90EF90DF9048
:10055000CF90BF90AF900895089520918D02260FFF
:100560003327331F21323105ECF42091D602FC01F0
:1005700090E080E0243069F082E00895A0918D023F
:100580002191AC0143595D4FA40FB52FB11D2C93A0
:100590000196861798F380918D02680F60938D0203
:1005A00080E0089581E008951092D60281E0809362
:1005B000D5021092B00261E084E10E94F80161E08E
:1005C00085E10E94F801E9EBF0E080818E7F808375
:1005D00080818D7F808388E48093B80085E4809358
:1005E000BC000895CF93DF9391E090936C02882331
:1005F000B9F0C091B800D091BA008091BC008A7B5C
:100600008093BC0060E084E10E94F80160E085E135
:100610000E94F8010E94D402D093BA00C093B8009F
:10062000DF91CF9108950895E0910503809104032F
:10063000E81730F4F0E0E45BFD4F808190E008952E
:100640008FEF9FEF089590910503809104032FEFA2
:100650003FEF981748F4E92FF0E0E45BFD4F20816D
:1006600030E09F5F90930503C901089580910403D2
:1006700090910503891B990B0895CF92DF92EF9219
:10068000FF920F931F93CF93DF937C01CB018A01DD
:100690002091DC02222389F0EB016B01C40ED51EF0
:1006A000CC15DD0569F06991D701ED91FC910190C0
:1006B000F081E02DC7011995F3CF642F0E94AD02A0
:1006C000C801DF91CF911F910F91FF90EF90DF90C4
:1006D000CF900895CF93DF931F92CDB7DEB7698394
:1006E0002091DC022223F9F020910203203258F0FD
:1006F00021E030E0FC013383228390E080E00F9022
:10070000DF91CF91089580910303E82FF0E0E35249
:10071000FD4F998190838F5F809303038093020341
:1007200081E090E0ECCF61E0CE0101960E94AD0245
:10073000F7CFCF92DF92EF92FF920F931F93CF9359
:10074000DF93FC01C48121E02093DC02C093FD0211
:1007500010920303109202038385682B83E193E0D8
:100760000E946A03D0910203D13208F092C00E9425
:1007700026026B017C018091D602811165C082E066
:100780008093D60281E08093D5028FEF8093D402CC
:100790001092D302D093D202ADEDB2E0E2EBF2E0E0
:1007A00080E0D81385C01092B1028091B102CC0FC5
:1007B000C82BC093B1028091B002813009F07CC097
:1007C0001092B0020E9426026B017C018091B1025E
:1007D0008093BB008091D8029091D902A091DA0257
:1007E000B091DB02892B8A2B8B2B99F00E94260279
:1007F0000091D8021091D9022091DA023091DB02E7
:100800006C197D098E099F090617170728073907F4
:10081000E0F18091BC0083FDD9CF85EC8093BC00D2
:100820000E9426026B017C018091D602823009F47D
:1008300045C08091D4028F3F61F18091D402803213
:1008400041F18091D40225C08091D8029091D902C3
:10085000A091DA02B091DB02892B8A2B8B2B09F451
:100860008ACF0E9426020091D8021091D9022091CD
:10087000DA023091DB026C197D098E099F09061797
:1008800017072807390708F076CF8091D7020E9412
:10089000F20210920303109202031092DC02DF9125
:1008A000CF911F910F91FF90EF90DF90CF9008951F
:1008B0009D9191938F5F75CF85EEB0CF8091D802D7
:1008C0009091D902A091DA02B091DB02892B8A2B98
:1008D0008B2B09F4A9CF0E9426020091D802109117
:1008E000D9022091DA023091DB026C197D098E0960
:1008F0009F09061717072807390708F095CFC5CFB6
:1009000090E080E008950F931F93CF938C01C62F42
:100910000E9499036C2F6460C8010E9499036C2F98
:100920006B7FC8010E94990383EC90E00197F1F777
:10093000CF911F910F9108950F931F93CF93DF9342
:100940008C01D62FC42F607F642B0E94830480E12A
:10095000D89FB00111246C2BC801DF91CF911F915A
:100960000F910C948304CF93DF9300D000D01F929B
:100970001F92CDB7DEB798E0E0E0F2E0DE0111961D
:1009800001900D929A95E1F790912703981708F43A
:100990008FEF90E0880F991F21E030E02C0F3D1F72
:1009A000820F931FFC016081606840E08FE193E05B
:1009B00028960FB6F894DEBF0FBECDBFDF91CF9162
:1009C0000C949C0441E00E949C0481E090E0089516
:1009D00085ED8093BC008091D8029091D902A091BE
:1009E000DA02B091DB020796A11DB11D23E0B69596
:1009F000A795979587952A95D1F72091BC0024FD5E
:100A000003C01092D60208954091D8025091D902A5
:100A10006091DA027091DB02452B462B472B69F37C
:100A20000097A105B10541F02AE22A95F1F700C02F
:100A30000197A109B109E1CF8091D7020C94F2028C
:100A40001F920F920FB60F9211242F933F938F9303
:100A50009F93AF93BF9380910B0390910C03A09150
:100A60000D03B0910E0330910A0323E0230F2D37BD
:100A700058F50196A11DB11D20930A0380930B0325
:100A800090930C03A0930D03B0930E0380910F037A
:100A900090911003A0911103B09112030196A11D32
:100AA000B11D80930F0390931003A0931103B09393
:100AB0001203BF91AF919F918F913F912F910F9012
:100AC0000FBE0F901F90189526E8230F0296A11DC8
:100AD000B11DD2CF1F920F920FB60F9211240BB6F9
:100AE0000F922F933F934F935F936F937F938F93C7
:100AF0009F93AF93BF93EF93FF938091B900887F4B
:100B0000803609F44DC008F040C0883209F4A9C00D
:100B100028F5803109F49DC0C8F4882309F4FBC08E
:100B2000883009F496C0FF91EF91BF91AF919F91EA
:100B30008F917F916F915F914F913F912F910F9086
:100B40000BBE0F900FBE0F901F901895883109F4BF
:100B500088C0803241F78093D40214C0803409F4F5
:100B60009DC040F48033B9F38833E9F68093D40212
:100B700085ECB0C0803509F485C0883509F496C08D
:100B8000883489F60E94E804CECF883909F48CC0F5
:100B900038F5883729F050F4883611F0803719F687
:100BA00083E08093D6021092AF0257C0883809F4D0
:100BB0007BC0803919F0803809F0B5CF8091AF0241
:100BC000803208F071C0E091AF0281E08E0F809317
:100BD000AF028091BB00F0E0E157FD4F80833DC044
:100BE000803B39F0E0F4803A09F479C0883A09F0A2
:100BF0009ACF84E08093D60210928E0210928D02DA
:100C0000E0910003F0910103199580918D0281110B
:100C10000FC081E080938D0210926D0209C0803C6C
:100C200009F4A6CF883C09F4A3CF883B09F07BCF19
:100C3000E0918E0281E08E0F80938E02F0E0E35906
:100C4000FD4F80818093BB0090918E0280918D0238
:100C500029C08091B1028093BB0085EC8093BC00D9
:100C600062CF9091D3028091D202981758F5E0910B
:100C7000D30281E08E0F8093D302F0E0EE54FD4F5B
:100C80008081E9CFE091D30281E08E0F8093D3027F
:100C90008091BB00F0E0EE54FD4F80839091D30231
:100CA0008091D2029817C8F285E8D8CFE091D3029C
:100CB00081E08E0F8093D3028091BB00F0E0EE5470
:100CC000FD4F80838091D50281115CCF81E08093BC
:100CD000B00284EA8093BC001092D60224CF85EC47
:100CE0008093BC001092D6028091AF02803230F423
:100CF000E091AF02F0E0E157FD4F10826091AF024A
:100D000070E0E091FE02F091FF028FE892E0199509
:100D10001092AF0208CF1092D40234CFE3E1F3E097
:100D20001382128288EE93E0A0E0B0E08483958382
:100D3000A683B7838CE092E091838083EFE1F3E0B8
:100D4000138212828EE192E09183808387E2848312
:100D500080E1818782E0828713860895789484B544
:100D6000826084BD84B5816084BD85B5826085BDA7
:100D700085B5816085BD80916E00816080936E0035
:100D80001092810080918100826080938100809127
:100D900081008160809381008091800081608093D8
:100DA00080008091B10084608093B1008091B00098
:100DB00081608093B0008091910082608093910067
:100DC000809191008160809391008091900081607A
:100DD000809390008091A10082608093A100809117
:100DE000A10081608093A1008091A0008160809328
:100DF000A0008091210182608093210180912101D6
:100E00008160809321018091200181608093200185
:100E100080917A00846080937A0080917A00826069
:100E200080937A0080917A00816080937A0080912B
:100E30007A00806880937A001092C10010920503B6
:100E40001092040310920303109202030E94D40232
:100E50008DE792E090930103809300038EE792E088
:100E60009093FF028093FE02109224038091290345
:100E7000823018F098E0909324038093270362E374
:100E800070E080E090E00E944B0260912A038FE1C5
:100E900093E00E94990368EE73E080E090E00E9486
:100EA0004B0260E38FE193E00E948304CBE4D6E43D
:100EB000CE010197F1F760E38FE193E00E94830494
:100EC0002197F1F760E38FE193E00E94830483E5CB
:100ED00092E00197F1F760E28FE193E00E948304D2
:100EE00060912403606240E08FE193E00E949C04E3
:100EF00084E08093250340E06CE08FE193E00E9462
:100F00009C0440E061E08FE193E00E949C04CBE30D
:100F1000DFE1CE010197F1F782E08093260340E004
:100F200066E08FE193E00E949C0440E062E08FE184
:100F300093E00E949C042197F1F788E080932A03B4
:100F400060E08FE193E00E94990380E00E94B30487
:100F500040E150E066E272E08FE193E00E947F02A0
:100F600086E10E94720187E10E94720188E10E947D
:100F7000720189E10E9472018AE10E9472018BE193
:100F80000E9472018BE00E94720160E08BE00E947F
:100F9000F8012FB7F89480910B0390910C03A09166
:100FA0000D03B0910E032FBF8093060390930703A8
:100FB000A0930803B0930903CCE8D1E00CE412E05D
:100FC00096E0E92E92E0F92E20E0C22E20E0D22E0B
:100FD0002FB7F89480910B0390910C03A0910D030F
:100FE000B0910E032FBF409106035091070360910B
:100FF000080370910903841B950BA60BB70B803E69
:101000009349A440B10578F060E08BE00E94F801BC
:1010100081E00E94B30444E150E067E372E08FE1B5
:1010200093E00E947F02FE018491F801A490F701F1
:10103000B490B1101AC02FB7F89480910B0390911F
:101040000C03A0910D03B0910E032FBF80930603F4
:1010500090930703A0930803B0930903C114D1042C
:1010600009F4B6CF0E940000B3CF81110E94910114
:10107000EB2DF0E0EE0FFF1FE45AFE4FA591B49167
:101080008C91A822C1F2EACFEE0FFF1F881F8BBF01
:0C1090000790F691E02D1994F894FFCF22
:10109C000000400014005400000000006A033D03EF
:1010AC008004130336032303140300000000E2043E
:1010BC007F028004AC02434E43204C617365722066
:1010CC00437574746572004C61736572204F66666B
:0C10DC002028496E616374697665290064
:00000001FF
