:100000000C944F010C9480010C9480010C9480019D
:100010000C9480010C9480010C9480010C9480015C
:100020000C9480010C9480010C9480010C9480014C
:100030000C9480010C9480010C9480010C9480013C
:100040000C9480010C9480010C9480010C9480012C
:100050000C9480010C9480010C9480010C94841009
:100060000C9480010C94F8100C94CE100C94800128
:100070000C9480010C9480010C9480010C948001FC
:100080000C9480010C9480010C9480010C948001EC
:100090000C9480010C9480010C9480010C942E111E
:1000A0000C9480010C9480010C9480010C948001CC
:1000B0000C9480010C9480010C9480010C948001BC
:1000C0000C9480010C9480010C9480010C948001AC
:1000D0000C9480010C9480010C9480010C9480019C
:1000E0000C9480010C9452120C94E00C0C94D502E8
:1000F0000C94D4020C9403030C9426030C94B201C8
:100100000C94D7010C94B5010C9434030C94C501E4
:100110000C94AD0A0C94AC0C0C94890C0C94E50175
:100120000C94BF010C94D3010C94AA010C94DB0134
:100130000C9412030C94BB010C94980F0C94F60DC4
:100140000C944C0A0C94220C0C94D6020C94A6012C
:100150000C94B30C0C948A0C0C94990C0C94C9015B
:100160000C94AE010C94A0010C94E0010C946C036F
:100170000C94B9030C94E1010C94CD010000210012
:10018000240027002A002D00300033000101000068
:10019000040107010A0100002200250028002B00AD
:1001A0002E003100340002010000050108010B019E
:1001B000000020002300260029002C002F00320020
:1001C00000010000030106010901050505050705F9
:1001D00008080808020202020A0A080804040404C3
:1001E00001010101010101010303030303030303EF
:1001F000040707070C0C0C0C0C0C0C0C020202027E
:1002000006060606060606060B0B0B0B0B0B0B0B66
:100210000102102020080810204010204080020118
:1002200002010804020101020408102040808040FD
:1002300020100804020180040201804020100804FC
:10024000020108040201010204081020408001029A
:1002500004081020408000000A0B02090C0D0E0853
:10026000070304010000000000000000000000007F
:10027000000000000000000000000000000000007E
:10028000000012111000000000000000000000003B
:1002900000000000000000000000000052121124C5
:1002A0001FBECFEFD1E2DEBFCDBF00E00CBF26E026
:1002B000A4ECB2E001C01D92AF39B207E1F712E041
:1002C000A0E0B2E0E2ECF2E300E00BBF02C0079076
:1002D0000D92A43CB107D9F711E0CFE4D1E000E0E2
:1002E00006C021970109802FFE010E943817CE34E5
:1002F000D10780E00807A9F70E94B5120C945F1996
:100300000C9400008150823108F05AC0E82FF0E0D0
:100310008827E257FE4F8F4F0C943817AE01B20179
:10032000A001A601AA01E001B501BB01BF01C50101
:10033000C901CD01D301D701E001DB01E101E501F4
:10034000809180008F778093800008958091800055
:100350008F7DF9CF80918000877FF5CF84B58F772F
:1003600084BD089584B58F7DFBCF8091B0008F77D9
:100370008093B00008958091B0008F7DF9CF809177
:1003800090008F77809390000895809190008F7DEA
:10039000F9CF80919000877FF5CF8091A0008F7773
:1003A0008093A00008958091A0008F7DF9CF809167
:1003B000A000877FF5CF809120018F778093200167
:1003C0000895809120018F7DF9CF80912001877F52
:1003D000F5CFCF93DF93282F30E0F901EA5AFD4F94
:1003E0008491F901E05FFD4FD491F901E653FE4F8E
:1003F000C491CC23A1F081110E948201EC2FF0E086
:10040000EE0FFF1FE055FE4FA591B491EC91ED2347
:1004100081E090E009F480E0DF91CF91089580E0E1
:1004200090E0FACF1F93CF93DF93282F30E0F901AC
:10043000EA5AFD4F8491F901E05FFD4FD491F90133
:10044000E653FE4FC491CC23A9F0162F81110E94D0
:100450008201EC2FF0E0EE0FFF1FEA56FE4FA59150
:10046000B4918FB7F894EC91111108C0D095DE23A8
:10047000DC938FBFDF91CF911F910895DE2BF8CFD2
:10048000CF93DF9390E0FC01E05FFD4F2491865312
:100490009E4FFC0184918823D1F090E0880F991F32
:1004A000FC01E458FE4FA591B491FC01EA56FE4FC1
:1004B000C591D491623071F49FB7F8943C91822F2A
:1004C000809583238C93E8812E2B28839FBFDF9117
:1004D000CF9108958FB7F894EC912E2B2C938FBF6A
:1004E000F6CF3FB7F8948091950390919603A09131
:1004F0009703B091980326B5A89B05C02F3F19F02C
:100500000196A11DB11D3FBFBA2FA92F982F882793
:10051000BC01CD01620F711D811D911D42E0660F6E
:10052000771F881F991F4A95D1F708958F929F9240
:10053000AF92BF92CF92DF92EF92FF924B015C019C
:100540000E9471026B017C010E9471026C197D098D
:100550008E099F09683E734081059105A8F321E04B
:10056000821A9108A108B10888EEC80E83E0D81E4F
:10057000E11CF11C81149104A104B10429F7FF903E
:10058000EF90DF90CF90BF90AF909F908F900895A5
:100590002FB7F89460919103709192038091930327
:1005A000909194032FBF089508950895AF92BF923C
:1005B000CF92DF92EF92FF920F931F93CF93DF932F
:1005C0006C017B018B01040F151FEB015E01AE185E
:1005D000BF08C017D10759F06991D601ED91FC9180
:1005E0000190F081E02DC6011995892B79F7C5019D
:1005F000DF91CF911F910F91FF90EF90DF90CF90FF
:10060000BF90AF900895FC01538D448D252F30E0AD
:10061000842F90E0821B930B541710F0CF9608950F
:1006200001970895FC01918D828D981761F0A28D3C
:10063000AE0FBF2FB11D5D968C91928D9F5F9F7302
:10064000928F90E008958FEF9FEF0895FC01918DB8
:10065000828D981731F0828DE80FF11D858D90E025
:1006600008958FEF9FEF0895FC01918D228D892FC2
:1006700090E0805C9F4F821B91098F7399270895AA
:100680008BE995E00E94340321E0892B09F420E0F6
:10069000822F0895FC01A48DA80FB92FB11DA35A74
:1006A000BF4F2C91848D90E001968F739927848F92
:1006B000A689B7892C93A089B1898C9183708064B5
:1006C0008C93938D848D981306C00288F389E02D56
:1006D00080818F7D80830895EF92FF920F931F9307
:1006E000CF93DF93EC0181E0888F9B8D8C8D9813E5
:1006F0001AC0E889F989808185FF15C09FB7F894F1
:10070000EE89FF896083E889F9898081837080643C
:1007100080839FBF81E090E0DF91CF911F910F9187
:10072000FF90EF900895F62E0B8D10E00F5F1F4F96
:100730000F731127E02E8C8D8E110CC00FB607FCA5
:10074000FACFE889F989808185FFF5CFCE010E9433
:100750004A03F1CFEB8DEC0FFD2FF11DE35AFF4F54
:10076000F0829FB7F8940B8FEA89FB8980818062C1
:10077000CFCFCF93DF93EC01888D8823B9F0AA897E
:10078000BB89E889F9898C9185FD03C0808186FD4C
:100790000DC00FB607FCF7CF8C9185FFF2CF80819B
:1007A00085FFEDCFCE010E944A03E9CFDF91CF91C3
:1007B000089580E090E0892B29F00E944003811188
:1007C0000E94000080E090E0892B49F080E090E0FA
:1007D000892B29F00E94000081110E94000080E016
:1007E00090E0892B49F080E090E0892B29F00E946D
:1007F000000081110E94000080E090E0892B49F008
:1008000080E090E0892B29F00E94000081110C9477
:10081000000008958FB7F89480917D038FBF0895ED
:1008200061E0FC0184810E94120280917C038111AD
:1008300010927C0308958EBD00000DB407FEFDCF1D
:100840008EB508958FEF0C941B040F931F93CF93D5
:10085000DF93EC010E94C8028B010E9422048F3FAB
:1008600069F00E94C802601B710B6C177D07A8F32A
:1008700080E0DF91CF911F910F91089581E0F9CF32
:100880008CBD9DBD0895CF93DF93EC0180917C03D7
:10089000811109C081E080937C038091380690919A
:1008A00039060E94400460E08C81DF91CF910C9466
:1008B00012028F929F92AF92BF92FF920F931F935B
:1008C000CF93DF93EC01F62E49015A018E818823E4
:1008D00089F08F8198859C012F5F3F4F38872F8348
:1008E0008230924018F40E942204F3CFCE010E947D
:1008F00010041E82CE010E9443048CE291E00E940B
:1009000025048F2D80640E941B0408E110E0D501AE
:10091000C401002E04C0B695A795979587950A94B3
:10092000D2F70E941B0408501109083F8FEF1807E7
:1009300071F785E9FF2021F028E087E8F2128FEFB8
:100940000E941B0410E00E9422048A8787FF04C0D3
:100950001F3F11F01F5FF7CFDF91CF911F910F91D4
:10096000FF90BF90AF909F908F900895CF92DF92AD
:10097000EF92FF920F93CF93DF93EC01690182E135
:10098000411551056105710599F08B85833039F06A
:1009900089E0440F551F661F771F8A95D1F79A018A
:1009A000AB0168E1CE010E945904882319F084E06C
:1009B0008D832DC08EEF0E941B0476018EEFD81A16
:1009C000F70181917F010E941B04EC14FD04C1F723
:1009D0008FEF0E941B048FEF0E941B040E942204D1
:1009E0008A878F71853071F4011116C0CE010E9483
:1009F000100481E0DF91CF910F91FF90EF90DF9095
:100A0000CF90089581E18D83CE010E941004CE0124
:100A10000E94100480E0EECF88E592E00E94250459
:100A2000811102C085E1C4CF20E030E0A9016DE072
:100A3000CE010E945904882311F084E1B9CF0E94AD
:100A400022048111FACFD2CF0F9340917F035091AE
:100A50008003609181037091820341155105610506
:100A6000710599F0082F29E933E08091990590915B
:100A70009A050E94B604882349F010927F031092D1
:100A80008003109281031092820381E00F910895F8
:100A90000F93CF93C82F80917E03811105C0C1E0D1
:100AA0008C2FCF910F910895409100025091010237
:100AB00060910202709103020C2F29E933E08091CA
:100AC000990590919A050E94B604811102C0C0E078
:100AD000E7CFCC2321F381E00E9424058823B9F3DA
:100AE00010927E03DDCF9F92AF92BF92CF92DF92A2
:100AF000EF92FF920F931F93CF93DF936B017C01D3
:100B0000942E8091000290910102A0910202B09176
:100B100003028C159D05AE05BF0509F494C081E064
:100B20000E944805882389F1C0919905D0919A05C2
:100B30008E81882371F088819981AA81BB81C81632
:100B4000D906EA06FB0629F48F819885892B09F4DA
:100B500043C0C882D982EA82FB828B85A7019601B5
:100B6000833039F099E0220F331F441F551F9A95A7
:100B7000D1F761E1CE010E945904882391F083E00E
:100B80008D83CE010E94100480E0DF91CF911F91F0
:100B90000F91FF90EF90DF90CF90BF90AF909F901C
:100BA00008950E94C8028B010E9422048A878F3F09
:100BB00069F40E94C802601B710B6D327140A0F392
:100BC0008FE08D83CE010E941004DBCF8E3F69F54C
:100BD00018861F8281E08E8309E913E089E9A82E37
:100BE00085E0B82E0E942204F80181938F01AE1691
:100BF000BF06C1F78F8198859E5F98878F8329856F
:100C0000222319F081159240B0F08E81882399F04B
:100C10008F8198859C012F5F3F4F38872F838230CB
:100C2000924028F40E942204F3CF8DE0CACFCE0177
:100C30000E9410041E82C0920002D0920102E09233
:100C40000202F092030240917E03492940937E0301
:100C500081E09BCF8F929F92AF92BF92CF92DF9213
:100C6000EF92FF92CF932AE336E030939A052093D8
:100C70009905882309F46DC040E060E070E0CB0185
:100C80000E94730581110BC080E0CF91FF90EF901F
:100C9000DF90CF90BF90AF909F908F9008958091FC
:100CA00057058F7789F78091630590916405A0912E
:100CB0006505B091660584369105A105B10520F35F
:100CC000C0905F05D0906005E0906105F0906205EE
:100CD000C114D104E104F104B9F240E0C701B60146
:100CE0000E947305882381F28091A4039091A5034B
:100CF0008115924049F6A091A903AA2329F2609197
:100D0000A7037091A8036115710509F4BDCF209167
:100D1000A603222309F4B8CFA093580620934A06CD
:100D200090E080E030E0E1E0F0E0C82FAF01082E75
:100D300002C0440F551F0A94E2F72417350769F0E3
:100D400041E0480F01968930910579F740935306A9
:100D50009BCFC12CD12C7601C0CF8093530620911C
:100D6000AF033091B00350E040E02115310541F46C
:100D70002091BD033091BE034091BF035091C00349
:100D800020934B0630934C0640934D0650934E06ED
:100D900046015701860E971EA11CB11C8092590670
:100DA00090925A06A0925B06B0925C06E091AA036C
:100DB000F091AB03F0935F06E0935E06B0E00E9413
:100DC0001E17DC01CB01880D991DAA1DBB1D809348
:100DD000600690936106A0936206B093630625E0D7
:100DE000EE0FFF1F2A95E1F7E150FE4FEF2FFF278F
:100DF000E6958E0F9F1FA11DB11D80935406909301
:100E00005506A0935606B09357068090AC03909079
:100E1000AD03B12CA12C8114910441F48090B9034D
:100E20009090BA03A090BB03B090BC03C81AD90A33
:100E3000EA0AFB0AC80CD91CEA1CFB1C04C0F69485
:100E4000E794D794C794CA95D2F7C0924F06D09230
:100E50005006E0925106F092520685EFC8168FE0D8
:100E6000D806E104F10428F48CE080935D0681E06B
:100E70000CCF80E125EFC2162FEFD206E104F1047A
:100E8000A0F38091C5039091C603A091C703B091D0
:100E9000C8038093600690936106A0936206B093A6
:100EA000630680E2E2CF4F925F926F927F928F92C1
:100EB0009F92AF92BF92CF92DF92EF92FF920F93E9
:100EC0001F93CF93DF93EC0142305105610571050B
:100ED00090F480E0DF91CF911F910F91FF90EF9000
:100EE000DF90CF90BF90AF909F908F907F906F904A
:100EF0005F904F90089589859A85AB85BC85019652
:100F0000A11DB11D84179507A607B70710F3CB885D
:100F1000DC88ED88FE888F89803109F042C0BB27CC
:100F2000A72F962F852F480159012A013B01C80E92
:100F3000D91EEA1EFB1E8091000290910102A09131
:100F40000202B0910302C816D906EA06FB0699F51B
:100F50008F898031C1F5B301A20155276627772714
:100F6000440F551F47565C4FFA0191828082809151
:100F70007E03816080937E038A89823080F08D8138
:100F80009E81AF81B8858C0D9D1DAE1DBF1D8093C8
:100F90007F0390938003A0938103B093820381E049
:100FA00099CFDB01CA01E7E0B695A795979587959C
:100FB000EA95D1F7B8CF40E0C701B6010E947305AA
:100FC0008111C6CF86CFB301A2014F77552766277F
:100FD0007727440F551F440F551F47565C4FFA01A2
:100FE00080829182A282B382C2CF8F929F92AF926F
:100FF000BF92CF92DF92EF92FF920F931F93CF9306
:10100000DF93FC0181859285A385B4850196A11D9E
:10101000B11D84179507A607B70770F480E0DF912C
:10102000CF911F910F91FF90EF90DF90CF90BF90E5
:10103000AF909F908F90089583889488A588B688F4
:101040008789803189F5BB27A72F962F852FE90146
:101050006A017B018F01BC01CD01680D791D8A1DDC
:101060009B1D8090000290900102A0900202B0901F
:10107000030286169706A806B90601F5F8018789C6
:10108000803111F5DD24EE24FF24F601EE0FFF1F61
:10109000E756FC4F80819181B0E0A0E0888399837E
:1010A000AA83BB8381E0BBCFDB01CA01C7E0B69551
:1010B000A79597958795CA95D1F7C9CF40E00E942B
:1010C00073058111DBCFAACFE894C7F8DD24EE24A5
:1010D000FF24F601EE0FFF1FEE0FFF1FE756FC4F38
:1010E00080819181A281B381BF70D8CF8F929F926E
:1010F000AF92BF92CF92DF92EF92FF920F931F9326
:10110000CF93DF93EC018D8181110EC080E0DF91E0
:10111000CF911F910F91FF90EF90DF90CF90BF90F4
:10112000AF909F908F9008950B891C892D893E89DF
:10113000041715072607370748F34A015B01823079
:1011400031F48A869B86AC86BD8681E0E0CF81142F
:101150009104A104B10449F41E821F8218861986E5
:101160001A861B861C861D86F0CF0A851B852C855A
:101170003D85EB8DFC8D858590E00996B901A80130
:101180004150510961097109082E04C0769567958F
:10119000579547950A94D2F775016401E1E0CE1A9C
:1011A000D108E108F10804C0F694E794D794C794F5
:1011B0008A95D2F7C416D506E606F70620F0012B6D
:1011C000022B032B11F58F89988DA98DBA8D8E83F3
:1011D0009F83A887B9878E010A5F1F4FC114D1046E
:1011E000E104F10409F4ADCF4E815F816885798512
:1011F00098018B8D9C8D0E94F50791E0C91AD1084A
:10120000E108F1088111EACF81CFC41AD50AE60AB4
:10121000F70AE1CF3F924F925F926F927F928F9247
:101220009F92AF92BF92CF92DF92EF92FF920F9375
:101230001F93CF93DF93CDB7DEB72C970FB6F894FB
:10124000DEBF0FBECDBF5C01DC015B968D909C9034
:101250005C9716964D905D906D907C901997411417
:1012600051046104710409F468C0BFEF4B1A5B0AB2
:101270006B0A7B0A312CF40181859285A385B485A4
:101280009C01AD012F5F3F4F4F4F5F4F29873A873A
:101290004B875C87730162011D821E821F82188644
:1012A000F40181859285A385B4852D813E814F818E
:1012B0005885281739074A075B0708F056C0898503
:1012C0009A85AB85BC858C159D05AE05BF0550F490
:1012D00082E0C82ED12CE12CF12C92E0492E512C29
:1012E000612C712C9E012F5F3F4FB701A601C401F5
:1012F0000E94F5078823C9F189819A81AB81BC815D
:10130000892B8A2B8B2B09F1260137019FEF491A74
:10131000590A690A790A2D813E814F8158852F5FCC
:101320003F4F4F4F5F4F2D833E834F8358873FEF93
:10133000C31AD30AE30AF30AB3CFF4014080518001
:10134000628073803324339496CFC414D504E604AA
:10135000F70409F70FEF1FEF2FEF3FE0B701A601EA
:10136000C4010E945307811119C080E02C960FB66A
:10137000F894DEBF0FBECDBFDF91CF911F910F91CB
:10138000FF90EF90DF90CF90BF90AF909F908F90A5
:101390007F906F905F904F903F900895D501169683
:1013A0004D915D916D917C911997411551056105A4
:1013B000710539F097018601C4010E945307882303
:1013C000A1F2D5011696CD92DD92ED92FC9219977D
:1013D000332051F0D701C6010196A11DB11DF401C2
:1013E00080839183A283B383F5018789908DA18D3A
:1013F000B28D892B8A2B8B2B39F48481C78AD08EAE
:10140000E18EF28E80688483F5018481806284831A
:1014100081E0ACCF1F93CF93DF93EC01162F8C812B
:1014200087FF2AC06E857F858889998941E00E945F
:101430007305882361F1EA8980E2E89FF0011124B5
:10144000E756FC4F309719F18D81823040F48B893B
:101450009C89AD89BE89848F958FA68FB78F8F8920
:10146000988D938F828F8F89988DA98DBA8DB58B2A
:10147000A48B8C818F778C83111103C08C818F7E1C
:101480008C83812FDF91CF911F910C94480580E0D0
:10149000DF91CF911F910895FF920F931F93CF93E8
:1014A000DF93EC018D81813041F090E080E0DF91AD
:1014B000CF911F910F91FF9008958C8181FFF5CFFF
:1014C00082FD1EC00091990510919A05C8010E94E5
:1014D00043040E942204F82EC8010E9410048FEFDA
:1014E000F812E3CF8C8185FF1EC08D81882321F007
:1014F00060E0CE010E940A0A8C818F7D8C83D5CF5B
:101500004B895C896D897E898A859B85AC85BD8583
:1015100084179507A607B707A9F2CE010E9476089F
:101520008111D0CFC2CF40917F0350918003609151
:10153000810370918203452B462B472B21F080E0DD
:101540000E942405B2CF80618C832A853B8531704F
:1015500080E092E0821B930BAACF9F92AF92BF9242
:10156000CF92DF92EF92FF920F931F93CF93DF936F
:1015700000D01F921F92CDB7DEB78C016D83DC01C6
:1015800015968C911597813009F0B9C014968C91FD
:1015900081FFB5C082FD9FC0D8015B96ED91FC91A3
:1015A0005C971A96AD90BD90CD90DC901D9794807D
:1015B0009A94B601A50189E0769567955795479568
:1015C0008A95D1F79422B1E0BB22992009F49FC0FB
:1015D000D8015B96ED91FC915C971696CD90DD90CD
:1015E000ED90FC901997B2E0CB1AD108E108F10810
:1015F000858504C0CC0CDD1CEE1CFF1C8A95D2F73F
:101600004685578560897189C40ED51EE61EF71E72
:10161000C90CD11CE11CF11CA114B10409F00AC1D0
:10162000F801428553856485758583899489A589E8
:10163000B689481759076A077B0708F4FBC081E0A1
:101640000E944805882309F45AC0C0920002D09233
:101650000102E0920202F092030280917E03816017
:1016600080937E03F501E756FC4F8D818083F8015E
:1016700082859385A485B5850196A11DB11D8287BC
:101680009387A487B58743895489658976894817E4
:1016900059076A077B0738F42481838B948BA58BC9
:1016A000B68B20682483D80114968C9183FD9FC04B
:1016B00081E090E00F900F900F900F900F90DF91CE
:1016C000CF911F910F91FF90EF90DF90CF90BF903F
:1016D000AF909F900895F801438954896589768970
:1016E00082859385A485B585481759076A077B07C6
:1016F00009F452CFC8010E94760881114DCF81E0D4
:1017000090E0D80113969C938E93129749C0D8010C
:1017100016964D915D916D917C911997A114B1042C
:1017200009F071C0411551056105710589F557969C
:101730008D919D910D90BC91A02D0097A105B105B3
:1017400009F04FC0C8010E940A098823C1F2D801DC
:101750005B96ED91FC915C971696CD90DD90ED90A7
:10176000FC901997B2E0CB1AD108E108F108858501
:1017700004C0CC0CDD1CEE1CFF1C8A95D2F74685FC
:10178000578560897189C40ED51EE61EF71E48CFA5
:101790009E012F5F3F4FCF010E94F507811103C0CB
:1017A00090E080E087CF89819A81AB81BC81F8018C
:1017B000238D348DF901278948EF5FEF60E070E0F9
:1017C000203121F048EF5FEF6FEF7FE0841795073E
:1017D000A607B70730F0C8010E940A098111F8CEA8
:1017E0008ECFF80186839783A087B187F1CEF80169
:1017F0008581882309F483CF61E0C8010E940A0A29
:10180000811156CF7CCF6A017B01B2E0CB1AD1089F
:10181000E108F108858504C0CC0CDD1CEE1CFF1C22
:101820008A95D2F74685578560897189C40ED51E81
:10183000E61EF71E41E0C701B6010E947305811143
:1018400011CF5DCF089520910B03260F3327331F4F
:1018500021323105ECF420915403FC0190E080E04A
:10186000243069F082E00895A0910B032191AC012E
:1018700045515D4FA40FB52FB11D2C9301968617CE
:1018800098F380910B03680F60930B0380E0089539
:1018900081E008951092540381E0809353031092E5
:1018A0002E0361E084E10E94120261E085E10E9462
:1018B0001202E9EBF0E080818E7F808380818D7F52
:1018C000808388E48093B80085E48093BC00089509
:1018D000CF93DF9391E09093EA028823B9F0C0910F
:1018E000B800D091BA008091BC008A7B8093BC0084
:1018F00060E084E10E94120260E085E10E94120231
:101900000E944A0CD093BA00C093B800DF91CF91E7
:1019100008950895E0918A0380918903E81730F4CF
:10192000F0E0E653FD4F808190E008958FEF9FEF48
:10193000089590918A03809189032FEF3FEF9817C4
:1019400048F4E92FF0E0E653FD4F208130E09F5F3F
:1019500090938A03C90108958091890390918A0325
:10196000891B990B0895CF92DF92EF92FF920F930C
:101970001F93CF93DF937C01CB018A0120915A03FF
:10198000222389F0EB016B01C40ED51ECC15DD05B9
:1019900069F06991D701ED91FC910190F081E02D02
:1019A000C7011995F3CF642F0E94230CC801DF9162
:1019B000CF911F910F91FF90EF90DF90CF900895FE
:1019C000CF93DF931F92CDB7DEB7698320915A037F
:1019D0002223F9F020918703203258F021E030E0F3
:1019E000FC013383228390E080E00F90DF91CF9160
:1019F000089580918803E82FF0E0E55AFC4F998123
:101A000090838F5F809388038093870381E090E0C9
:101A1000ECCF61E0CE0101960E94230CF7CFCF926C
:101A2000DF92EF92FF920F931F93CF93DF93FC010E
:101A3000C48121E020935A03C0937B031092880352
:101A4000109287038385682B83E896E00E94E00C60
:101A5000D0918703D13208F092C00E9471026B01CD
:101A60007C0180915403811165C082E0809354030E
:101A700081E0809353038FEF8093520310925103C0
:101A8000D0935003ABE5B3E0E0E3F3E080E0D8139C
:101A900085C010922F0380912F03CC0FC82BC093C9
:101AA0002F0380912E03813009F07CC010922E0309
:101AB0000E9471026B017C0180912F038093BB0017
:101AC0008091560390915703A0915803B091590308
:101AD000892B8A2B8B2B99F00E947102009156035F
:101AE0001091570320915803309159036C197D09C7
:101AF0008E099F090617170728073907E0F180911B
:101B0000BC0083FDD9CF85EC8093BC000E9471029C
:101B10006B017C0180915403823009F445C08091AF
:101B200052038F3F61F180915203803241F18091E5
:101B3000520325C08091560390915703A0915803FA
:101B4000B0915903892B8A2B8B2B09F48ACF0E94E1
:101B50007102009156031091570320915803309160
:101B600059036C197D098E099F0906171707280765
:101B7000390708F076CF809155030E94680C1092C7
:101B800088031092870310925A03DF91CF911F911F
:101B90000F91FF90EF90DF90CF9008959D919193DA
:101BA0008F5F75CF85EEB0CF80915603909157032C
:101BB000A0915803B0915903892B8A2B8B2B09F4E0
:101BC000A9CF0E94710200915603109157032091F2
:101BD0005803309159036C197D098E099F09061726
:101BE00017072807390708F095CFC5CF90E080E0A8
:101BF00008951F93CF93DF93182F862F61E0413014
:101C0000510509F060E00E94120261E0812F0E94FC
:101C10001202CBE7DCE0CE010197F1F760E0812F03
:101C20000E9412022197F1F7DF91CF911F91089541
:101C3000FC0101900020E9F73197AF01481B590BD7
:101C4000BC018FE896E00C94D6020F931F93CF93BC
:101C5000DF93EC0188819981009759F02A813B81BB
:101C60002617370730F081E0DF91CF911F910F9158
:101C700008958B016F5F7F4F0E946518009759F0A0
:101C8000998388831B830A832C813D81232B59F7F9
:101C9000FC011082E8CF80E0E7CFEF92FF920F9334
:101CA0001F93CF93DF936115710541F480E0DF91BD
:101CB000CF911F910F91FF90EF900895411551051D
:101CC000B1F07B01EC010C811D81040F151FB801DF
:101CD0000E94250E882351F3288139818C819D81B2
:101CE000B701820F931F0E9458191D830C8381E056
:101CF000DECFCF93DF93EC0188819981009711F0BB
:101D00000E94DC17198218821D821C821B821A8293
:101D1000DF91CF910895CF92DF92EF92FF920F93D0
:101D20001F93CF93DF93CDB7DEB762970FB6F894CA
:101D3000DEBF0FBECDBF8C01CB01F8011182108236
:101D400013821282158214824AE09E012F5F3F4F58
:101D50006901B9010E94E916F60101900020E9F736
:101D600031977F01EC18FD08B701C8010E94250ECC
:101D7000811112C0C8010E94790E62960FB6F894C4
:101D8000DEBF0FBECDBFDF91CF911F910F91FF90AE
:101D9000EF90DF90CF900895F801F582E482B601CC
:101DA000808191810E945819E8CFCF93DF93EC0195
:101DB000FB0101900020E9F73197AF01461B570B5B
:101DC0000E944D0E811103C0CE010E94790ECE01FA
:101DD000DF91CF910895CF93DF93EC01FB01448114
:101DE0005581608171810E944D0E811103C0CE0129
:101DF0000E94790ECE01DF91CF910895EF92FF926C
:101E00000F931F93CF93DF93EC017B01198218820C
:101E10001B821A821D821C82FB0101900020E9F7BF
:101E200031978F01061B170BB8010E94250E8111F7
:101E300009C0CE01DF91CF911F910F91FF90EF90DC
:101E40000C94790E1D830C83B70188819981DF91F1
:101E5000CF911F910F91FF90EF900C945819FC01B6
:101E600080819181009711F00C94DC1708950F93F5
:101E70001F93CF938C01C62F0E940F0D6C2F6460AF
:101E8000C8010E940F0D6C2F6B7FC8010E940F0DBF
:101E900083EC90E00197F1F7CF911F910F91089596
:101EA0000F931F93CF93DF938C01D62FC42F607FA6
:101EB000642B0E94370F80E1D89FB00111246C2B56
:101EC000C801DF91CF911F910F910C94370FCF93E1
:101ED000DF9300D000D01F921F92CDB7DEB798E0FD
:101EE000EAE0F2E0DE01119601900D929A95E1F799
:101EF00090919706961708F46FEF262F30E0220F87
:101F0000331F41E050E04C0F5D1F240F351FF901D6
:101F10006081680F606840E08FE896E028960FB611
:101F2000F894DEBF0FBECDBFDF91CF910C94500F60
:101F300041E00E94500F81E090E0089585ED80938C
:101F4000BC008091560390915703A0915803B09123
:101F500059030796A11DB11D23E0B695A795979546
:101F600087952A95D1F72091BC0024FD03C01092DB
:101F700054030895409156035091570360915803BC
:101F800070915903452B462B472B69F30097A10508
:101F9000B10541F02AE22A95F1F700C00197A109A5
:101FA000B109E1CF809155030C94680CEF92FF9238
:101FB0000F931F93CF93DF93CDB7DEB768970FB61C
:101FC000F894DEBF0FBECDBF7B01FC0124813581BB
:101FD000232BA9F1008111816EE472E0C8010E94F7
:101FE0004F19892B51F48091C8029091C9028E0D2E
:101FF0009F1D9093C9028093C8026BE572E0C801EF
:102000000E944F19892B51F48091C6029091C7020A
:102010008E0D9F1D9093C7028093C6026DE572E0FE
:10202000C8010E944F196091C4027091C502892BAA
:1020300031F46E0D7F1D7093C5026093C40261E0A0
:1020400080E00E94670F6091C4027091C502CE01CA
:1020500043960E948B0E6091C6027091C702CE011A
:102060000D960E948B0E6091C8027091C902CE013C
:1020700007960E948B0E60E572E0CE0101960E94E9
:10208000FE0EBE01695F7F4FCE0101960E94EB0EEE
:1020900063E572E00E94D50EBE01635F7F4F0E9430
:1020A000EB0E67E572E00E94D50EBE016D5E7F4FBC
:1020B0000E94EB0E68EB72E00E94D50EFC01448199
:1020C0005581608171818FE896E00E94D602CE0131
:1020D00001960E942F0FCE0107960E942F0FCE016E
:1020E0000D960E942F0FCE0143960E942F0F6896E7
:1020F0000FB6F894DEBF0FBECDBFDF91CF911F9119
:102100000F91FF90EF9008951F920F920FB60F92CC
:1021100011242F933F938F939F93AF93BF938091FD
:10212000910390919203A0919303B0919403309105
:10213000900323E0230F2D3758F50196A11DB11D03
:10214000209390038093910390939203A093930321
:10215000B09394038091950390919603A091970377
:10216000B09198030196A11DB11D809395039093A2
:102170009603A0939703B0939803BF91AF919F915B
:102180008F913F912F910F900FBE0F901F90189538
:1021900026E8230F0296A11DB11DD2CF1F920F92E8
:1021A0000FB60F9211240BB60F922F933F934F93BC
:1021B0005F936F937F938F939F93AF93BF93EF93AF
:1021C000FF938BE995E00E944A03FF91EF91BF9145
:1021D000AF919F918F917F916F915F914F913F91BF
:1021E0002F910F900BBE0F900FBE0F901F90189560
:1021F0001F920F920FB60F9211240BB60F922F93CE
:102200008F939F93EF93FF93E091AB05F091AC0513
:102210008081E091B105F091B20582FD1DC09081F1
:102220008091B4058F5F8F732091B505821741F0BF
:10223000E091B405F0E0E556FA4F958F8093B40530
:10224000FF91EF919F918F912F910F900BBE0F9067
:102250000FBE0F901F9018958081F2CF1F920F92A2
:102260000FB60F9211240BB60F922F933F934F93FB
:102270005F936F937F938F939F93AF93BF93EF93EE
:10228000FF938091B900887F803609F44DC008F033
:1022900040C0883209F4A9C028F5803109F49DC0F6
:1022A000C8F4882309F4FBC0883009F496C0FF9174
:1022B000EF91BF91AF919F918F917F916F915F91BE
:1022C0004F913F912F910F900BBE0F900FBE0F902B
:1022D0001F901895883109F488C0803241F78093A7
:1022E000520314C0803409F49DC040F48033B9F324
:1022F0008833E9F68093520385ECB0C0803509F449
:1023000085C0883509F496C0883489F60E949E0FEE
:10231000CECF883909F48CC038F5883729F050F4CD
:10232000883611F0803719F683E0809354031092B9
:102330002D0357C0883809F47BC0803919F08038E4
:1023400009F0B5CF80912D03803208F071C0E09183
:102350002D0381E08E0F80932D038091BB00F0E070
:10236000E35FFC4F80833DC0803B39F0E0F4803A6E
:1023700009F479C0883A09F09ACF84E08093540335
:1023800010920C0310920B03E0918503F0918603E9
:10239000199580910B0381110FC081E080930B038D
:1023A0001092EB0209C0803C09F4A6CF883C09F4E6
:1023B000A3CF883B09F07BCFE0910C0381E08E0F27
:1023C00080930C03F0E0E551FD4F80818093BB00CA
:1023D00090910C0380910B0329C080912F0380936F
:1023E000BB0085EC8093BC0062CF9091510380913B
:1023F0005003981758F5E091510381E08E0F8093B8
:102400005103F0E0E05DFC4F8081E9CFE0915103A2
:1024100081E08E0F809351038091BB00F0E0E05D7E
:10242000FC4F808390915103809150039817C8F21C
:1024300085E8D8CFE091510381E08E0F809351035E
:102440008091BB00F0E0E05DFC4F808380915303FE
:1024500081115CCF81E080932E0384EA8093BC00DD
:102460001092540324CF85EC8093BC001092540347
:1024700080912D03803230F4E0912D03F0E0E35F92
:10248000FC4F108260912D0370E0E0918303F09186
:1024900084038DE093E0199510922D0308CF1092DC
:1024A000520334CFEBE9F5E01382128288EE93E019
:1024B000A0E0B0E084839583A683B78326E132E071
:1024C0003183208325EC30E03587248724EC30E00D
:1024D0003787268720EC30E0318B208B21EC30E0F1
:1024E000338B228B22EC30E0358B248B26EC30E0D2
:1024F000378B268B118E128E138E148EE8E3F6E046
:1025000020E520831182EAE3F6E015821682118627
:10251000138642E050E060E070E0448755876687AC
:10252000778713A215A614A628E232E033A722A7C4
:1025300017A6E3E8F6E01382128284839583A683CC
:10254000B78384E392E091838083EFE8F6E013821F
:10255000128286E492E09183808387E2848380E123
:10256000818782E0828713860895CF93DF9300D01E
:1025700000D000D01F92CDB7DEB7789484B58260CA
:1025800084BD84B5816084BD85B5826085BD85B517
:10259000816085BD80916E00816080936E00109295
:1025A0008100809181008260809381008091810010
:1025B00081608093810080918000816080938000A1
:1025C0008091B10084608093B1008091B0008160FF
:1025D0008093B000809191008260809391008091FF
:1025E0009100816080939100809190008160809340
:1025F00090008091A10082608093A1008091A10051
:1026000081608093A1008091A00081608093A000F0
:10261000809121018260809321018091210181605C
:10262000809321018091200181608093200180911D
:102630007A00846080937A0080917A00826080932F
:102640007A0080917A00816080937A0080917A008C
:10265000806880937A001092C10010928A031092D1
:10266000890310928803109287030E944A0C84ED1C
:1026700092E0909386038093850385ED92E090939A
:10268000840380938303109294068091990682308C
:1026900018F098E0909394068093970662E370E0B8
:1026A00080E090E00E94960260919A068FE896E0A2
:1026B0000E940F0D68EE73E080E090E00E949602A9
:1026C00060E38FE896E00E94370F0BE416E4C80140
:1026D0000197F1F760E38FE896E00E94370FC80199
:1026E0000197F1F760E38FE896E00E94370F83E5EA
:1026F00092E00197F1F760E28FE896E00E94370FD1
:1027000060919406606240E08FE896E00E94500F6E
:1027100084E08093950640E06CE08FE896E00E94AC
:10272000500F40E061E08FE896E00E94500F0BE30D
:102730001FE1C8010197F1F782E08093960640E01F
:1027400066E08FE896E00E94500F40E062E08FE87C
:1027500096E00E94500FC8010197F1F788E080933E
:102760009A0660E08FE896E00E940F0D60E080E03E
:102770000E94670F8FE592E00E94180E61E086E1EB
:102780000E94400261E087E10E94400261E088E12E
:102790000E94400261E089E10E94400261E08AE11A
:1027A0000E94400261E08BE10E94400261E08BE008
:1027B0000E94400260E08BE00E94120262E08CE125
:1027C0000E94400262E08DE10E94400262E08EE1E0
:1027D0000E94400262E08FE10E94400262E080E2DB
:1027E0000E94400262E081E20E94400261E080E0DB
:1027F0000E94670F80E792E00E94180E0E94C802B4
:1028000060938C0370938D0380938E0390938F035A
:1028100080916906882341F061E084E696E00E9499
:102820000A0A811110926906109245061092430619
:102830001092400610923F0684E080933E060E946C
:10284000C8028B0161E080913E060E94400261E077
:1028500080913E060E941202FFB6F89480918B038D
:10286000811127C0EFEFF1E08491E5E4F2E094916B
:10287000E82FF0E0EE0FFF1FE458FE4FA591B49152
:10288000EC91E92321F461E085E30E94120261E00A
:1028900085E30E9440028CB580618CBD8CB580645C
:1028A0008CBD61E084E30E94400261E083E30E940A
:1028B000400280918B038F5F80938B03FFBE82E584
:1028C0008093380610923906809138069091390627
:1028D0000E9440045AE0F52E8FEF0E941B04FA94E8
:1028E000F110FACF8AE396E00E94430420E030E042
:1028F000A90160E08AE396E00E945904F82E8093D3
:10290000440621E08217A9F00E94C802601B710BE7
:10291000613D774058F381E080933F068AE396E07B
:102920000E94100461E080E00E94670F8CE892E052
:10293000C5C02AEA31E040E050E068E08AE396E072
:102940000E94590482FF2AC0F092450680914506F4
:10295000C12CD12C7601823029F4C12CD12CE12C50
:1029600030E4F32E20E030E0A90167E38AE396E04B
:102970000E945904A701960169E28AE396E00E9449
:102980005904809344068823D1F00E94C802601B3A
:10299000710B613D774030F388E0BECF44E0F42E08
:1029A0000E94220480934406FA94F110F9CF8A3AE7
:1029B00011F082E0B1CF82E080934506C7CF8091CD
:1029C00045068230D1F420E030E0A9016AE38AE3D1
:1029D00096E00E945904882311F086E09DCF0E9462
:1029E0002204807C803C19F483E0809345060E9499
:1029F00022040E9422040E9422048AE396E00E949C
:102A0000100480E5809338061092390681E00E9418
:102A10002A06882309F44CC180916906811182CF6E
:102A200080915D06803109F04AC182E08093690699
:102A300010927B0610927C0610927D0610927E0604
:102A400080915E0690915F06B0E0A0E025E0880FDF
:102A5000991FAA1FBB1F2A95D1F7809377069093E1
:102A60007806A0937906B0937A0686E496E0909370
:102A7000800680937F0681E08093680610926A0644
:102A800010926B0610926C0610926D0610926E06F4
:102A900010926F06109270061092710610927206D4
:102AA00010927306109274061092750610927606B4
:102AB00061E080E00E94670F8CE792E00E94180EB0
:102AC0000E94C80200918C0310918D0320918E0307
:102AD00030918F03601B710B820B930B603E734927
:102AE0008440910560F060E08BE00E94120261E09A
:102AF00080E00E94670F8BE992E00E94180E8CE143
:102B00000E94E901892BC1F441E050E067E170E0E7
:102B100086E190E00E94F90D6EE472E0CE0101962C
:102B20000E94FE0E61E070E0CE0101960E94D60F79
:102B3000CE0101960E942F0F8DE10E94E901892BA1
:102B4000C1F44FEF5FEF67E170E086E190E00E9433
:102B5000F90D6EE472E0CE0101960E94FE0E6FEF59
:102B60007FEFCE0101960E94D60FCE0101960E9402
:102B70002F0F8EE10E94E901892BC1F441E050E062
:102B800069E170E088E190E00E94F90D6BE572E088
:102B9000CE0101960E94FE0E61E070E0CE0101962A
:102BA0000E94D60FCE0101960E942F0F8FE10E9446
:102BB000E901892BC1F44FEF5FEF69E170E088E133
:102BC00090E00E94F90D6BE572E0CE0101960E9443
:102BD000FE0E6FEF7FEFCE0101960E94D60FCE0161
:102BE00001960E942F0F80E20E94E901892BC1F417
:102BF00041E050E06BE170E08AE190E00E94F90D65
:102C00006DE572E0CE0101960E94FE0E61E070E07B
:102C1000CE0101960E94D60FCE0101960E942F0F81
:102C200081E20E94E901892BC1F44FEF5FEF6BE174
:102C300070E08AE190E00E94F90D6DE572E0CE014E
:102C400001960E94FE0E6FEF7FEFCE0101960E946B
:102C5000D60FCE0101960E942F0F8CE10E94E90150
:102C6000892B09F08CC00E94C80260938C0370937A
:102C70008D0380938E0390938F038BE00E94E90174
:102C8000892B09F09BC061E08BE00E94120261E099
:102C90008AE00E94670F80EB92E00E94180E64E6C3
:102CA00070E080E090E00E9496020E94D90308CF75
:102CB00080E00E942A06882309F434CEADCE80320B
:102CC00009F030CE83E08093690680916006909190
:102CD0006106A0916206B091630680937B06909393
:102CE0007C06A0937D06B0937E068F839887A98784
:102CF000BA87C12CD12C7601812C82E0982EA12C90
:102D0000B12C4F81588569857A859E01295F3F4F97
:102D100086E496E00E94F507882309F403CE8091AB
:102D20005306A501940104C0220F331F441F551FF1
:102D30008A95D2F7DA01C901C80ED91EEA1EFB1E18
:102D40004F81588569857A8580915D06803191F043
:102D500088EF9FEFAFEFBFE0481759076A077B077F
:102D600080F2C0927706D0927806E0927906F092CF
:102D70007A067BCE88EF9FEFA0E0B0E0EDCF8DE14B
:102D80000E94E901892B09F46ECF8EE10E94E901CE
:102D9000892B09F468CF8FE10E94E901892B09F49E
:102DA00062CF80E20E94E901892B09F45CCF81E2C5
:102DB0000E94E901892B09F456CF5FCF60E08BE0D8
:102DC0000E94120261E08AE00E94670F8AEB92E0A3
:102DD00064CFBB274A3031F4992322F4BDE29095A9
:102DE00081959F4F0C94F516BB27FB015527AA2709
:102DF000880F991FAA1FA41710F0A41B8395505188
:102E0000B9F7A05DAA3308F0A95DA193009779F7FF
:102E1000B111B1931192CB010C940E17DC01FC019E
:102E2000672F71917723E1F7329704C07C916D93FE
:102E300070836291AE17BF07C8F308950E942917E7
:102E4000A59F900DB49F900DA49F800D911D1124FE
:102E50000895A29FB001B39FC001A39F700D811D73
:102E60001124911DB29F700D811D1124911D089593
:102E7000EE0FFF1F881F8BBF0790F691E02D19946E
:102E80000F931F93CF93DF938230910510F482E06C
:102E900090E0E0919D06F0919E0630E020E0B0E0E9
:102EA000A0E0309799F42115310509F44AC0281B98
:102EB000390B24303105D8F58A819B816115710564
:102EC00089F1FB0193838283FE0111C0408151810E
:102ED0000281138148175907E0F04817590799F400
:102EE000109761F012960C93129713961C933296DA
:102EF000CF01DF91CF911F910F91089500939D060F
:102F000010939E06F4CF2115310551F04217530757
:102F100038F0A901DB019A01BD01DF01F801C1CF41
:102F2000EF01F9CF90939E0680939D06CDCFFE01D1
:102F3000E20FF31F81939193225031093983288343
:102F4000D7CF20919B0630919C06232B41F42091F2
:102F500006023091070230939C0620939B06209135
:102F60000402309105022115310541F42DB73EB719
:102F70004091080250910902241B350BE0919B06F9
:102F8000F0919C06E217F307A0F42E1B3F0B2817C5
:102F9000390778F0AC014E5F5F4F2417350748F0D2
:102FA0004E0F5F1F50939C0640939B068193919315
:102FB0009FCFF0E0E0E09CCFCF93DF930097E9F064
:102FC000FC01329713821282A0919D06B0919E0659
:102FD000ED0130E020E01097A1F420813181820FD3
:102FE000931F20919B0630919C062817390709F002
:102FF00061C0F0939C06E0939B06DF91CF9108950A
:10300000EA01CE17DF07E8F54A815B819E01411591
:103010005105B1F7E901FB83EA8349915991C40F46
:10302000D51FEC17FD0761F4808191810296840F12
:10303000951FE90199838883828193819B838A8389
:10304000F0E0E0E012968D919C9113970097B9F50E
:103050002D913C911197CD010296820F931F2091E3
:103060009B0630919C062817390739F6309751F5A1
:1030700010929E0610929D06B0939C06A0939B060C
:10308000BCCFD383C28340815181840F951FC81761
:10309000D90761F44E5F5F4F88819981480F591FAE
:1030A000518340838A819B819383828321153105DB
:1030B00009F0B0CFF0939E06E0939D069ECFFD01F0
:1030C000DC01C0CF13821282D7CF4F925F926F92F2
:1030D0007F928F929F92AF92BF92CF92DF92EF92A8
:1030E000FF920F931F93CF93DF938C01009799F476
:1030F000CB01DF91CF911F910F91FF90EF90DF9067
:10310000CF90BF90AF909F908F907F906F905F9087
:103110004F900C944017FC01E60FF71F9C012250C2
:103120003109E217F30708F4AEC0D901CD91DC9163
:103130001197C617D70720F1C530D10578F0CE0119
:1031400004978617970750F0C61BD70B2297C19399
:10315000D1936D937C93CF010E94DC17C801DF915E
:10316000CF911F910F91FF90EF90DF90CF90BF9084
:10317000AF909F908F907F906F905F904F90089549
:103180005B01AC1ABD0A4C018C0E9D1EA0919D06E0
:10319000B0919E06512C412CF12CE12C109731F569
:1031A00080919B0690919C068815990509F05CC05A
:1031B0004616570608F058C0809104029091050207
:1031C000009741F48DB79EB74091080250910902D3
:1031D000841B950BE817F90708F055C0F0939C067F
:1031E000E0939B06F90171836083B8CF8D919C9128
:1031F000119712966C90129713967C901397A815BE
:10320000B90559F56C0142E0C40ED11CCA14DB04A7
:1032100020F1AC014A195B09DA011296159780F08A
:103220006282738251834083D9016D937C93E11450
:10323000F10471F0D7011396FC93EE9312978ECFA1
:1032400022968C0F9D1FF90191838083F301EFCFAC
:10325000F0939E06E0939D0681CF4816590608F428
:103260002C017D01D3019ACFCB010E9440177C0134
:10327000009749F0AE01B8010E944619C8010E94AA
:10328000DC1787016BCF10E000E068CFFB01DC01A9
:1032900002C001900D9241505040D8F70895FB01B3
:1032A000DC018D91019080190110D9F3990B0895DB
:1032B000FB01DC0101900D920020E1F70895F894E4
:0232C000FFCF3E
:1032C200FFFFFFFF00009F06800000004000140087
:1032D2005400000000006C03D6020303B903340358
:1032E2001203260300000000AD0AD6024C0A220C8B
:1032F20000000000E00CB30CF60D890CAC0C990C2C
:103302008A0C00000000980FD602F60D220C58001D
:10331200583A0020593A00205A3A0059005A0043BC
:103322004E43204C6173657220437574746572005C
:10333200583A3020593A30205A3A30005344204902
:103342006E69742053756363657373005344204937
:103352006E6974204661696C6564004C61736572C4
:10336200204F66662028496E61637469766529007C
:103372004C61736572204F4E20004C617365722060
:043382004F4646006C
:00000001FF
