:100000000C9456010C9487010C9487010C94870181
:100010000C9487010C9487010C9487010C94870140
:100020000C9487010C9432090C9432090C94320917
:100030000C9487010C9487010C9487010C94870120
:100040000C9487010C9487010C9487010C94870110
:100050000C9487010C9487010C9487010C948808F8
:100060000C9487010C94FC080C94D2080C94870122
:100070000C9487010C9487010C9487010C948701E0
:100080000C9487010C9487010C9487010C948701D0
:100090000C9487010C9487010C9487010C94AE0991
:1000A0000C9487010C9487010C9487010C948701B0
:1000B0000C9487010C9487010C9487010C948701A0
:1000C0000C9487010C9487010C9487010C94870190
:1000D0000C9487010C9487010C9487010C94870180
:1000E0000C9487010C94EC030C94D20A0C94DC0160
:1000F0000C94DF010C94B9010C949F020C947106CE
:100100000C9405020C949D020C94E9010C940F02CE
:100110000C94EB030C945E040C9482030C94EF0299
:100120000C94CC020C94D8010C94CE070C94E501ED
:100130000C9462060C940B020C94430D0C944A0828
:100140000C94EF010C94FB050C9484060C948B0624
:100150000C94DB020C94BE010C94D3030C94F301B9
:100160000C94FD020C94B8060C94D0010C94350349
:100170000C94F7010C9448040C94FD010C949E021D
:100180000C94D4010C9401020000210024002700EB
:100190002A002D0030003300010100000401070196
:1001A0000A0100000A0B02090C0D0E0807030401E6
:1001B000000000000000000000000000000000003F
:1001C000000000000000000000000000000012110C
:1001D000100000000000000000000000000000000F
:1001E00000000000000000000000200023002600A6
:1001F00029002C002F00320000010000030106013D
:10020000090100002200250028002B002E003100EB
:10021000340002010000050108010B010505050578
:10022000070508080808020202020A0A080804046E
:10023000040401010101010101010303030303039C
:100240000303040707070C0C0C0C0C0C0C0C02022B
:10025000020206060606060606060B0B0B0B0B0B28
:100260000B0B0102102020080810204010204080B5
:10027000020102010804020101020408102040806A
:1002800080402010080402018004020180402010F8
:100290000804020108040201010204081020408041
:1002A0000102040810204080D20A430D11241FBE11
:1002B000CFEFD1E2DEBFCDBF00E00CBF12E0A0E087
:1002C000B2E0E4E7FBE100E00BBF02C007900D9253
:1002D000A238B107D9F724E0A2E8B2E001C01D922C
:1002E000AD37B207E1F711E0C5E5D1E000E006C0A7
:1002F00021970109802FFE010E947E0DC435D10790
:1003000080E00807A9F70E94B10B0C94A80D0C948B
:100310000000282F30E0F901EE55FE4F9491F901CD
:10032000EE59FD4F4491245E3D4FF9012491222363
:1003300009F435C0992311F191509231F8F4E92F65
:10034000F0E08827E955FE4F8F4F0C947E0DD801C1
:10035000DC01B901D001D401BE01DF01E501E901F1
:10036000EF01F301F701FD010102BE0105020B02DD
:100370000F02809180008F7780938000E22FF0E061
:10038000EE0FFF1FEE5FFD4FA591B4918FB7F8946C
:10039000EC91611148C040954E234C938FBF089556
:1003A000809180008F7DE8CF80918000877FE4CFAF
:1003B00084B58F7784BDE2CF84B58F7DFBCF8091EC
:1003C000B0008F778093B000D9CF8091B0008F7D3F
:1003D000F9CF809190008F7780939000CFCF80915C
:1003E00090008F7DF9CF80919000877FF5CF80912D
:1003F000A0008F778093A000C1CF8091A0008F7D57
:10040000F9CF8091A000877FF5CF809120018F7771
:1004100080932001B3CF809120018F7DF9CF80910F
:100420002001877FF5CF4E2BB8CFCF93DF9390E09D
:10043000FC01EE59FD4F2491845E9D4FFC01849197
:100440008823D1F090E0880F991FFC01E857FE4FF8
:10045000A591B491FC01EE5FFD4FC591D49161115E
:100460000EC09FB7F8948C91E22FE0958E238C9369
:100470002881E223E8839FBFDF91CF9108958FB752
:10048000F894EC91E22BEC938FBFF6CF3FB7F89442
:100490008091810390918203A0918303B0918403A2
:1004A00026B5A89B05C02F3F19F00196A11DB11DCF
:1004B0003FBFBA2FA92F982F8827BC01CD01620F0B
:1004C000711D811D911D42E0660F771F881F991FC6
:1004D0004A95D1F708958F929F92AF92BF92CF9293
:1004E000DF92EF92FF924B015C010E9446026B018A
:1004F0007C010E9446026C197D098E099F09683EA5
:10050000734081059105A8F321E0821A9108A108A2
:10051000B10888EEC80E83E0D81EE11CF11C8114DE
:100520009104A104B10429F7FF90EF90DF90CF90E0
:10053000BF90AF909F908F90089508950895AF92C7
:10054000BF92CF92DF92EF92FF920F931F93CF93C0
:10055000DF936C017B018B01040F151FEB015E0122
:10056000AE18BF08C017D10759F06991D601ED91B7
:10057000FC910190F081E02DC6011995892B79F746
:10058000C501DF91CF911F910F91FF90EF90DF9008
:10059000CF90BF90AF900895FC01538D448D252FCF
:1005A00030E0842F90E0821B930B541710F0CF960D
:1005B000089501970895FC01918D828D981761F03F
:1005C000A28DAE0FBF2FB11D5D968C91928D9F5F56
:1005D0009F73928F90E008958FEF9FEF0895FC0135
:1005E000918D828D981731F0828DE80FF11D858DE8
:1005F00090E008958FEF9FEF0895FC01918D228D7B
:10060000892F90E0805C9F4F821B91098F739927FF
:10061000089589EA93E00E94FD0221E0892B09F404
:1006200020E0822F0895FC01A48DA80FB92FB11DE1
:10063000A35ABF4F2C91848D90E001968F73992718
:10064000848FA689B7892C93A089B1898C918370F6
:1006500080648C93938D848D981306C00288F389EF
:10066000E02D80818F7D80830895EF92FF920F931C
:100670001F93CF93DF93EC0181E0888F9B8D8C8D4E
:1006800098131AC0E889F989808185FF15C09FB742
:10069000F894EE89FF896083E889F9898081837005
:1006A000806480839FBF81E090E0DF91CF911F91B4
:1006B0000F91FF90EF900895F62E0B8D10E00F5FD5
:1006C0001F4F0F731127E02E8C8D8E110CC00FB6AB
:1006D00007FCFACFE889F989808185FFF5CFCE0143
:1006E0000E941303F1CFEB8DEC0FFD2FF11DE35AA8
:1006F000FF4FF0829FB7F8940B8FEA89FB898081C6
:100700008062CFCFCF93DF93EC01888D8823B9F03F
:10071000AA89BB89E889F9898C9185FD03C080810C
:1007200086FD0DC00FB607FCF7CF8C9185FFF2CF89
:10073000808185FFEDCFCE010E941303E9CFDF91C9
:10074000CF91089580E090E0892B29F00E94090361
:1007500081110E94000080E090E0892B49F080E048
:1007600090E0892B29F00E94000081110E94000076
:1007700080E090E0892B49F080E090E0892B29F01F
:100780000E94000081110E94000080E090E0892B0F
:1007900049F080E090E0892B29F00E94000081114F
:1007A0000C94000008952091760330917703281768
:1007B000390771F49091750380917403981741F093
:1007C000E0917503F0E0EC5CFC4F808190E00895CF
:1007D0008FEF9FEF08950895EF92FF920F931F936D
:1007E000CF93DF93DC015C96ED90FC905D97E11474
:1007F000F10479F481E090E013969C938E93129724
:1008000090E080E0DF91CF911F910F91FF90EF90EA
:1008100008955196ED91FC91529750968C91509776
:10082000982F90950FB75E962C915E97122F1270AD
:1008300021FD6095F8942081112319F1282B208344
:10084000E7012197F1F728E0462F50E0308160FF63
:100850001AC0382B3083E7012197F1F7BA0175955B
:100860006795215089F7112381F080818923808346
:100870000FBF5C968D919C910197F1F781E090E01C
:10088000C1CF2923DCCF3923E5CF9081892BEFCF4E
:1008900020917603309177032817390761F480910E
:1008A00074032091750390E0805C9F4F821B910937
:1008B0008F739927089590E080E008952091760342
:1008C0003091770328173907B9F490917503809117
:1008D0007403981789F0E0917503F0E0EC5CFC4F2D
:1008E00080812091750330E02F5F3F4F2F733327B6
:1008F0002093750390E008958FEF9FEF08956F9216
:100900007F928F929F92AF92BF92CF92DF92EF929F
:10091000FF920F931F93CF93DF933B018C01D0E0A5
:10092000C0E06A01F12CE12C8FB7F8948090A50308
:100930009090A603A090A703B090A8038FBF82E574
:1009400094E00E945E0497FF24C02FB7F894809132
:10095000A5039091A603A091A703B091A8032FBF70
:1009600088199909AA09BB098C159D05AE05BF0513
:1009700030F3CE01DF91CF911F910F91FF90EF9057
:10098000DF90CF90BF90AF909F908F907F906F90AF
:100990000895F80181938F0121966C167D0621F64A
:1009A000E8CFCF93DF93EC01AC0162E070E085E823
:1009B00093E00E947F040297E9F4809185038A3ACC
:1009C000F1F4609186038DEF9FEF6230A8F070E044
:1009D000AE0187E893E00E947F048091860390E057
:1009E000FC01EA57FC4F208102962A3029F08CEF57
:1009F0009FEF02C08FEF9FEFDF91CF9108958EEFB1
:100A00009FEFFACF0F931F93CF93DF93D82F8B01D4
:100A1000C42F82E594E00E944804892B29F082E5E6
:100A200094E00E945E04F5CF6AEA82E594E00E94B9
:100A3000EC0362E06C0F82E594E00E94EC036D2F02
:100A400082E594E00E94EC034C2F50E0B80182E56F
:100A500094E00E949F026AE082E594E0DF91CF91EA
:100A60001F910F910C94EC03CF93DF93EC019A014B
:100A7000AB011B8E1A8E198E188E1F8A1E8A60E09B
:100A800079E08DE390E00E945F0DC90103979D8F8F
:100A90008C8F8C8596EF980F943048F06EEC680F31
:100AA000643028F062EC680F683008F061C0B9016A
:100AB00076956795635171097F8B6E8BB90165508F
:100AC0007109798F688FB901660F771F260F371F5D
:100AD00036952795369527952C5031093B8F2A8FCF
:100AE000943050F02EEC280F243030F022EC280FF8
:100AF000F0E0E0E0283010F4E8E6F0E02081943007
:100B000028F032EC380F383008F45AC031E0232B8B
:100B1000943048F09EEC980F943028F08E53F0E01B
:100B2000E0E0883010F4E8E6F0E020832C8536EF32
:100B3000320F343008F446C08EEC820F843008F453
:100B400041C082EC820F883008F43FC090E080E022
:100B50009C8B8B8B3430E0F52650330B81E001C049
:100B6000880F2A95EAF78D8B8C8D9D8D0197F1F773
:100B70008A8D9B8D892B09F1E0917603F0917703A3
:100B8000CE17DF07D1F0309739F0A389B4899C9153
:100B90008589809589238C938E8D8E7F8E8F109280
:100BA000740310927503D0937703C0937603EB8997
:100BB000FC8980819D89892B8083DF91CF91089565
:100BC00034E0A5CF8BE690E0C3CF8DE690E0C0CFB8
:100BD00088E0223341F284E0233329F282E0243397
:100BE00009F4C1CF82EC820F883018F42E53330BF6
:100BF000B5CF81E0B8CF08952091C302260F3327E7
:100C0000331F21323105ECF420910C03FC0190E0FC
:100C100080E0243069F082E00895A091C302219120
:100C2000AC014D555D4FA40FB52FB11D2C9301960E
:100C3000861798F38091C302680F6093C30280E027
:100C4000089581E0089510920C0381E080930B03D6
:100C50001092E60261E084E10E94890161E085E191
:100C60000E948901E9EBF0E080818E7F80838081A2
:100C70008D7F808388E48093B80085E48093BC00F6
:100C80000895CF93DF9391E09093A2028823B9F067
:100C9000C091B800D091BA008091BC008A7B80934B
:100CA000BC0060E084E10E94890160E085E10E946F
:100CB00089010E942306D093BA00C093B800DF9147
:100CC000CF910895E0917F0380917E03E81730F47F
:100CD000F0E0EE57FD4F808190E008958FEF9FEF99
:100CE000089590917F0380917E032FEF3FEF981737
:100CF00048F4E92FF0E0EE57FD4F208130E09F5F90
:100D000090937F03C901089580917E0390917F03A2
:100D1000891B990B0895CF92DF92EF92FF920F9368
:100D20001F93CF93DF937C01CB018A0120911203A3
:100D3000222389F0EB016B01C40ED51ECC15DD0515
:100D400069F06991D701ED91FC910190F081E02D5E
:100D5000C7011995F3CF642F0E94FC05C801DF91EC
:100D6000CF911F910F91FF90EF90DF90CF9008955A
:100D7000CF93DF931F92CDB7DEB769832091120323
:100D80002223F9F020917C03203258F021E030E05A
:100D9000FC013383228390E080E00F90DF91CF91BC
:100DA000089580917D03E82FF0E0ED5EFC4F99817E
:100DB00090838F5F80937D0380937C0381E090E03C
:100DC000ECCF61E0CE0101960E94FC05F7CFCF92F7
:100DD000DF92EF92FF920F931F93CF93DF93FC016B
:100DE000C48121E020931203C093330310927D034A
:100DF00010927C038385682B86E494E00E94B806F9
:100E0000D0917C03D13208F092C00E9446026B015F
:100E10007C0180910C03811165C082E080930C03FA
:100E200081E080930B038FEF80930A0310920903F4
:100E3000D0930803A3E1B3E0E8EEF2E080E0D8133A
:100E400085C01092E7028091E702CC0FC82BC093B7
:100E5000E7028091E602813009F07CC01092E60240
:100E60000E9446026B017C018091E7028093BB00E7
:100E700080910E0390910F03A0911003B091110384
:100E8000892B8A2B8B2B99F00E94460200910E032E
:100E900010910F0320911003309111036C197D09FB
:100EA0008E099F090617170728073907E0F1809177
:100EB000BC0083FDD9CF85EC8093BC000E94460224
:100EC0006B017C0180910C03823009F445C0809154
:100ED0000A038F3F61F180910A03803241F18091D2
:100EE0000A0325C080910E0390910F03A091100377
:100EF000B0911103892B8A2B8B2B09F48ACF0E9486
:100F0000460200910E0310910F03209110033091BF
:100F100011036C197D098E099F0906171707280709
:100F2000390708F076CF80910D030E944106109298
:100F30007D0310927C0310921203DF91CF911F91D9
:100F40000F91FF90EF90DF90CF9008959D91919336
:100F50008F5F75CF85EEB0CF80910E0390910F0318
:100F6000A0911003B0911103892B8A2B8B2B09F4CC
:100F7000A9CF0E94460200910E0310910F03209109
:100F80001003309111036C197D098E099F09061712
:100F900017072807390708F095CFC5CF90E080E004
:100FA0000895462FBC0180E30E94020588EE93E07D
:100FB0000E94D104882361F081E090E020918703B2
:100FC000203311F490E080E0919581959109089586
:100FD0008FEF9FEF08950F931F93CF938C01C62F30
:100FE0000E94E7066C2F6460C8010E94E7066C2F20
:100FF0006B7FC8010E94E70683EC90E00197F1F750
:10100000CF911F910F9108950F931F93CF93DF936B
:101010008C01D62FC42F607F642B0E94EB0780E1E8
:10102000D89FB00111246C2BC801DF91CF911F9183
:101030000F910C94EB07CF93DF9300D000D01F9259
:101040001F92CDB7DEB798E0E2E0F2E0DE01119644
:1010500001900D929A95E1F790917904981708F410
:101060008FEF90E0880F991F21E030E02C0F3D1F9B
:10107000820F931FFC016081606840E081E794E08B
:1010800028960FB6F894DEBF0FBECDBFDF91CF918B
:101090000C94040841E00E94040881E090E0089567
:1010A00085ED8093BC0080910E0390910F03A09179
:1010B0001003B09111030796A11DB11D23E0B69551
:1010C000A795979587952A95D1F72091BC0024FD87
:1010D00003C010920C03089540910E0350910F032A
:1010E0006091100370911103452B462B472B69F338
:1010F0000097A105B10541F02AE22A95F1F700C059
:101100000197A109B109E1CF80910D030C9441062B
:101110001F920F920FB60F9211242F933F938F932C
:101120009F93AF93BF938091A5039091A603A09145
:10113000A703B091A8033091800323E0230F2D373C
:1011400058F50196A11DB11D209380038093A5033E
:101150009093A603A093A703B093A8038091810363
:1011600090918203A0918303B09184030196A11D05
:10117000B11D8093810390938203A0938303B09366
:101180008403BF91AF919F918F913F912F910F90C9
:101190000FBE0F901F90189526E8230F0296A11DF1
:1011A000B11DD2CF1F920F920FB60F9211240BB622
:1011B0000F922F933F934F935F936F937F938F93F0
:1011C0009F93AF93BF93EF93FF9389EA93E00E94BD
:1011D0001303FF91EF91BF91AF919F918F917F91F9
:1011E0006F915F914F913F912F910F900BBE0F9098
:1011F0000FBE0F901F9018951F920F920FB60F926F
:1012000011240BB60F922F938F939F93EF93FF931D
:10121000E091B903F091BA038081E091BF03F091AE
:10122000C00382FD1DC090818091C2038F5F8F73C8
:101230002091C303821741F0E091C203F0E0E7552B
:10124000FC4F958F8093C203FF91EF919F918F91F7
:101250002F910F900BBE0F900FBE0F901F901895FF
:101260008081F2CF1F920F920FB60F9211240BB60E
:101270000F922F933F934F935F936F937F938F932F
:101280009F93AF93BF93EF93FF93E0917603F09119
:101290007703309749F0A685B7858585968D91FFB0
:1012A00016C09C918923B1F4FF91EF91BF91AF914A
:1012B0009F918F917F916F915F914F913F912F916E
:1012C0000F900BBE0F900FBE0F901F9018959C9122
:1012D000892351F7A389B4899C91858980958923B5
:1012E0008C93868997890197F1F7608D718DA6851A
:1012F000B785558538E020E0CB010197F1F7822FC3
:1013000090E095958795282F4C91452309F020680A
:10131000315091F7868D81FD20958091740390E086
:1013200001968F73992730917503381799F0A09122
:101330007403B0E0AC5CBC4F2C9380937403828D3B
:10134000938D0197F1F7A389B4898C919589892BA5
:101350008C93AACF868D8160868FF1CF1F920F92DA
:101360000FB60F9211240BB60F922F933F934F930A
:101370005F936F937F938F939F93AF93BF93EF93FD
:10138000FF938091B900887F803609F44DC008F042
:1013900040C0883209F4A9C028F5803109F49DC005
:1013A000C8F4882309F4FBC0883009F496C0FF9183
:1013B000EF91BF91AF919F918F917F916F915F91CD
:1013C0004F913F912F910F900BBE0F900FBE0F903A
:1013D0001F901895883109F488C0803241F78093B6
:1013E0000A0314C0803409F49DC040F48033B9F37B
:1013F0008833E9F680930A0385ECB0C0803509F4A0
:1014000085C0883509F496C0883489F60E94500852
:10141000CECF883909F48CC038F5883729F050F4DC
:10142000883611F0803719F683E080930C03109210
:10143000E50257C0883809F47BC0803919F080383C
:1014400009F0B5CF8091E502803208F071C0E091DB
:10145000E50281E08E0F8093E5028091BB00F0E011
:10146000EB53FD4F80833DC0803B39F0E0F4803A80
:1014700009F479C0883A09F09ACF84E080930C038C
:101480001092C4021092C302E0917A03F0917B03A0
:1014900019958091C30281110FC081E08093C3022E
:1014A0001092A30209C0803C09F4A6CF883C09F43D
:1014B000A3CF883B09F07BCFE091C40281E08E0F7F
:1014C0008093C402F0E0ED55FD4F80818093BB0016
:1014D0009091C4028091C30229C08091E702809359
:1014E000BB0085EC8093BC0062CF90910903809192
:1014F0000803981758F5E091090381E08E0F809357
:101500000903F0E0E851FD4F8081E9CFE091090344
:1015100081E08E0F809309038091BB00F0E0E851D9
:10152000FD4F808390910903809108039817C8F2BA
:1015300085E8D8CFE091090381E08E0F80930903FD
:101540008091BB00F0E0E851FD4F808380910B0358
:1015500081115CCF81E08093E60284EA8093BC0035
:1015600010920C0324CF85EC8093BC0010920C03E6
:101570008091E502803230F4E091E502F0E0EB5337
:10158000FD4F10826091E50270E0E0917803F091E8
:10159000790385EC92E019951092E50208CF10923C
:1015A0000A0334CF1092AC031092AB0388EE93E0A1
:1015B000A0E0B0E08093AD039093AE03A093AF039F
:1015C000B093B0032EE032E03093AA032093A90336
:1015D00025EC30E03093B6032093B50324EC30E0E3
:1015E0003093B8032093B70320EC30E03093BA0374
:1015F0002093B90321EC30E03093BC032093BB036C
:1016000022EC30E03093BE032093BD0326EC30E0A3
:101610003093C0032093BF031092C2031092C30300
:101620001092C4031092C50310924904109248040A
:1016300080934A0490934B04A0934C04B0934D04C0
:1016400020E232E030934704209346041092740461
:101650001092730424E432E03093720420937104F6
:1016600027E22093750420E120937A0422E020935E
:101670007B0410927C0410925504109254048093C1
:10168000560490935704A0935804B093590482E3EE
:1016900092E0909353048093520410926904109244
:1016A000680410926B0410926A0410926D041092F8
:1016B0006C0410926F0410926E04609170046E7F3F
:1016C0006D7F609370046695617081E068278BE0A0
:1016D0000E94890161E08BE00E941502EDE6F2E0D4
:1016E000E491E0936204E7E2F2E0E491F0E0EE0FCF
:1016F000FF1FEE5FFD4F859194919093640480935A
:10170000630460E08AE00E9415028091700481FD0C
:1017100004C061E08AE00E9489018AE080935E044F
:10172000ECE6F2E0E491E0935F04E6E2F2E0E491BB
:10173000F0E0EE0FFF1FE851FE4F859194919093DA
:1017400061048093600482E392E090935304809359
:10175000520440E056E960E070E082E594E00C94C9
:101760003405CF93DF9300D000D01F92CDB7DEB702
:10177000789484B5826084BD84B5816084BD85B56C
:10178000826085BD85B5816085BD80916E00816078
:1017900080936E001092810080918100826080931E
:1017A0008100809181008160809381008091800020
:1017B0008160809380008091B10084608093B1004B
:1017C0008091B00081608093B00080919100826030
:1017D000809391008091910081608093910080912D
:1017E00090008160809390008091A100826080933E
:1017F000A1008091A10081608093A1008091A00050
:1018000081608093A00080912101826080932101FA
:10181000809121018160809321018091200181606C
:101820008093200180917A00846080937A00809177
:101830007A00826080937A0080917A008160809340
:101840007A0080917A00806880937A001092C100BB
:1018500010927F0310927E0310927D0310927C03FE
:101860000E9423068DE992E090937B0380937A0394
:101870008EE992E090937903809378031092760436
:1018800080917B04823018F098E0909376048093E6
:10189000790462E370E080E090E00E946B02609166
:1018A0007C0481E794E00E94E70668EE73E080E044
:1018B00090E00E946B0260E381E794E00E94EB07F6
:1018C0000BE416E4C8010197F1F760E381E794E0C7
:1018D0000E94EB07C8010197F1F760E381E794E00C
:1018E0000E94EB0783E592E00197F1F760E281E760
:1018F00094E00E94EB0760917604606240E081E72B
:1019000094E00E94040884E08093770440E06CE057
:1019100081E794E00E94040840E061E081E794E000
:101920000E9404080BE31FE1C8010197F1F782E070
:101930008093780440E066E081E794E00E94040828
:1019400040E062E081E794E00E940408C80101974A
:10195000F1F788E080937C0460E081E794E00E94E6
:10196000E70680E00E941B0840E150E06CE472E072
:1019700081E794E00E949F0261E086E10E941502E7
:1019800061E087E10E94150261E088E10E94150292
:1019900061E089E10E94150261E08AE10E9415027E
:1019A00061E08BE10E94150261E08BE00E9415026C
:1019B00060E08BE00E94890140E855E260E070E061
:1019C00082E594E00E9434054FE050E06DE572E05E
:1019D00081E794E00E949F0240E070E060E081E3D4
:1019E0000E94020588EE93E00E94D10461E081E04C
:1019F00092E00E94D10762E080E092E00E94D1076D
:101A000082E390E00E94D104209187032D3041F0C1
:101A10008A818130E1F0823051F10E94A203F0CF3F
:101A200018161906D4F7209186032350330BA9E822
:101A3000B3E0FE01319690E080E08217930724F432
:101A40004D9141930196F9CF892B11F7E6CF61E0D3
:101A50008BE00E94890181E00E941B0849E050E070
:101A60006DE672E081E794E00E949F02D6CF60E0CD
:101A70008BE00E94890181E00E941B0849E050E050
:101A800067E772E0EFCF82E392E090935304809394
:101A9000520480917603909177038255944071F4BB
:101AA000E0916504F09166049081809167048095CF
:101AB0008923808310927703109276030895052E70
:101AC00097FB1EF400940E94760D57FD07D00E94EC
:101AD000860D07FC03D04EF40C94760D509540957E
:101AE000309521953F4F4F4F5F4F089590958095CA
:101AF000709561957F4F8F4F9F4F0895EE0FFF1F99
:101B0000881F8BBF0790F691E02D1994A1E21A2E41
:101B1000AA1BBB1BFD010DC0AA1FBB1FEE1FFF1F91
:101B2000A217B307E407F50720F0A21BB30BE40BE1
:101B3000F50B661F771F881F991F1A9469F7609528
:101B40007095809590959B01AC01BD01CF010895E2
:101B500011E0C5E5D1E000E006C0802FFE010E9443
:101B60007E0D2196011DC635D10780E00807A9F733
:041B7000F894FFCF17
:101B7400020100004000140054000000000035037E
:101B84009F02CC028203FD02DB02EF020000000090
:101B9400B8068B06CE07EB038406710662060000C6
:101BA4000000EC039F02CE07EB0348045E04D3035A
:101BB400000000004A089F02CE07FB05434E432065
:101BC4004C617365722043757474657200565220BB
:101BD4004D6F64756C65205265616479004C617366
:101BE4006572204F4E20004C61736572204F46464B
:021BF4000000EF
:00000001FF
