:100000000C943F010C9470010C9470010C947001DD
:100010000C9470010C9470010C9470010C9470019C
:100020000C9470010C9470010C9470010C9470018C
:100030000C9470010C9470010C9470010C9470017C
:100040000C9470010C9470010C9470010C9470016C
:100050000C9470010C9470010C9470010C947D0749
:100060000C9470010C9470010C9470010C9470014C
:100070000C9470010C9470010C9470010C9470013C
:100080000C9470010C9470010C9470010C9470012C
:100090000C9470010C9470010C9470010C94C707BF
:1000A0000C9470010C9470010C9470010C9470010C
:1000B0000C9470010C9470010C9470010C947001FC
:1000C0000C9470010C9470010C9470010C947001EC
:1000D0000C9470010C9470010C9470010C947001DC
:1000E0000C9470010C94C3010C9496010C94D501EE
:1000F0000C94A2010C94BA020C9478030C94BB04E7
:100100000C94E7020C94CB010C94A5010C94D00143
:100110000C949A010C9471030C94AF010C94AB01F4
:100120000C94EB080C945E030C9490010C949106D3
:100130000C944E030C94C7010C94BD010C94B902AD
:100140000C949E010C944F030C94A5030C94D101C4
:100150000C94B5010C94B9010C94B8020000210074
:10016000240027002A002D00300033000101000088
:10017000040107010A0100002200250028002B00CD
:100180002E003100340002010000050108010B01BE
:10019000000020002300260029002C002F00320040
:1001A0000001000003010601090105050505070519
:1001B00008080808020202020A0A080804040404E3
:1001C000010101010101010103030303030303030F
:1001D000040707070C0C0C0C0C0C0C0C020202029E
:1001E00006060606060606060B0B0B0B0B0B0B0B87
:1001F0000102102020080810204010204080020139
:10020000020108040201010204081020408080401D
:10021000201008040201800402018040201008041C
:1002200002010804020101020408102040800102BA
:1002300004081020408000000A0B02090C0D0E0873
:10024000070304010000000000000000000000009F
:10025000000000000000000000000000000000009E
:10026000000012111000000000000000000000005B
:10027000000000000000000000000000EB08112456
:100280001FBECFEFD1E2DEBFCDBF00E00CBF23E049
:10029000A8E7B2E001C01D92A136B207E1F712E073
:1002A000A0E0B2E0EAE7FBE100E00BBF02C007908C
:1002B0000D92A837B107D9F711E0CFE3D1E000E004
:1002C00006C021970109802FFE010E94940BCE33B6
:1002D000D10780E00807A9F70E940B090C94BB0D19
:1002E0000C9400008150823108F05AC0E82FF0E0F1
:1002F0008827E258FE4F8F4F0C94940B9E01A20169
:10030000900196019A01D001A501AB01AF01B501A1
:10031000B901BD01C301C701D001CB01D101D50194
:10032000809180008F778093800008958091800075
:100330008F7DF9CF80918000877FF5CF84B58F774F
:1003400084BD089584B58F7DFBCF8091B0008F77F9
:100350008093B00008958091B0008F7DF9CF809197
:1003600090008F77809390000895809190008F7D0A
:10037000F9CF80919000877FF5CF8091A0008F7793
:100380008093A00008958091A0008F7DF9CF809187
:10039000A000877FF5CF809120018F778093200187
:1003A0000895809120018F7DF9CF80912001877F72
:1003B000F5CFCF93DF93282F30E0F901EA5CFD4FB2
:1003C0008491F901E051FE4FD491F901E655FE4FB9
:1003D000C491CC23A1F081110E947201EC2FF0E0B6
:1003E000EE0FFF1FE057FE4FA591B491EC91ED2366
:1003F00081E090E009F480E0DF91CF91089580E002
:1004000090E0FACF1F93CF93DF93282F30E0F901CC
:10041000EA5CFD4F8491F901E051FE4FD491F9015E
:10042000E655FE4FC491CC23A9F0162F81110E94EE
:100430007201EC2FF0E0EE0FFF1FEA58FE4FA5917E
:10044000B4918FB7F894EC91111108C0D095DE23C8
:10045000DC938FBFDF91CF911F910895DE2BF8CFF2
:10046000CF93DF9390E0FC01E051FE4F249186553D
:100470009E4FFC0184918823D1F090E0880F991F52
:10048000FC01E45AFE4FA591B491FC01EA58FE4FDD
:10049000C591D491623071F49FB7F8943C91822F4A
:1004A000809583238C93E8812E2B28839FBFDF9137
:1004B000CF9108958FB7F894EC912E2B2C938FBF8A
:1004C000F6CF3FB7F8948091410390914203A091F9
:1004D0004303B091440326B5A89B05C02F3F19F0F4
:1004E0000196A11DB11D3FBFBA2FA92F982F8827B4
:1004F000BC01CD01620F711D811D911D42E0660F8F
:10050000771F881F991F4A95D1F708958F929F9260
:10051000AF92BF92CF92DF92EF92FF924B015C01BC
:100520000E9461026B017C010E9461026C197D09CD
:100530008E099F09683E734081059105A8F321E06B
:10054000821A9108A108B10888EEC80E83E0D81E6F
:10055000E11CF11C81149104A104B10429F7FF905E
:10056000EF90DF90CF90BF90AF909F908F900895C5
:1005700008950895AF92BF92CF92DF92EF92FF92CB
:100580000F931F93CF93DF936C017B018B01040FBB
:10059000151FEB015E01AE18BF08C017D10759F057
:1005A0006991D601ED91FC910190F081E02DC60199
:1005B0001995892B79F7C501DF91CF911F910F9183
:1005C000FF90EF90DF90CF90BF90AF900895089587
:1005D0002091BF02260F3327331F21323105ECF45F
:1005E00020910803FC0190E080E0243069F082E073
:1005F0000895A091BF022191AC0141565D4FA40F17
:10060000B52FB11D2C930196861798F38091BF02E8
:10061000680F6093BF0280E0089581E00895109212
:10062000080381E0809307031092E20261E084E115
:100630000E94020261E085E10E940202E9EBF0E023
:1006400080818E7F808380818D7F808388E480930A
:10065000B80085E48093BC000895CF93DF9391E0C8
:1006600090939E028823B9F0C091B800D091BA004F
:100670008091BC008A7B8093BC0060E084E10E9492
:10068000020260E085E10E9402020E940F03D09303
:10069000BA00C093B800DF91CF9108950895E0911A
:1006A000370380913603E81730F4F0E0E258FD4F4D
:1006B000808190E008958FEF9FEF08959091370328
:1006C000809136032FEF3FEF981748F4E92FF0E0C1
:1006D000E258FD4F208130E09F5F90933703C901BE
:1006E00008958091360390913703891B990B0895E3
:1006F000CF92DF92EF92FF920F931F93CF93DF93EE
:100700007C01CB018A0120910E03222389F0EB01A9
:100710006B01C40ED51ECC15DD0569F06991D701BA
:10072000ED91FC910190F081E02DC7011995F3CF77
:10073000642F0E94E802C801DF91CF911F910F91B1
:10074000FF90EF90DF90CF900895CF93DF931F92AB
:10075000CDB7DEB7698320910E032223F9F02091F3
:100760003403203258F021E030E0FC01338322834F
:1007700090E080E00F90DF91CF9108958091350354
:10078000E82FF0E0E15FFC4F998190838F5F8093C9
:1007900035038093340381E090E0ECCF61E0CE013B
:1007A00001960E94E802F7CFCF92DF92EF92FF927C
:1007B0000F931F93CF93DF93FC01C48121E020931B
:1007C0000E03C0932F0310923503109234038385D8
:1007D000682B85E493E00E94A503D0913403D132C5
:1007E00008F092C00E9461026B017C0180910803B5
:1007F000811165C082E08093080381E08093070344
:100800008FEF8093060310920503D0930403AFE0AB
:10081000B3E0E4EEF2E080E0D81385C01092E3028A
:100820008091E302CC0FC82BC093E3028091E202D7
:10083000813009F07CC01092E2020E9461026B01DB
:100840007C018091E3028093BB0080910A03909128
:100850000B03A0910C03B0910D03892B8A2B8B2BDA
:1008600099F00E94610200910A0310910B032091FC
:100870000C0330910D036C197D098E099F09061731
:10088000170728073907E0F18091BC0083FDD9CF15
:1008900085EC8093BC000E9461026B017C01809119
:1008A0000803823009F445C0809106038F3F61F14F
:1008B00080910603803241F18091060325C080912A
:1008C0000A0390910B03A0910C03B0910D03892BA7
:1008D0008A2B8B2B09F48ACF0E94610200910A03B4
:1008E00010910B0320910C0330910D036C197D09BD
:1008F0008E099F09061717072807390708F076CFD2
:10090000809109030E942D03109235031092340345
:1009100010920E03DF91CF911F910F91FF90EF90F6
:10092000DF90CF9008959D9191938F5F75CF85EE65
:10093000B0CF80910A0390910B03A0910C03B0916A
:100940000D03892B8A2B8B2B09F4A9CF0E946102FE
:1009500000910A0310910B0320910C0330910D03B9
:100960006C197D098E099F09061717072807390793
:1009700008F095CFC5CF90E080E008951F93CF9306
:10098000DF93182F862F61E04130510509F060E0B8
:100990000E94020261E0812F0E940202CBE7DCE0AC
:1009A000CE010197F1F760E0812F0E9402022197AA
:1009B000F1F7DF91CF911F9108952FB7F8948091AF
:1009C0003D0390913E03A0913F03B09140032FBFA0
:1009D0008093380390933903A0933A03B0933B0379
:1009E00008950F931F93CF93C82F0E94D9018C01B4
:1009F00062E370E080E090E00E9486028C2F0E940B
:100A0000D901AC0121E030E0012B11F430E020E00D
:100A100081E02417350709F080E0CF911F910F91F5
:100A20000895FC0101900020E9F73197AF01481BC0
:100A3000590BBC0181E593E00C94BA020F931F930C
:100A4000CF93DF93EC0188819981009759F02A8137
:100A50003B812617370730F081E0DF91CF911F915E
:100A60000F9108958B016F5F7F4F0E94C10C00971B
:100A700059F0998388831B830A832C813D81232B22
:100A800059F7FC011082E8CF80E0E7CFEF92FF92A8
:100A90000F931F93CF93DF936115710541F480E0AD
:100AA000DF91CF911F910F91FF90EF900895411525
:100AB0005105B1F07B01EC010C811D81040F151F64
:100AC000B8010E941E05882351F3288139818C8149
:100AD0009D81B701820F931F0E94B40D1D830C836B
:100AE00081E0DECFCF93DF93EC018881998100977D
:100AF00011F00E94380C198218821D821C821B8200
:100B00001A82DF91CF910895CF92DF92EF92FF92F8
:100B10000F931F93CF93DF93CDB7DEB762970FB6D6
:100B2000F894DEBF0FBECDBF8C01CB01F80111825E
:100B3000108213821282158214824AE09E012F5F76
:100B40003F4F6901B9010E945F0BF601019000203F
:100B5000E9F731977F01EC18FD08B701C8010E9441
:100B60001E05811112C0C8010E94720562960FB65F
:100B7000F894DEBF0FBECDBFDF91CF911F910F91D3
:100B8000FF90EF90DF90CF900895F801F582E48216
:100B9000B601808191810E94B40DE8CFCF93DF939D
:100BA000EC01FB0101900020E9F73197AF01461BF2
:100BB000570B0E944605811103C0CE010E947205A9
:100BC000CE01DF91CF910895CF93DF93EC01FB012C
:100BD00044815581608171810E944605811103C065
:100BE000CE010E947205CE01DF91CF910895EF9260
:100BF000FF920F931F93CF93DF93EC017B01198238
:100C000018821B821A821D821C82FB010190002027
:100C1000E9F731978F01061B170BB8010E941E05DB
:100C2000811109C0CE01DF91CF911F910F91FF90EB
:100C3000EF900C9472051D830C83B7018881998114
:100C4000DF91CF911F910F91FF90EF900C94B40D15
:100C5000FC0180819181009711F00C94380C08956B
:100C60000F931F93CF938C01C62F0E94D4036C2F38
:100C70006460C8010E94D4036C2F6B7FC8010E947E
:100C8000D40383EC90E00197F1F7CF911F910F917E
:100C900008950F931F93CF93DF938C01D62FC42F0A
:100CA000607F642B0E94300680E1D89FB001112440
:100CB0006C2BC801DF91CF911F910F910C943006DE
:100CC000CF93DF9300D000D01F921F92CDB7DEB735
:100CD00098E0E6E0F2E0DE01119601900D929A951F
:100CE000E1F790915903961708F46FEF262F30E043
:100CF000220F331F41E050E04C0F5D1F240F351FC2
:100D0000F9016081680F606840E081E593E0289612
:100D10000FB6F894DEBF0FBECDBFDF91CF910C941C
:100D2000490641E00E94490681E090E0089585ED82
:100D30008093BC0080910A0390910B03A0910C0357
:100D4000B0910D030796A11DB11D23E0B695A7959F
:100D5000979587952A95D1F72091BC0024FD03C073
:100D600010920803089540910A0350910B0360917B
:100D70000C0370910D03452B462B472B69F300970D
:100D8000A105B10541F02AE22A95F1F700C00197CB
:100D9000A109B109E1CF809109030C942D03EF92D1
:100DA000FF920F931F93CF93DF93CDB7DEB7689772
:100DB0000FB6F894DEBF0FBECDBF7B01FC012481CE
:100DC0003581232BA9F1008111816CE272E0C80109
:100DD0000E94AB0D892B51F480917C0290917D0291
:100DE0008E0D9F1D90937D0280937C0269E372E0DB
:100DF000C8010E94AB0D892B51F480917A02909129
:100E00007B028E0D9F1D90937B0280937A026BE391
:100E100072E0C8010E94AB0D609178027091790276
:100E2000892B31F46E0D7F1D7093790260937802E7
:100E300061E080E00E946006609178027091790222
:100E4000CE0143960E94840560917A0270917B02E4
:100E5000CE010D960E94840560917C0270917D0206
:100E6000CE0107960E9484056EE272E0CE010196E3
:100E70000E94F705BE01695F7F4FCE0101960E9477
:100E8000E40561E372E00E94CE05BE01635F7F4F1F
:100E90000E94E40565E372E00E94CE05BE016D5E2E
:100EA0007F4F0E94E4056BE672E00E94CE05FC01D4
:100EB000448155816081718181E593E00E94BA028D
:100EC000CE0101960E942806CE0107960E942806B0
:100ED000CE010D960E942806CE0143960E94280658
:100EE00068960FB6F894DEBF0FBECDBFDF91CF91ED
:100EF0001F910F91FF90EF9008951F920F920FB6E0
:100F00000F9211242F933F938F939F93AF93BF938F
:100F100080913D0390913E03A0913F03B091400327
:100F200030913C0323E0230F2D3758F50196A11D86
:100F3000B11D20933C0380933D0390933E03A09307
:100F40003F03B09340038091410390914203A091ED
:100F50004303B09144030196A11DB11D8093410349
:100F600090934203A0934303B0934403BF91AF9186
:100F70009F918F913F912F910F900FBE0F901F90D7
:100F8000189526E8230F0296A11DB11DD2CF1F92FE
:100F90000F920FB60F9211240BB60F922F933F931F
:100FA0004F935F936F937F938F939F93AF93BF9371
:100FB000EF93FF938091B900887F803609F44DC08C
:100FC00008F040C0883209F4A9C028F5803109F43E
:100FD0009DC0C8F4882309F4FBC0883009F496C08A
:100FE000FF91EF91BF91AF919F918F917F916F9101
:100FF0005F914F913F912F910F900BBE0F900FBEBD
:101000000F901F901895883109F488C0803241F7FD
:101010008093060314C0803409F49DC040F48033EB
:10102000B9F38833E9F68093060385ECB0C08035C8
:1010300009F485C0883509F496C0883489F60E9481
:101040009706CECF883909F48CC038F5883729F057
:1010500050F4883611F0803719F683E08093080346
:101060001092E10257C0883809F47BC0803919F02A
:10107000803809F0B5CF8091E102803208F071C06C
:10108000E091E10281E08E0F8093E1028091BB004C
:10109000F0E0EF53FD4F80833DC0803B39F0E0F43A
:1010A000803A09F479C0883A09F09ACF84E08093B5
:1010B00008031092C0021092BF02E0913203F09137
:1010C000330319958091BF0281110FC081E0809395
:1010D000BF0210929F0209C0803C09F4A6CF883C51
:1010E00009F4A3CF883B09F07BCFE091C00281E0F7
:1010F0008E0F8093C002F0E0E156FD4F8081809317
:10110000BB009091C0028091BF0229C08091E30290
:101110008093BB0085EC8093BC0062CF9091050367
:1011200080910403981758F5E091050381E08E0F34
:1011300080930503F0E0EC51FD4F8081E9CFE09111
:10114000050381E08E0F809305038091BB00F0E0E2
:10115000EC51FD4F80839091050380910403981713
:10116000C8F285E8D8CFE091050381E08E0F809327
:1011700005038091BB00F0E0EC51FD4F808380912E
:10118000070381115CCF81E08093E20284EA8093BF
:10119000BC001092080324CF85EC8093BC00109211
:1011A00008038091E102803230F4E091E102F0E046
:1011B000EF53FD4F10826091E10270E0E091300347
:1011C000F091310381EC92E019951092E10208CF81
:1011D0001092060334CFE5E4F3E01382128288EE26
:1011E00093E0A0E0B0E084839583A683B78382E197
:1011F00092E091838083E1E5F3E01382128284E23E
:1012000092E09183808387E2848380E1818782E01A
:10121000828713860895CF93DF9300D000D0CDB797
:10122000DEB7789484B5826084BD84B5816084BD66
:1012300085B5826085BD85B5816085BD80916E0074
:10124000816080936E0010928100809181008260A5
:1012500080938100809181008160809381008091E2
:1012600080008160809380008091B10084608093D1
:10127000B1008091B00081608093B00080919100B6
:1012800082608093910080919100816080939100B1
:10129000809190008160809390008091A100826095
:1012A0008093A1008091A10081608093A100809132
:1012B000A00081608093A0008091210182608093D2
:1012C0002101809121018160809321018091200181
:1012D00081608093200180917A00846080937A00FD
:1012E00080917A00826080937A0080917A00816098
:1012F00080937A0080917A00806880937A001092BF
:10130000C1001092370310923603109235031092E9
:1013100034030E940F0388EB92E090933303809391
:10132000320389EB92E09093310380933003109263
:10133000560380915B03823018F098E09093560337
:101340008093590362E370E080E090E00E9486029F
:1013500060915C0381E593E00E94D40368EE73E042
:1013600080E090E00E94860260E381E593E00E94C5
:1013700030060BE416E4C8010197F1F760E381E55C
:1013800093E00E943006C8010197F1F760E381E520
:1013900093E00E94300683E592E00197F1F760E266
:1013A00081E593E00E94300660915603606240E060
:1013B00081E593E00E94490684E08093570340E072
:1013C0006CE081E593E00E94490640E061E081E540
:1013D00093E00E9449060BE31FE1C8010197F1F772
:1013E00082E08093580340E066E081E593E00E944C
:1013F000490640E062E081E593E00E944906C801A9
:101400000197F1F788E080935C0360E081E593E069
:101410000E94D40360E080E00E9460068DE392E0C9
:101420000E94110561E086E10E94300261E087E1DF
:101430000E94300261E088E10E94300261E089E1AF
:101440000E94300261E08AE10E94300261E08BE19B
:101450000E94300261E08BE00E94300260E08BE08D
:101460000E94020262E08CE10E94300262E08DE1A3
:101470000E94300262E08EE10E94300262E08FE161
:101480000E94300262E080E20E94300262E081E26B
:101490000E9430020E94DD0400E010E02FB7F894B3
:1014A00080913D0390913E03A0913F03B091400392
:1014B0002FBF409138035091390360913A037091E6
:1014C0003B03841B950BA60BB70B803E9349A440AE
:1014D000B10560F060E08BE00E94020261E080E014
:1014E0000E9460068EE492E00E9411058CE190E07B
:1014F0000E94F10481111AC041E050E067E170E000
:1015000086E190E00E94BE046CE272E0CE0101969A
:101510000E94F70561E070E0CE0101960E94CF06BF
:10152000CE0101960E9428060E94DD048DE190E024
:101530000E94F10481111AC04FEF5FEF67E170E084
:1015400086E190E00E94BE046CE272E0CE0101965A
:101550000E94F7056FEF7FEFCE0101960E94CF0644
:10156000CE0101960E9428060E94DD048EE190E0E3
:101570000E94F10481111AC041E050E069E170E07D
:1015800088E190E00E94BE0469E372E0CE0101961A
:101590000E94F70561E070E0CE0101960E94CF063F
:1015A000CE0101960E9428060E94DD048FE190E0A2
:1015B0000E94F10481111AC04FEF5FEF69E170E002
:1015C00088E190E00E94BE0469E372E0CE010196DA
:1015D0000E94F7056FEF7FEFCE0101960E94CF06C4
:1015E000CE0101960E9428060E94DD0480E290E070
:1015F0000E94F10481111AC041E050E06BE170E0FB
:101600008AE190E00E94BE046BE372E0CE01019695
:101610000E94F70561E070E0CE0101960E94CF06BE
:10162000CE0101960E9428060E94DD0481E290E02E
:101630000E94F10481111AC04FEF5FEF6BE170E07F
:101640008AE190E00E94BE046BE372E0CE01019655
:101650000E94F7056FEF7FEFCE0101960E94CF0643
:10166000CE0101960E9428060E94DD048BE00E94B4
:10167000D901892BC9F461E08BE00E94020261E08C
:101680008AE00E94600683E692E00E94110564E60B
:1016900070E080E090E00E9486020115110509F4D7
:1016A000FDCE0E940000FACE60E08BE00E940202B4
:1016B00061E08AE00E9460068DE692E0E6CFBB27FB
:1016C0004A3031F4992322F4BDE2909581959F4FE1
:1016D0000C946B0BBB27FB015527AA27880F991F7A
:1016E000AA1FA41710F0A41B83955051B9F7A05D51
:1016F000AA3308F0A95DA193009779F7B111B193CE
:101700001192CB010C94840BDC01FC01672F7191C9
:101710007723E1F7329704C07C916D9370836291D7
:10172000AE17BF07C8F30895EE0FFF1F881F8BBFCA
:101730000790F691E02D19940F931F93CF93DF93A9
:101740008230910510F482E090E0E0915F03F09127
:10175000600330E020E0B0E0A0E0309799F421157C
:10176000310509F44AC0281B390B24303105D8F55E
:101770008A819B816115710589F1FB0193838283C5
:10178000FE0111C040815181028113814817590720
:10179000E0F04817590799F4109761F012960C93EE
:1017A000129713961C933296CF01DF91CF911F9120
:1017B0000F91089500935F0310936003F4CF2115F8
:1017C000310551F04217530738F0A901DB019A01A6
:1017D000BD01DF01F801C1CFEF01F9CF90936003A4
:1017E00080935F03CDCFFE01E20FF31F81939193AE
:1017F0002250310939832883D7CF20915D0330915E
:101800005E03232B41F420910202309103023093B6
:101810005E0320935D0320910002309101022115A7
:10182000310541F42DB73EB74091040250910502B5
:10183000241B350BE0915D03F0915E03E217F30783
:10184000A0F42E1B3F0B2817390778F0AC014E5F30
:101850005F4F2417350748F04E0F5F1F50935E030C
:1018600040935D03819391939FCFF0E0E0E09CCFA4
:10187000CF93DF930097E9F0FC0132971382128235
:10188000A0915F03B0916003ED0130E020E010977C
:10189000A1F420813181820F931F20915D0330914B
:1018A0005E032817390709F061C0F0935E03E093E7
:1018B0005D03DF91CF910895EA01CE17DF07E8F5C8
:1018C0004A815B819E0141155105B1F7E901FB8316
:1018D000EA8349915991C40FD51FEC17FD0761F4B4
:1018E000808191810296840F951FE90199838883F5
:1018F000828193819B838A83F0E0E0E012968D9150
:101900009C9113970097B9F52D913C911197CD01BA
:101910000296820F931F20915D0330915E0328177A
:10192000390739F6309751F51092600310925F0332
:10193000B0935E03A0935D03BCCFD383C283408189
:101940005181840F951FC817D90761F44E5F5F4F0F
:1019500088819981480F591F518340838A819B81D7
:10196000938382832115310509F0B0CFF093600392
:10197000E0935F039ECFFD01DC01C0CF1382128292
:10198000D7CF4F925F926F927F928F929F92AF923A
:10199000BF92CF92DF92EF92FF920F931F93CF935C
:1019A000DF938C01009799F4CB01DF91CF911F91C8
:1019B0000F91FF90EF90DF90CF90BF90AF909F90EE
:1019C0008F907F906F905F904F900C949C0BFC01D8
:1019D000E60FF71F9C0122503109E217F30708F4C4
:1019E000AEC0D901CD91DC911197C617D70720F170
:1019F000C530D10578F0CE0104978617970750F0CF
:101A0000C61BD70B2297C193D1936D937C93CF01C3
:101A10000E94380CC801DF91CF911F910F91FF9068
:101A2000EF90DF90CF90BF90AF909F908F907F907E
:101A30006F905F904F9008955B01AC1ABD0A4C0106
:101A40008C0E9D1EA0915F03B0916003512C412C20
:101A5000F12CE12C109731F580915D0390915E039C
:101A60008815990509F05CC04616570608F058C05D
:101A70008091000290910102009741F48DB79EB7CA
:101A80004091040250910502841B950BE817F90759
:101A900008F055C0F0935E03E0935D03F901718394
:101AA0006083B8CF8D919C91119712966C9012978C
:101AB00013967C901397A815B90559F56C0142E06F
:101AC000C40ED11CCA14DB0420F1AC014A195B0915
:101AD000DA011296159780F06282738251834083F7
:101AE000D9016D937C93E114F10471F0D701139641
:101AF000FC93EE9312978ECF22968C0F9D1FF901C7
:101B000091838083F301EFCFF0936003E0935F0351
:101B100081CF4816590608F42C017D01D3019ACFD4
:101B2000CB010E949C0B7C01009749F0AE01B801EB
:101B30000E94A20DC8010E94380C87016BCF10E0F3
:101B400000E068CFFB01DC0102C001900D92415022
:101B50005040D8F70895FB01DC018D910190801968
:101B60000110D9F3990B0895FB01DC0101900D924E
:0A1B70000020E1F70895F894FFCF7C
:101B7A0000006103800000004000140054000000CF
:101B8A000000A5037803BB044E0371035E034F03F1
:101B9A00000000009106BA02BB04E7025800583A56
:101BAA000020593A00205A3A0059005A00434E433D
:101BBA00204C6173657220437574746572004C61C0
:101BCA00736572204F66662028496E616374697670
:101BDA006529004C61736572204F4E20004C617379
:081BEA006572204F4646000021
:00000001FF
