:100000000C945F010C9490010C9490010C9490015D
:100010000C9490010C9490010C9490010C9490011C
:100020000C9490010C9490010C9490010C9490010C
:100030000C9490010C9490010C9490010C949001FC
:100040000C9490010C9490010C9490010C949001EC
:100050000C9490010C9490010C9490010C94370531
:100060000C9490010C9490010C9490010C949001CC
:100070000C9490010C9490010C9490010C949001BC
:100080000C9490010C9490010C9490010C949001AC
:100090000C9490010C9490010C9490010C948105A7
:1000A0000C9490010C9490010C9490010C9490018C
:1000B0000C9490010C9490010C9490010C9490017C
:1000C0000C9490010C9490010C9490010C9490016C
:1000D0000C9490010C9490010C9490010C9490015C
:1000E0000C94900108000000BE922449123EABAA75
:1000F000AA2ABECDCCCC4C3E00000080BEABAAAA42
:10010000AA3E00000000BF000000803F0000000089
:1001100000084178D3BB4387D1133D190E3CC3BDC2
:100120004282AD2B3E68EC8276BED98FE1A93E4C6F
:1001300080EFFFBE01C4FF7F3F00000000000C9471
:1001400004020C9425020C94FC010C944D030C94B5
:1001500097040C9417020C9400020C94F9040C946C
:1001600033020C942B030C94A5060C9495020C946A
:100170001F020C9454030C94F8010C9411020C947B
:100180003A030C9496020C9481030C942D020C9467
:1001900094020C9429020C9437020C94E6010C94FE
:1001A0001B020C942A030C940D020C94C3020C94B1
:1001B000E1010C94070200000A0B02090C0D0E0865
:1001C0000703040100000000000000000000000020
:1001D000000000000000000000000000000000001F
:1001E00000001211100000000000000000000000DC
:1001F00000000000000000000000000000002200DD
:10020000250028002B002E003100340002010000E0
:10021000050108010B0100002100240027002A002D
:100220002D003000330001010000040107010A0124
:1002300005050505070508080808020202020A0A62
:100240000808040404040101010101010101030380
:10025000030303030303040707070C0C0C0C0C0C2B
:100260000C0C0202020206060606060606060B0B28
:100270000B0B0B0B0B0B0102102020080810204069
:10028000102040800201020108040201010204085A
:1002900010204080804020100804020180040201E8
:1002A0008040201008040201080402010102040831
:1002B000102040800102040810204080A50611246F
:1002C0001FBECFEFD1E2DEBFCDBF00E00CBF12E01A
:1002D000A0E0B2E0E0ECF5E100E00BBF02C0079067
:1002E0000D92A834B107D9F723E0A8E4B2E001C029
:1002F0001D92A332B207E1F711E0CFE5D1E000E0B3
:1003000006C021970109802FFE010E94D60ACE3532
:10031000D10780E00807A9F70E94C5060C94DE0A01
:100320000C94000090E0FC01EA58FD4F2491805DA0
:100330009D4FFC018491882399F090E0880F991FCC
:10034000FC01EA5EFD4FA591B491FC01E450FE4F23
:10035000859194918FB7F894EC91E22BEC938FBF39
:100360000895282F30E0F901EA54FE4F9491F901E5
:10037000EA58FD4F4491205D3D4FF901249122231D
:1003800009F435C0992311F191509231F8F4E92F15
:10039000F0E08827E153FE4F8F4F0C94D60A0002FD
:1003A0000402E101F801FC01E60107020D0211025D
:1003B00017021B021F0225022902E6012D02330249
:1003C0003702809180008F7780938000E22FF0E0E9
:1003D000EE0FFF1FE450FE4FA591B4918FB7F89434
:1003E000EC91611148C040954E234C938FBF089506
:1003F000809180008F7DE8CF80918000877FE4CF5F
:1004000084B58F7784BDE2CF84B58F7DFBCF80919B
:10041000B0008F778093B000D9CF8091B0008F7DEE
:10042000F9CF809190008F7780939000CFCF80910B
:1004300090008F7DF9CF80919000877FF5CF8091DC
:10044000A0008F778093A000C1CF8091A0008F7D06
:10045000F9CF8091A000877FF5CF809120018F7721
:1004600080932001B3CF809120018F7DF9CF8091BF
:100470002001877FF5CF4E2BB8CF3FB7F8948091FE
:10048000070390910803A0910903B0910A0326B5D0
:10049000A89B05C02F3F19F00196A11DB11D3FBFBC
:1004A000BA2FA92F982F8827BC01CD01620F711D8B
:1004B000811D911D42E0660F771F881F991F4A9585
:1004C000D1F708958F929F92AF92BF92CF92DF9211
:1004D000EF92FF924B015C010E943D026B017C0197
:1004E0000E943D026C197D098E099F09683E734088
:1004F00081059105A8F321E0821A9108A108B108AD
:1005000088EEC80E83E0D81EE11CF11C8114910412
:10051000A104B10429F7FF90EF90DF90CF90BF9036
:10052000AF909F908F90089508950895AF92BF92D5
:10053000CF92DF92EF92FF920F931F93CF93DF93AF
:100540006C017B018B01040F151FEB015E01AE18DE
:10055000BF08C017D10759F06991D601ED91FC9100
:100560000190F081E02DC6011995892B79F7C5011D
:10057000DF91CF911F910F91FF90EF90DF90CF907F
:10058000BF90AF900895089520918902260F3327D8
:10059000331F21323105ECF42091D202FC0190E0AE
:1005A00080E0243069F082E00895A09189022191D1
:1005B000AC0147595D4FA40FB52FB11D2C93019687
:1005C000861798F380918902680F6093890280E012
:1005D000089581E008951092D20281E08093D102C3
:1005E0001092AC0261E084E10E94B10161E085E11A
:1005F0000E94B101E9EBF0E080818E7F80838081F1
:100600008D7F808388E48093B80085E48093BC006C
:100610000895CF93DF9391E0909368028823B9F017
:10062000C091B800D091BA008091BC008A7B8093C1
:10063000BC0060E084E10E94B10160E085E10E94BD
:10064000B1010E94EB02D093BA00C093B800DF91D1
:10065000CF9108950895E091010380910003E81778
:1006600030F4F0E0E85BFD4F808190E008958FEF7B
:100670009FEF089590910103809100032FEF3FEFCA
:10068000981748F4E92FF0E0E85BFD4F208130E057
:100690009F5F90930103C901089580910003909199
:1006A0000103891B990B0895CF92DF92EF92FF927D
:1006B0000F931F93CF93DF937C01CB018A0120918D
:1006C000D802222389F0EB016B01C40ED51ECC1594
:1006D000DD0569F06991D701ED91FC910190F08100
:1006E000E02DC7011995F3CF642F0E94C402C80101
:1006F000DF91CF911F910F91FF90EF90DF90CF90FE
:100700000895CF93DF931F92CDB7DEB76983209111
:10071000D8022223F9F02091FE02203258F021E085
:1007200030E0FC013383228390E080E00F90DF9182
:10073000CF9108958091FF02E82FF0E0E752FD4F3E
:10074000998190838F5F8093FF028093FE0281E006
:1007500090E0ECCF61E0CE0101960E94C402F7CF99
:10076000CF92DF92EF92FF920F931F93CF93DF937D
:10077000FC01C48121E02093D802C093F9021092B9
:10078000FF021092FE028385682B8BE093E00E94AB
:100790008103D091FE02D13208F092C00E943D0246
:1007A0006B017C018091D202811165C082E080934F
:1007B000D20281E08093D1028FEF8093D002109219
:1007C000CF02D093CE02A9EDB2E0EEEAF2E080E0F3
:1007D000D81385C01092AD028091AD02CC0FC82B0A
:1007E000C093AD028091AC02813009F07CC01092C0
:1007F000AC020E943D026B017C018091AD028093AE
:10080000BB008091D4029091D502A091D602B09104
:10081000D702892B8A2B8B2B99F00E943D020091E5
:10082000D4021091D5022091D6023091D7026C19D2
:100830007D098E099F090617170728073907E0F178
:100840008091BC0083FDD9CF85EC8093BC000E94D1
:100850003D026B017C018091D202823009F445C0D7
:100860008091D0028F3F61F18091D002803241F1BE
:100870008091D00225C08091D4029091D502A091A0
:10088000D602B091D702892B8A2B8B2B09F48ACF01
:100890000E943D020091D4021091D5022091D6020F
:1008A0003091D7026C197D098E099F090617170729
:1008B0002807390708F076CF8091D3020E940903F8
:1008C0001092FF021092FE021092D802DF91CF9197
:1008D0001F910F91FF90EF90DF90CF9008959D9121
:1008E00091938F5F75CF85EEB0CF8091D4029091B8
:1008F000D502A091D602B091D702892B8A2B8B2BDF
:1009000009F4A9CF0E943D020091D4021091D502B2
:100910002091D6023091D7026C197D098E099F096A
:10092000061717072807390708F095CFC5CF90E0BD
:1009300080E008950F931F93CF938C01C62F0E94E0
:10094000B0036C2F6460C8010E94B0036C2F6B7FF2
:10095000C8010E94B00383EC90E00197F1F7CF91BA
:100960001F910F9108950F931F93CF93DF938C01E5
:10097000D62FC42F607F642B0E949A0480E1D89FF9
:10098000B00111246C2BC801DF91CF911F910F9101
:100990000C949A04CF93DF9300D000D01F921F9243
:1009A000CDB7DEB798E0E0E0F2E0DE01119601900D
:1009B0000D929A95E1F790911F03981708F48FEF25
:1009C00090E0880F991F21E030E02C0F3D1F820F2F
:1009D000931FFC016081606840E087E193E0289606
:1009E0000FB6F894DEBF0FBECDBFDF91CF910C9450
:1009F000B30441E00E94B30481E090E0089585EDE6
:100A00008093BC008091D4029091D502A091D6022F
:100A1000B091D7020796A11DB11D23E0B695A79509
:100A2000979587952A95D1F72091BC0024FD03C0A6
:100A30001092D20208954091D4025091D502609153
:100A4000D6027091D702452B462B472B69F30097AE
:100A5000A105B10541F02AE22A95F1F700C00197FE
:100A6000A109B109E1CF8091D3020C9409031F922F
:100A70000F920FB60F9211242F933F938F939F9352
:100A8000AF93BF938091030390910403A09105035A
:100A9000B09106033091020323E0230F2D3758F560
:100AA0000196A11DB11D209302038093030390932F
:100AB0000403A0930503B09306038091070390916C
:100AC0000803A0910903B0910A030196A11DB11D6D
:100AD0008093070390930803A0930903B0930A033C
:100AE000BF91AF919F918F913F912F910F900FBE2A
:100AF0000F901F90189526E8230F0296A11DB11D97
:100B0000D2CF1F920F920FB60F9211240BB60F92F5
:100B10002F933F934F935F936F937F938F939F9305
:100B2000AF93BF93EF93FF938091B900887F803696
:100B300009F44DC008F040C0883209F4A9C028F576
:100B4000803109F49DC0C8F4882309F4FBC08830C3
:100B500009F496C0FF91EF91BF91AF919F918F9152
:100B60007F916F915F914F913F912F910F900BBEAD
:100B70000F900FBE0F901F901895883109F488C010
:100B8000803241F78093D00214C0803409F49DC0B4
:100B900040F48033B9F38833E9F68093D00285ECD2
:100BA000B0C0803509F485C0883509F496C0883412
:100BB00089F60E94FF04CECF883909F48CC038F53D
:100BC000883729F050F4883611F0803719F683E021
:100BD0008093D2021092AB0257C0883809F47BC0D0
:100BE000803919F0803809F0B5CF8091AB0280329E
:100BF00008F071C0E091AB0281E08E0F8093AB02F0
:100C00008091BB00F0E0E557FD4F80833DC0803B05
:100C100039F0E0F4803A09F479C0883A09F09ACFC3
:100C200084E08093D20210928A0210928902E091AD
:100C3000FC02F091FD0219958091890281110FC08B
:100C400081E0809389021092690209C0803C09F416
:100C5000A6CF883C09F4A3CF883B09F07BCFE09175
:100C60008A0281E08E0F80938A02F0E0E759FD4FFF
:100C700080818093BB0090918A028091890229C073
:100C80008091AD028093BB0085EC8093BC0062CF65
:100C90009091CF028091CE02981758F5E091CF0243
:100CA00081E08E0F8093CF02F0E0E255FD4F80810E
:100CB000E9CFE091CF0281E08E0F8093CF02809147
:100CC000BB00F0E0E255FD4F80839091CF02809110
:100CD000CE029817C8F285E8D8CFE091CF0281E024
:100CE0008E0F8093CF028091BB00F0E0E255FD4F64
:100CF00080838091D10281115CCF81E08093AC022E
:100D000084EA8093BC001092D20224CF85EC8093B9
:100D1000BC001092D2028091AB02803230F4E0919C
:100D2000AB02F0E0E557FD4F10826091AB0270E03E
:100D3000E091FA02F091FB028BE892E01995109293
:100D4000AB0208CF1092D00234CFEBE0F3E0138275
:100D5000128288EE93E0A0E0B0E084839583A683BE
:100D6000B7838CE092E091838083E7E1F3E0138224
:100D700012828EE192E09183808387E2848380E116
:100D8000818782E0828713860895789484B5826093
:100D900084BD84B5816084BD85B5826085BD85B51F
:100DA000816085BD80916E00816080936E0010929D
:100DB0008100809181008260809381008091810018
:100DC00081608093810080918000816080938000A9
:100DD0008091B10084608093B1008091B000816007
:100DE0008093B00080919100826080939100809107
:100DF0009100816080939100809190008160809348
:100E000090008091A10082608093A1008091A10058
:100E100081608093A1008091A00081608093A000F8
:100E20008091210182608093210180912101816064
:100E30008093210180912001816080932001809125
:100E40007A00846080937A0080917A008260809337
:100E50007A0080917A00816080937A0080917A0094
:100E6000806880937A001092C10010920103109262
:100E700000031092FF021092FE020E94EB0284E92E
:100E800092E09093FD028093FC0285E992E09093BA
:100E9000FB028093FA0210921C038091210382309E
:100EA00018F098E090931C0380931F0362E370E0B6
:100EB00080E090E00E9462026091220387E193E06B
:100EC0000E94B00368EE73E080E090E00E9462024E
:100ED00060E387E193E00E949A04CBE4D6E4CE017C
:100EE0000197F1F760E387E193E00E949A0421976C
:100EF000F1F760E387E193E00E949A0483E592E0D2
:100F00000197F1F760E287E193E00E949A04609113
:100F10001C03606240E087E193E00E94B30484E038
:100F200080931D0340E06CE087E193E00E94B304EE
:100F300040E061E087E193E00E94B304CBE3DFE1AE
:100F4000CE010197F1F782E080931E0340E066E056
:100F500087E193E00E94B30440E062E087E193E020
:100F60000E94B3042197F1F788E08093220360E0A8
:100F700087E193E00E94B00380E00E94CA0440E150
:100F800050E066E272E087E193E00E94960286E11B
:100F90000E94920187E10E94920188E10E949201E1
:100FA00089E10E9492018AE10E9492018BE10E94F4
:100FB00092018BE00E94920160E08BE00E94B101FF
:100FC00010E4C0E0D0E080917B00877F80937B00BD
:100FD00010937C0080917A00806480937A008091E5
:100FE0007A0086FDFCCF6091780070917900072E21
:100FF000000C880B990B0E9433099B01AC0160E047
:1010000070EC8FE794E40E94BF0820E030E040E8F5
:101010005FE30E9452089B01AC0160E070E48CE148
:1010200096E40E94BF0820E030E44CE156E40E94C0
:10103000BF080E94CC0920E030EE46E755E40E944C
:10104000BF082FE03FEC4BE55BE30E9453089B0198
:10105000AC0160E070E080E89FE30E94BF0823E3FA
:1010600033E948E853E40E94520820E030E04CE8BD
:1010700052E40E94BF0918167CF460E08BE00E94E5
:10108000B10181E00E94CA044FE050E067E372E0E2
:1010900087E193E00E949602209709F494CF0E9482
:1010A000000091CF5058BB27AA270E946A080C94D1
:1010B00085090E94770938F00E947E0920F039F4F2
:1010C0009F3F19F426F40C9474090EF4E095E7FBA5
:1010D0000C946E09E92F0E94960958F3BA1762071B
:1010E00073078407950720F079F4A6F50C94B809E6
:1010F0000EF4E0950B2EBA2FA02D0B01B901900133
:101100000C01CA01A0011124FF27591B99F0593F76
:1011100050F4503E68F11A16F040A22F232F342FBE
:101120004427585FF3CF469537952795A795F0400C
:101130005395C9F77EF41F16BA0B620B730B840B21
:10114000BAF09150A1F0FF0FBB1F661F771F881FD9
:10115000C2F70EC0BA0F621F731F841F48F4879531
:1011600077956795B795F7959E3F08F0B0CF939523
:10117000880F08F09927EE0F9795879508950E949C
:10118000D3080C9485090E947E0958F00E947709C3
:1011900040F029F45F3F29F00C946E0951110C9432
:1011A000B9090C9474090E94960968F39923B1F364
:1011B000552391F3951B550BBB27AA27621773077D
:1011C000840738F09F5F5F4F220F331F441FAA1F11
:1011D000A9F335D00E2E3AF0E0E832D091505040CD
:1011E000E695001CCAF72BD0FE2F29D0660F771F7B
:1011F000881FBB1F261737074807AB07B0E809F061
:10120000BB0B802DBF01FF2793585F4F3AF09E3FE5
:10121000510578F00C946E090C94B9095F3FE4F322
:10122000983ED4F3869577956795B795F7959F5F28
:10123000C9F7880F911D9695879597F90895E1E074
:10124000660F771F881FBB1F621773078407BA07D3
:1012500020F0621B730B840BBA0BEE1F88F7E0952E
:101260000895E89409C097FB3EF490958095709599
:1012700061957F4F8F4F9F4F9923A9F0F92F96E9E2
:10128000BB279395F695879577956795B795F11157
:10129000F8CFFAF4BB0F11F460FF1BC06F5F7F4FF4
:1012A0008F4F9F4F16C0882311F096E911C0772306
:1012B00021F09EE8872F762F05C0662371F096E80F
:1012C000862F70E060E02AF09A95660F771F881FDE
:1012D000DAF7880F9695879597F9089597F99F679C
:1012E00080E870E060E008959FEF80EC08950024AE
:1012F0000A941616170618060906089500240A947B
:1013000012161306140605060895092E0394000C00
:1013100011F4882352F0BB0F40F4BF2B11F460FF8F
:1013200004C06F5F7F4F8F4F9F4F089557FD9058B8
:10133000440F551F59F05F3F71F04795880F97FB99
:10134000991F61F09F3F79F0879508951216130653
:101350001406551FF2CF4695F1DF08C01616170682
:101360001806991FF1CF86957105610508940895B7
:10137000E894BB2766277727CB0197F908950E9449
:101380007D0A08F48FEF089516F00C94A10A0C94CE
:10139000740968940C946E090E949E09A8F399231D
:1013A000C1F3AEF3DF93CF931F930F93FF92C92F37
:1013B000DD2788232AF02197660F771F881FDAF729
:1013C00020E030E040E85FEB9FE3883920F0803E8A
:1013D00038F021968F770E945308E4EEF0E004C0C5
:1013E0000E945308E1E1F1E00E94AF0A8B01BE01C7
:1013F000EC01FB2E6F5771097595771F880B990BC0
:101400000E94330928E132E741E35FE30E94230AA7
:10141000AF2D9801AE01FF900F911F91CF91DF91F9
:101420000E946A080C9485090E94770938F00E948E
:101430007E0920F0952311F00C946E090C94740928
:1014400011240C94B9090E94960970F3959FC1F379
:10145000950F50E0551F629FF001729FBB27F00D62
:10146000B11D639FAA27F00DB11DAA1F649F6627B7
:10147000B00DA11D661F829F2227B00DA11D621F06
:10148000739FB00DA11D621F839FA00D611D221FC0
:10149000749F3327A00D611D231F849F600D211DA4
:1014A000822F762F6A2F11249F5750409AF0F1F027
:1014B00088234AF0EE0FFF1FBB1F661F771F881F90
:1014C00091505040A9F79E3F510580F00C946E0951
:1014D0000C94B9095F3FE4F3983ED4F38695779571
:1014E0006795B795F795E7959F5FC1F7FE2B880F36
:1014F000911D9695879597F90895990F0008550FB6
:10150000AA0BE0E8FEEF16161706E807F907C0F089
:1015100012161306E407F50798F0621B730B840B91
:10152000950B39F40A2661F0232B242B252B21F46B
:1015300008950A2609F4A140A6958FEF811D811D0B
:1015400008959F3F31F0915020F4879577956795E6
:10155000B795880F911D9695879597F90895DF9314
:10156000CF931F930F93FF92EF92DF927B018C0139
:10157000689406C0DA2EEF010E94230AFE01E89467
:10158000A5912591359145915591A6F3EF010E94C2
:101590006A08FE019701A801DA9469F7DF90EF90DD
:1015A000FF900F911F91CF91DF910895EE0FFF1FD4
:1015B000881F8BBF0790F691E02D1994F894FFCF08
:1015C0000000400014005400000000008103540398
:1015D00097042A034D033A032B0300000000F9048B
:1015E00096029704C302434E43204C6173657220F8
:1015F000437574746572004C61736572204F766533
:081600007268656174210000AD
:00000001FF
