:100000000C944F010C9480010C9480010C9480019D
:100010000C9480010C9480010C9480010C9480015C
:100020000C9480010C9480010C9480010C9480014C
:100030000C9480010C9480010C9480010C9480013C
:100040000C9480010C9480010C9480010C9480012C
:100050000C9480010C9480010C9480010C945D0F31
:100060000C9480010C94D10F0C94A70F0C94800178
:100070000C9480010C9480010C9480010C948001FC
:100080000C9480010C9480010C9480010C948001EC
:100090000C9480010C9480010C9480010C94071046
:1000A0000C9480010C9480010C9480010C948001CC
:1000B0000C9480010C9480010C9480010C948001BC
:1000C0000C9480010C9480010C9480010C948001AC
:1000D0000C9480010C9480010C9480010C9480019C
:1000E0000C9480010C9470040C94CD010C94E101EB
:1000F0000C94A6010C949A040C9412030C943403EF
:100100000C94C7040C94DB010C94BB010C94710E8D
:100110000C94DD050C94F70A0C9426030C94D7017B
:100120000C9493040C94E5010C9471040C946C03EE
:100130000C94BF010C94D5020C94B2010C94D30121
:100140000C94C5010C94AA010C94C60C0C94510B90
:100150000C94E0010C94AE010C942B110C948004CF
:100160000C9403030C94B9030C94D6020C94B501BF
:100170000C94C9010C94D4020C94A001000021003D
:10018000240027002A002D00300033000101000068
:10019000040107010A0100002200250028002B00AD
:1001A0002E003100340002010000050108010B019E
:1001B000000020002300260029002C002F00320020
:1001C00000010000030106010901050505050705F9
:1001D00008080808020202020A0A080804040404C3
:1001E00001010101010101010303030303030303EF
:1001F000040707070C0C0C0C0C0C0C0C020202027E
:1002000006060606060606060B0B0B0B0B0B0B0B66
:100210000102102020080810204010204080020118
:1002200002010804020101020408102040808040FD
:1002300020100804020180040201804020100804FC
:10024000020108040201010204081020408001029A
:1002500004081020408000000A0B02090C0D0E0853
:10026000070304010000000000000000000000007F
:10027000000000000000000000000000000000007E
:10028000000012111000000000000000000000003B
:100290000000000000000000000000002B111124ED
:1002A0001FBECFEFD1E2DEBFCDBF00E00CBF26E026
:1002B000A6EAB2E001C01D92AD37B207E1F712E045
:1002C000A0E0B2E0E6E7FCE200E00BBF02C007906E
:1002D0000D92A63AB107D9F711E0CFE4D1E000E0E2
:1002E00006C021970109802FFE010E941214CE340E
:1002F000D10780E00807A9F70E948E110C943916E7
:100300000C9400008150823108F05AC0E82FF0E0D0
:100310008827E257FE4F8F4F0C941214AE01B201A2
:10032000A001A601AA01E001B501BB01BF01C50101
:10033000C901CD01D301D701E001DB01E101E501F4
:10034000809180008F778093800008958091800055
:100350008F7DF9CF80918000877FF5CF84B58F772F
:1003600084BD089584B58F7DFBCF8091B0008F77D9
:100370008093B00008958091B0008F7DF9CF809177
:1003800090008F77809390000895809190008F7DEA
:10039000F9CF80919000877FF5CF8091A0008F7773
:1003A0008093A00008958091A0008F7DF9CF809167
:1003B000A000877FF5CF809120018F778093200167
:1003C0000895809120018F7DF9CF80912001877F52
:1003D000F5CFCF93DF93282F30E0F901EA5AFD4F94
:1003E0008491F901E05FFD4FD491F901E653FE4F8E
:1003F000C491CC23A1F081110E948201EC2FF0E086
:10040000EE0FFF1FE055FE4FA591B491EC91ED2347
:1004100081E090E009F480E0DF91CF91089580E0E1
:1004200090E0FACF1F93CF93DF93282F30E0F901AC
:10043000EA5AFD4F8491F901E05FFD4FD491F90133
:10044000E653FE4FC491CC23A9F0162F81110E94D0
:100450008201EC2FF0E0EE0FFF1FEA56FE4FA59150
:10046000B4918FB7F894EC91111108C0D095DE23A8
:10047000DC938FBFDF91CF911F910895DE2BF8CFD2
:10048000CF93DF9390E0FC01E05FFD4F2491865312
:100490009E4FFC0184918823D1F090E0880F991F32
:1004A000FC01E458FE4FA591B491FC01EA56FE4FC1
:1004B000C591D491623071F49FB7F8943C91822F2A
:1004C000809583238C93E8812E2B28839FBFDF9117
:1004D000CF9108958FB7F894EC912E2B2C938FBF6A
:1004E000F6CF3FB7F8948091750590917605A0916D
:1004F0007705B091780526B5A89B05C02F3F19F068
:100500000196A11DB11D3FBFBA2FA92F982F882793
:10051000BC01CD01620F711D811D911D42E0660F6E
:10052000771F881F991F4A95D1F708958F929F9240
:10053000AF92BF92CF92DF92EF92FF924B015C019C
:100540000E9471026B017C010E9471026C197D098D
:100550008E099F09683E734081059105A8F321E04B
:10056000821A9108A108B10888EEC80E83E0D81E4F
:10057000E11CF11C81149104A104B10429F7FF903E
:10058000EF90DF90CF90BF90AF909F908F900895A5
:100590002FB7F89460917105709172058091730581
:1005A000909174052FBF089508950895AF92BF925A
:1005B000CF92DF92EF92FF920F931F93CF93DF932F
:1005C0006C017B018B01040F151FEB015E01AE185E
:1005D000BF08C017D10759F06991D601ED91FC9180
:1005E0000190F081E02DC6011995892B79F7C5019D
:1005F000DF91CF911F910F91FF90EF90DF90CF90FF
:10060000BF90AF900895FC01538D448D252F30E0AD
:10061000842F90E0821B930B541710F0CF9608950F
:1006200001970895FC01918D828D981761F0A28D3C
:10063000AE0FBF2FB11D5D968C91928D9F5F9F7302
:10064000928F90E008958FEF9FEF0895FC01918DB8
:10065000828D981731F0828DE80FF11D858D90E025
:1006600008958FEF9FEF0895FC01918D228D892FC2
:1006700090E0805C9F4F821B91098F7399270895AA
:1006800089E795E00E94340321E0892B09F420E0FA
:10069000822F0895FC01A48DA80FB92FB11DA35A74
:1006A000BF4F2C91848D90E001968F739927848F92
:1006B000A689B7892C93A089B1898C9183708064B5
:1006C0008C93938D848D981306C00288F389E02D56
:1006D00080818F7D80830895EF92FF920F931F9307
:1006E000CF93DF93EC0181E0888F9B8D8C8D9813E5
:1006F0001AC0E889F989808185FF15C09FB7F894F1
:10070000EE89FF896083E889F9898081837080643C
:1007100080839FBF81E090E0DF91CF911F910F9187
:10072000FF90EF900895F62E0B8D10E00F5F1F4F96
:100730000F731127E02E8C8D8E110CC00FB607FCA5
:10074000FACFE889F989808185FFF5CFCE010E9433
:100750004A03F1CFEB8DEC0FFD2FF11DE35AFF4F54
:10076000F0829FB7F8940B8FEA89FB8980818062C1
:10077000CFCFCF93DF93EC01888D8823B9F0AA897E
:10078000BB89E889F9898C9185FD03C0808186FD4C
:100790000DC00FB607FCF7CF8C9185FFF2CF80819B
:1007A00085FFEDCFCE010E944A03E9CFDF91CF91C3
:1007B000089580E090E0892B29F00E944003811188
:1007C0000E94000080E090E0892B49F080E090E0FA
:1007D000892B29F00E94000081110E94000080E016
:1007E00090E0892B49F080E090E0892B29F00E946D
:1007F000000081110E94000080E090E0892B49F008
:1008000080E090E0892B29F00E94000081110C9477
:10081000000008952091F304260F3327331F21325F
:100820003105ECF420913C05FC0190E080E024309F
:1008300069F082E00895A091F3042191AC014D523A
:100840005B4FA40FB52FB11D2C930196861798F31B
:100850008091F304680F6093F30480E0089581E0D1
:10086000089510923C0581E080933B051092160597
:1008700061E084E10E94120261E085E10E941202BF
:10088000E9EBF0E080818E7F808380818D7F8083A3
:1008900088E48093B80085E48093BC000895CF93EA
:1008A000DF9391E09093D2048823B9F0C091B8000F
:1008B000D091BA008091BC008A7B8093BC0060E03C
:1008C00084E10E94120260E085E10E9412020E940F
:1008D0003104D093BA00C093B800DF91CF9108954E
:1008E0000895E0916B0580916A05E81730F4F0E017
:1008F000EE54FB4F808190E008958FEF9FEF0895B5
:1009000090916B0580916A052FEF3FEF981748F49F
:10091000E92FF0E0EE54FB4F208130E09F5F909391
:100920006B05C901089580916A0590916B05891B3B
:10093000990B0895CF92DF92EF92FF920F931F933E
:10094000CF93DF937C01CB018A01209142052223C2
:1009500089F0EB016B01C40ED51ECC15DD0569F0E5
:100960006991D701ED91FC910190F081E02DC701D3
:100970001995F3CF642F0E940A04C801DF91CF912B
:100980001F910F91FF90EF90DF90CF900895CF933C
:10099000DF931F92CDB7DEB76983209142052223F2
:1009A000F9F020916805203258F021E030E0FC0198
:1009B0003383228390E080E00F90DF91CF91089500
:1009C00080916905E82FF0E0ED5BFA4F9981908303
:1009D0008F5F809369058093680581E090E0ECCF9C
:1009E00061E0CE0101960E940A04F7CFCF92DF9218
:1009F000EF92FF920F931F93CF93DF93FC01C4817B
:100A000021E020934205C09363051092690510927E
:100A100068058385682B86E196E00E94C704D09123
:100A20006805D13208F092C00E9471026B017C010E
:100A300080913C05811165C082E080933C0581E096
:100A400080933B058FEF80933A0510923905D09340
:100A50003805A3E4B5E0E8E1F5E080E0D81385C00F
:100A60001092170580911705CC0FC82BC09317055E
:100A700080911605813009F07CC0109216050E9405
:100A800071026B017C01809117058093BB008091FE
:100A90003E0590913F05A0914005B0914105892BFD
:100AA0008A2B8B2B99F00E94710200913E051091C8
:100AB0003F0520914005309141056C197D098E0953
:100AC0009F090617170728073907E0F18091BC0036
:100AD00083FDD9CF85EC8093BC000E9471026B012D
:100AE0007C0180913C05823009F445C080913A0533
:100AF0008F3F61F180913A05803241F180913A0552
:100B000025C080913E0590913F05A0914005B09190
:100B10004105892B8A2B8B2B09F48ACF0E94710205
:100B200000913E0510913F0520914005309141050F
:100B30006C197D098E099F090617170728073907C1
:100B400008F076CF80913D050E944F041092690510
:100B50001092680510924205DF91CF911F910F917D
:100B6000FF90EF90DF90CF9008959D9191938F5FCC
:100B700075CF85EEB0CF80913E0590913F05A09155
:100B80004005B0914105892B8A2B8B2B09F4A9CF05
:100B90000E94710200913E0510913F052091400591
:100BA000309141056C197D098E099F0906171707B9
:100BB0002807390708F095CFC5CF90E080E0089569
:100BC0002091AC02211109C021E02093AC023091A8
:100BD0002206209123063CBD2DBD60E0FC018481EE
:100BE0000C94120261E0FC0184810E941202809147
:100BF000AC0281111092AC0208958EBD00000DB4BC
:100C000007FEFDCF8EB508958FEF0C94FD050F9371
:100C10001F93CF93DF93EC010E94C8028B010E94C7
:100C200004068F3F69F00E94C802601B710B6C17AD
:100C30007D07A8F380E0DF91CF911F910F91089578
:100C400081E0F9CFCF92DF92EF92FF920F931F9343
:100C5000CF93DF93EC01162F69017A018E818823EF
:100C600089F08F8198859C012F5F3F4F38872F83B4
:100C70008230924018F40E940406F3CFCE010E9405
:100C8000F2051E82CE010E94E0058CE291E00E94F6
:100C90000706812F80640E94FD0508E110E0D7015E
:100CA000C601002E04C0B695A795979587950A941E
:100CB000D2F70E94FD0508501109083F8FEF180771
:100CC00071F78FEF0E94FD0510E00E9404068A87ED
:100CD00087FF04C01F3F11F01F5FF7CFDF91CF9157
:100CE0001F910F91FF90EF90DF90CF900895CF92DA
:100CF000DF92EF92FF920F93CF93DF93EC016901A4
:100D000082E1411551056105710599F08B858330AC
:100D100039F089E0440F551F661F771F8A95D1F778
:100D20009A01AB0168E1CE010E942206882319F0E6
:100D300084E08D832DC08EEF0E94FD0576018EEF3D
:100D4000D81AF70181917F010E94FD05EC14FD0482
:100D5000C1F78FEF0E94FD058FEF0E94FD050E94F5
:100D600004068A878F71853071F4011116C0CE0197
:100D70000E94F20581E0DF91CF910F91FF90EF90FB
:100D8000DF90CF90089581E18D83CE010E94F2051E
:100D9000CE010E94F20580E0EECF88E592E00E944D
:100DA0000706811102C085E1C4CF20E030E0A9012F
:100DB0006DE0CE010E942206882311F084E1B9CFB4
:100DC0000E9404068111FACFD2CF0F934091AE0258
:100DD0005091AF026091B0027091B102411551057E
:100DE0006105710589F0082F22EB32E090E080E088
:100DF0000E947706882349F01092AE021092AF024B
:100E00001092B0021092B10281E00F9108950F93F9
:100E1000CF93C82F8091AD02811105C0C1E08C2F06
:100E2000CF910F910895409100025091010260917D
:100E30000202709103020C2F22EB32E090E080E07E
:100E40000E947706811102C0C0E0E9CFCC2331F3C4
:100E500081E00E94E5068823B9F31092AD02DFCF4E
:100E6000AF92BF92CF92DF92EF92FF921F93CF93F8
:100E7000DF936B017C01142F80910002909101029D
:100E8000A0910202B09103028C159D05AE05BF052D
:100E900009F4ADC081E00E9407078823E1F1809149
:100EA00006008823A1F08091000090910100A0919C
:100EB0000200B0910300C816D906EA06FB0639F411
:100EC0008091070090910800892B09F44FC0C092CF
:100ED0000000D0920100E0920200F09203008091A5
:100EE0000B00A7019601833039F099E0220F331FE0
:100EF000441F551F9A95D1F761E190E080E00E9470
:100F00002206882391F083E08093050090E080E042
:100F10000E94F20580E0DF91CF911F91FF90EF904A
:100F2000DF90CF90BF90AF9008950E94C802EB0170
:100F30000E94040680930A008F3F79F40E94C80241
:100F40006C1B7D0B6D32714098F38FE08093050030
:100F500090E080E00E94F205D9CF8E3FC1F510925B
:100F600008001092070081E080930600C2EBD2E0F7
:100F700082EBA82E84E0B82E0E9404068993AC165A
:100F8000BD06D1F780910700909108009E5F909375
:100F900008008093070020910900222319F0811591
:100FA0009240E8F0809106008823C9F08091070004
:100FB000909108009C012F5F3F4F309308002093D1
:100FC00007008230924028F40E940406EFCF8DE0A3
:100FD000BDCF90E080E00E94F20510920600C09222
:100FE0000002D0920102E0920202F09203024091CC
:100FF000AD02412B4093AD0281E08DCF4F925F92C5
:101000006F927F928F929F92AF92BF92CF92DF9218
:10101000EF92FF920F931F93CF93DF93EC01423037
:1010200051056105710590F480E0DF91CF911F912A
:101030000F91FF90EF90DF90CF90BF90AF909F9077
:101040008F907F906F905F904F90089589859A85DB
:10105000AB85BC850196A11DB11D84179507A60718
:10106000B70710F3CB88DC88ED88FE888F89803144
:1010700009F042C0BB27A72F962F852F48015901A1
:101080002A013B01C80ED91EEA1EFB1E80910002F8
:1010900090910102A0910202B0910302C816D906F4
:1010A000EA06FB0699F58F898031C1F5B301A201EB
:1010B000552766277727440F551F4E545D4FFA0179
:1010C000918280828091AD0281608093AD028A8995
:1010D000823080F08D819E81AF81B8858C0D9D1D01
:1010E000AE1DBF1D8093AE029093AF02A093B002DD
:1010F000B093B10281E099CFDB01CA01E7E0B69578
:10110000A79597958795EA95D1F7B8CF40E0C701A5
:10111000B6010E9430078111C6CF86CFB301A2016C
:101120004F77552766277727440F551F440F551FC4
:101130004E545D4FFA0180829182A282B382C2CF67
:101140008F929F92AF92BF92CF92DF92EF92FF92D7
:101150000F931F93CF93DF93FC0181859285A38525
:10116000B4850196A11DB11D84179507A607B70781
:1011700070F480E0DF91CF911F910F91FF90EF907D
:10118000DF90CF90BF90AF909F908F90089583880D
:101190009488A588B6888789803189F5BB27A72FD1
:1011A000962F852FE9016A017B018F01BC01CD01DA
:1011B000680D791D8A1D9B1D809000029090010290
:1011C000A0900202B090030286169706A806B90600
:1011D00001F5F8018789803111F5DD24EE24FF2423
:1011E000F601EE0FFF1FEE54FD4F80819181B0E0BC
:1011F000A0E088839983AA83BB8381E0BBCFDB0116
:10120000CA01C7E0B695A79597958795CA95D1F776
:10121000C9CF40E00E9430078111DBCFAACFE8940C
:10122000C7F8DD24EE24FF24F601EE0FFF1FEE0FBA
:10123000FF1FEE54FD4F80819181A281B381BF7069
:10124000D8CF8F929F92AF92BF92CF92DF92EF92C0
:10125000FF920F931F93CF93DF93EC018D81811148
:101260000EC080E0DF91CF911F910F91FF90EF9022
:10127000DF90CF90BF90AF909F908F9008950B8993
:101280001C892D893E89041715072607370748F35F
:101290004A015B01823031F48A869B86AC86BD862A
:1012A00081E0E0CF81149104A104B10449F41E82CD
:1012B0001F82188619861A861B861C861D86F0CF0B
:1012C0000A851B852C853D85EB8DFC8D858590E001
:1012D0000996B901A8014150510961097109082E07
:1012E00004C076956795579547950A94D2F775018E
:1012F0006401E1E0CE1AD108E108F10804C0F694D7
:10130000E794D794C7948A95D2F7C416D506E60613
:10131000F70620F0012B022B032B11F58F89988DF6
:10132000A98DBA8D8E839F83A887B9878E010A5FA6
:101330001F4FC114D104E104F10409F4ADCF4E8173
:101340005F816885798598018B8D9C8D0E94A008AE
:1013500091E0C91AD108E108F1088111EACF81CFE3
:10136000C41AD50AE60AF70AE1CF3F924F925F927C
:101370006F927F928F929F92AF92BF92CF92DF92A5
:10138000EF92FF920F931F93CF93DF93CDB7DEB70A
:101390002C970FB6F894DEBF0FBECDBF5C01DC0109
:1013A0005B968D909C905C9716964D905D906D909D
:1013B0007C901997411451046104710409F468C0C8
:1013C000BFEF4B1A5B0A6B0A7B0A312CF401818553
:1013D0009285A385B4859C01AD012F5F3F4F4F4F90
:1013E0005F4F29873A874B875C87730162011D82B3
:1013F0001E821F821886F40181859285A385B4859B
:101400002D813E814F815885281739074A075B0790
:1014100008F056C089859A85AB85BC858C159D05DD
:10142000AE05BF0550F482E0C82ED12CE12CF12C82
:1014300092E0492E512C612C712C9E012F5F3F4F61
:10144000B701A601C4010E94A0088823C9F18981BF
:101450009A81AB81BC81892B8A2B8B2B09F12601C8
:1014600037019FEF491A590A690A790A2D813E818D
:101470004F8158852F5F3F4F4F4F5F4F2D833E83E6
:101480004F8358873FEFC31AD30AE30AF30AB3CF57
:10149000F40140805180628073803324339496CF6E
:1014A000C414D504E604F70409F70FEF1FEF2FEF7C
:1014B0003FE0B701A601C4010E94FE07811119C0D7
:1014C00080E02C960FB6F894DEBF0FBECDBFDF9143
:1014D000CF911F910F91FF90EF90DF90CF90BF9031
:1014E000AF909F908F907F906F905F904F903F90C4
:1014F0000895D50116964D915D916D917C91199746
:10150000411551056105710539F097018601C40146
:101510000E94FE078823A1F2D5011696CD92DD9296
:10152000ED92FC921997332051F0D701C601019634
:10153000A11DB11DF40180839183A283B383F501C2
:101540008789908DA18DB28D892B8A2B8B2B39F4B5
:101550008481C78AD08EE18EF28E80688483F50103
:1015600084818062848381E0ACCF1F93CF93DF932B
:10157000EC01162F8C8187FF2AC06E857F858889B4
:10158000998941E00E943007882361F1EA8980E26D
:10159000E89FF0011124EE54FD4F309719F18D8131
:1015A000823040F48B899C89AD89BE89848F958F68
:1015B000A68FB78F8F89988D938F828F8F89988D03
:1015C000A98DBA8DB58BA48B8C818F778C831111EB
:1015D00003C08C818F7E8C83812FDF91CF911F91EF
:1015E0000C94070780E0DF91CF911F9108951F931E
:1015F000CF93DF93EC018D81813031F090E080E07A
:10160000DF91CF911F9108958C8181FFF7CF82FDEB
:101610001BC090E080E00E94E0050E940406182FA5
:1016200090E080E00E94F2051F3F41F78C8185FF2A
:101630001EC08D81882321F060E0CE010E94B50A92
:101640008C818F7D8C83DACF4B895C896D897E8913
:101650008A859B85AC85BD8584179507A607B70746
:10166000C1F2CE010E9421098111D3CFC7CF409191
:10167000AE025091AF026091B0027091B102452B61
:10168000462B472B21F080E00E94E506B7CF806112
:101690008C832A853B85317080E092E0821B930B1E
:1016A000AFCF9F92AF92BF92CF92DF92EF92FF9215
:1016B0000F931F93CF93DF9300D01F921F92CDB74C
:1016C000DEB78C016D83DC0115968C911597813006
:1016D00009F0B9C014968C9181FFB5C082FD9FC0FE
:1016E000D8015B96ED91FC915C971A96AD90BD90F8
:1016F000CD90DC901D9794809A94B601A50189E065
:1017000076956795579547958A95D1F79422B1E0DC
:10171000BB22992009F49FC0D8015B96ED91FC9102
:101720005C971696CD90DD90ED90FC901997B2E005
:10173000CB1AD108E108F108858504C0CC0CDD1C6A
:10174000EE1CFF1C8A95D2F7468557856089718902
:10175000C40ED51EE61EF71EC90CD11CE11CF11CDF
:10176000A114B10409F00AC1F801428553856485CA
:10177000758583899489A589B689481759076A07A9
:101780007B0708F4FBC081E00E940707882309F467
:101790005AC0C0920002D0920102E0920202F0927E
:1017A00003028091AD0281608093AD02F501EE5499
:1017B000FD4F8D818083F80182859385A485B58551
:1017C0000196A11DB11D82879387A487B5874389A0
:1017D000548965897689481759076A077B0738F461
:1017E0002481838B948BA58BB68B20682483D801AE
:1017F00014968C9183FD9FC081E090E00F900F9034
:101800000F900F900F90DF91CF911F910F91FF904C
:10181000EF90DF90CF90BF90AF909F900895F80128
:10182000438954896589768982859385A485B585A0
:10183000481759076A077B0709F452CFC8010E946D
:10184000210981114DCF81E090E0D80113969C933E
:101850008E93129749C0D80116964D915D916D9166
:101860007C911997A114B10409F071C0411551057B
:101870006105710589F557968D919D910D90BC91EB
:10188000A02D0097A105B10509F04FC0C8010E9425
:10189000B5098823C1F2D8015B96ED91FC915C9764
:1018A0001696CD90DD90ED90FC901997B2E0CB1A92
:1018B000D108E108F108858504C0CC0CDD1CEE1CC4
:1018C000FF1C8A95D2F74685578560897189C40EB9
:1018D000D51EE61EF71E48CF9E012F5F3F4FCF015A
:1018E0000E94A008811103C090E080E087CF898129
:1018F0009A81AB81BC81F801238D348DF901278950
:1019000048EF5FEF60E070E0203121F048EF5FEFDB
:101910006FEF7FE084179507A607B70730F0C8017F
:101920000E94B5098111F8CE8ECFF8018683978386
:10193000A087B187F1CEF8018581882309F483CF90
:1019400061E0C8010E94B50A811156CF7CCF6A01BF
:101950007B01B2E0CB1AD108E108F108858504C00B
:10196000CC0CDD1CEE1CFF1C8A95D2F746855785F2
:1019700060897189C40ED51EE61EF71E41E0C701BD
:10198000B6010E943007811111CF5DCF08951F93DA
:10199000CF93DF93182F862F61E04130510509F076
:1019A00060E00E94120261E0812F0E941202CBE7E8
:1019B000DCE0CE010197F1F760E0812F0E94120276
:1019C0002197F1F7DF91CF911F9108950E94C802EE
:1019D00060936C0570936D0580936E0590936F0511
:1019E0000895FC0101900020E9F73197AF01481BF1
:1019F000590BBC018DE696E00C94D6020F931F9311
:101A0000CF93DF93EC0188819981009759F02A8167
:101A10003B812617370730F081E0DF91CF911F918E
:101A20000F9108958B016F5F7F4F0E943F150097C4
:101A300059F0998388831B830A832C813D81232B52
:101A400059F7FC011082E8CF80E0E7CFEF92FF92D8
:101A50000F931F93CF93DF936115710541F480E0DD
:101A6000DF91CF911F910F91FF90EF900895411555
:101A70005105B1F07B01EC010C811D81040F151F94
:101A8000B8010E94FE0C882351F3288139818C8192
:101A90009D81B701820F931F0E9432161D830C8314
:101AA00081E0DECFCF93DF93EC01888199810097AD
:101AB00011F00E94B614198218821D821C821B82AA
:101AC0001A82DF91CF910895CF92DF92EF92FF9229
:101AD0000F931F93CF93DF93CDB7DEB762970FB607
:101AE000F894DEBF0FBECDBF8C01CB01F80111828F
:101AF000108213821282158214824AE09E012F5FA7
:101B00003F4F6901B9010E94DD13F60101900020E9
:101B1000E9F731977F01EC18FD08B701C8010E9471
:101B2000FE0C811112C0C8010E94520D62960FB6C0
:101B3000F894DEBF0FBECDBFDF91CF911F910F9103
:101B4000FF90EF90DF90CF900895F801F582E48246
:101B5000B601808191810E943216E8CFCF93DF9346
:101B6000EC01FB0101900020E9F73197AF01461B22
:101B7000570B0E94260D811103C0CE010E94520D09
:101B8000CE01DF91CF910895CF93DF93EC01FB015C
:101B900044815581608171810E94260D811103C0AD
:101BA000CE010E94520DCE01DF91CF910895EF92A8
:101BB000FF920F931F93CF93DF93EC017B01198268
:101BC00018821B821A821D821C82FB010190002058
:101BD000E9F731978F01061B170BB8010E94FE0C25
:101BE000811109C0CE01DF91CF911F910F91FF901C
:101BF000EF900C94520D1D830C83B701888199815D
:101C0000DF91CF911F910F91FF90EF900C943216BE
:101C1000FC0180819181009711F00C94B614089515
:101C20000F931F93CF938C01C62F0E94F6046C2F45
:101C30006460C8010E94F6046C2F6B7FC8010E948B
:101C4000F60483EC90E00197F1F7CF911F910F918B
:101C500008950F931F93CF93DF938C01D62FC42F3A
:101C6000607F642B0E94100E80E1D89FB001112488
:101C70006C2BC801DF91CF911F910F910C94100E26
:101C8000CF93DF9300D000D01F921F92CDB7DEB765
:101C900098E0EAE0F2E0DE01119601900D929A954B
:101CA000E1F790917506961708F46FEF262F30E054
:101CB000220F331F41E050E04C0F5D1F240F351FF2
:101CC000F9016081680F606840E08DE696E0289633
:101CD0000FB6F894DEBF0FBECDBFDF91CF910C944D
:101CE000290E41E00E94290E81E090E0089585EDE3
:101CF0008093BC0080913E0590913F05A0914005E6
:101D0000B09141050796A11DB11D23E0B695A79599
:101D1000979587952A95D1F72091BC0024FD03C0A3
:101D200010923C05089540913E0550913F05609109
:101D3000400570914105452B462B472B69F30097D1
:101D4000A105B10541F02AE22A95F1F700C00197FB
:101D5000A109B109E1CF80913D050C944F04EF92A8
:101D6000FF920F931F93CF93DF93CDB7DEB76897A2
:101D70000FB6F894DEBF0FBECDBF7B01FC012481FE
:101D80003581232BA9F1008111816EE472E0C80135
:101D90000E942916892B51F48091AA029091AB02DE
:101DA0008E0D9F1D9093AB028093AA026BE572E0AB
:101DB000C8010E942916892B51F48091A8029091A4
:101DC000A9028E0D9F1D9093A9028093A8026DE534
:101DD00072E0C8010E9429166091A6027091A702C4
:101DE000892B31F46E0D7F1D7093A7026093A602BC
:101DF00061E080E00E94400E6091A6027091A7020F
:101E0000CE0143960E94640D6091A8027091A902D0
:101E1000CE010D960E94640D6091AA027091AB02F2
:101E2000CE0107960E94640D60E572E0CE01019636
:101E30000E94D70DBE01695F7F4FCE0101960E94BF
:101E4000C40D63E572E00E94AE0DBE01635F7F4F7B
:101E50000E94C40D67E572E00E94AE0DBE016D5E8A
:101E60007F4F0E94C40D69E972E00E94AE0DFC0133
:101E700044815581608171818DE696E00E94D60291
:101E8000CE0101960E94080ECE0107960E94080E10
:101E9000CE010D960E94080ECE0143960E94080EB8
:101EA00068960FB6F894DEBF0FBECDBFDF91CF911D
:101EB0001F910F91FF90EF9008951F920F920FB610
:101EC0000F9211242F933F938F939F93AF93BF93C0
:101ED0008091710590917205A0917305B091740580
:101EE0003091700523E0230F2D3758F50196A11D81
:101EF000B11D209370058093710590937205A09396
:101F00007305B09374058091750590917605A09145
:101F10007705B09178050196A11DB11D80937505D7
:101F200090937605A0937705B0937805BF91AF9114
:101F30009F918F913F912F910F900FBE0F901F9007
:101F4000189526E8230F0296A11DB11DD2CF1F922E
:101F50000F920FB60F9211240BB60F922F933F934F
:101F60004F935F936F937F938F939F93AF93BF93A1
:101F7000EF93FF9389E795E00E944A03FF91EF9169
:101F8000BF91AF919F918F917F916F915F914F9191
:101F90003F912F910F900BBE0F900FBE0F901F908F
:101FA00018951F920F920FB60F9211240BB60F9235
:101FB0002F938F939F93EF93FF93E0918905F09177
:101FC0008A058081E0918F05F091900582FD1DC00A
:101FD0009081809192058F5F8F7320919305821776
:101FE00041F0E0919205F0E0E758FA4F958F809329
:101FF0009205FF91EF919F918F912F910F900BBEC2
:102000000F900FBE0F901F9018958081F2CF1F92F6
:102010000F920FB60F9211240BB60F922F933F938E
:102020004F935F936F937F938F939F93AF93BF93E0
:10203000EF93FF938091B900887F803609F44DC0FB
:1020400008F040C0883209F4A9C028F5803109F4AD
:102050009DC0C8F4882309F4FBC0883009F496C0F9
:10206000FF91EF91BF91AF919F918F917F916F9170
:102070005F914F913F912F910F900BBE0F900FBE2C
:102080000F901F901895883109F488C0803241F76D
:1020900080933A0514C0803409F49DC040F4803325
:1020A000B9F38833E9F680933A0585ECB0C0803502
:1020B00009F485C0883509F496C0883489F60E94F1
:1020C000770ECECF883909F48CC038F5883729F0DF
:1020D00050F4883611F0803719F683E080933C0580
:1020E0001092150557C0883809F47BC0803919F063
:1020F000803809F0B5CF80911505803208F071C0A5
:10210000E091150581E08E0F809315058091BB004D
:10211000F0E0EB50FB4F80833DC0803B39F0E0F4B2
:10212000803A09F479C0883A09F09ACF84E0809324
:102130003C051092F4041092F304E0916605F091CE
:10214000670519958091F30481110FC081E0809398
:10215000F3041092D30409C0803C09F4A6CF883C54
:1021600009F4A3CF883B09F07BCFE091F40481E030
:102170008E0F8093F404F0E0ED52FB4F808180934A
:10218000BB009091F4048091F30429C0809117055D
:102190008093BB0085EC8093BC0062CF90913905A1
:1021A00080913805981758F5E091390581E08E0F38
:1021B00080933905F0E0E85EFA4F8081E9CFE09145
:1021C000390581E08E0F809339058091BB00F0E0E6
:1021D000E85EFA4F80839091390580913805981711
:1021E000C8F285E8D8CFE091390581E08E0F809361
:1021F00039058091BB00F0E0E85EFA4F8083809162
:102200003B0581115CCF81E08093160584EA8093C1
:10221000BC0010923C0524CF85EC8093BC0010924A
:102220003C0580911505803230F4E0911505F0E011
:10223000EB50FB4F10826091150570E0E091640552
:10224000F091650585EF94E019951092150508CF7A
:1022500010923A0534CFE9E7F5E01382128288EE56
:1022600093E0A0E0B0E084839583A683B78326E162
:1022700032E03183208325EC30E03587248724EC5D
:1022800030E03787268720EC30E0318B208B21EC43
:1022900030E0338B228B22EC30E0358B248B26EC24
:1022A00030E0378B268B118E128E138E148EE6E162
:1022B000F6E01382128284839583A683B78388E233
:1022C00092E091838083E2E2F6E080E580831182F0
:1022D000E4E2F6E0158216821186138682E090E031
:1022E000A0E0B0E084879587A687B78713A215A6DC
:1022F00014A68AE392E093A782A717A6EDE6F6E07C
:102300001382128286E492E09183808387E2848341
:1023100080E1818782E0828713860895CF93DF93DF
:1023200000D000D0CDB7DEB7789484B5826084BD8C
:1023300084B5816084BD85B5826085BD85B58160C9
:1023400085BD80916E00816080936E001092810047
:102350008091810082608093810080918100816002
:1023600080938100809180008160809380008091C3
:10237000B10084608093B1008091B000816080934F
:10238000B0008091910082608093910080919100D3
:102390008160809391008091900081608093900093
:1023A0008091A10082608093A1008091A100816052
:1023B0008093A1008091A00081608093A000809113
:1023C00021018260809321018091210181608093AD
:1023D00021018091200181608093200180917A0009
:1023E000846080937A0080917A00826080937A0082
:1023F00080917A00816080937A0080917A00806871
:1024000080937A001092C10010926B0510926A05B9
:1024100010926905109268050E94310484ED92E0E3
:10242000909367058093660585ED92E0909365052E
:10243000809364051092720680917706823018F0BE
:1024400098E0909372068093750662E370E080E0F6
:1024500090E00E949602609178068DE696E00E94D8
:10246000F60468EE73E080E090E00E94960260E37C
:102470008DE696E00E94100E0BE416E4C801019769
:10248000F1F760E38DE696E00E94100EC801019717
:10249000F1F760E38DE696E00E94100E83E592E08E
:1024A0000197F1F760E28DE696E00E94100E6091D0
:1024B0007206606240E08DE696E00E94290E84E09C
:1024C0008093730640E06CE08DE696E00E94290E52
:1024D00040E061E08DE696E00E94290E0BE31FE1EB
:1024E000C8010197F1F782E08093740640E066E04E
:1024F0008DE696E00E94290E40E062E08DE696E0CF
:102500000E94290EC8010197F1F788E080937806B0
:1025100060E08DE696E00E94F60460E080E00E94B4
:10252000400E8FE592E00E94F10C61E086E10E948E
:10253000400261E087E10E94400261E088E10E9480
:10254000400261E089E10E94400261E08AE10E946C
:10255000400261E08BE10E94400261E08BE00E945A
:10256000400260E08BE00E94120262E08CE00E9478
:10257000400262E08CE10E94400262E08DE10E9434
:10258000400262E08EE10E94400262E08FE10E9420
:10259000400262E080E20E94400262E081E20E942A
:1025A000400261E080E00E94400E80E792E00E94DD
:1025B000F10C0E94E60C0E94C80200916C0510917B
:1025C0006D0520916E0530916F05601B710B820BBC
:1025D000930B603E73498440910560F060E08BE0AE
:1025E0000E94120261E080E00E94400E8CE792E0BF
:1025F0000E94F10C8CE10E94E901892BD1F441E0A9
:1026000050E067E170E086E190E00E94C70C6EE464
:1026100072E0CE0101960E94D70D61E070E0CE011C
:1026200001960E94AF0ECE0101960E94080E0E94F4
:10263000E60C8DE10E94E901892BD1F44FEF5FEFA9
:1026400067E170E086E190E00E94C70C6EE472E002
:10265000CE0101960E94D70D6FEF7FEFCE0101965C
:102660000E94AF0ECE0101960E94080E0E94E60C59
:102670008EE10E94E901892BD1F441E050E069E14B
:1026800070E088E190E00E94C70C6BE572E0CE013B
:1026900001960E94D70D61E070E0CE0101960E9484
:1026A000AF0ECE0101960E94080E0E94E60C8FE14B
:1026B0000E94E901892BD1F44FEF5FEF69E170E0EF
:1026C00088E190E00E94C70C6BE572E0CE010196B4
:1026D0000E94D70D6FEF7FEFCE0101960E94AF0EE3
:1026E000CE0101960E94080E0E94E60C80E20E9434
:1026F000E901892BD1F441E050E06BE170E08AE11F
:1027000090E00E94C70C6DE572E0CE0101960E9438
:10271000D70D61E070E0CE0101960E94AF0ECE01B0
:1027200001960E94080E0E94E60C81E20E94E901D7
:10273000892BD1F44FEF5FEF6BE170E08AE190E01D
:102740000E94C70C6DE572E0CE0101960E94D70D84
:102750006FEF7FEFCE0101960E94AF0ECE01019682
:102760000E94080E0E94E60C8CE00E94E901892B71
:10277000B9F461E08BE00E94120261E08AE00E94FD
:10278000400E81E992E00E94F10C0E94E60C64E6A2
:1027900070E080E090E00E9496020E94D9030BCF87
:1027A00060E08BE00E94120261E08AE00E94400E2D
:1027B0008BE992E00E94F10CEACFBB274A3031F45A
:1027C000992322F4BDE2909581959F4F0C94E913D3
:1027D000BB27FB015527AA27880F991FAA1FA417FB
:1027E00010F0A41B83955051B9F7A05DAA3308F0EF
:1027F000A95DA193009779F7B111B1931192CB0123
:102800000C940214DC01FC01672F71917723E1F72E
:10281000329704C07C916D9370836291AE17BF07AD
:10282000C8F30895EE0FFF1F881F8BBF0790F69126
:10283000E02D19940F931F93CF93DF93823091056E
:1028400010F482E090E0E0917B06F0917C0630E0AD
:1028500020E0B0E0A0E0309799F42115310509F4AB
:102860004AC0281B390B24303105D8F58A819B8159
:102870006115710589F1FB0193838283FE0111C00B
:10288000408151810281138148175907E0F04817B0
:10289000590799F4109761F012960C9312971396BA
:1028A0001C933296CF01DF91CF911F910F91089524
:1028B00000937B0610937C06F4CF2115310551F06F
:1028C0004217530738F0A901DB019A01BD01DF016E
:1028D000F801C1CFEF01F9CF90937C0680937B067E
:1028E000CDCFFE01E20FF31F819391932250310966
:1028F00039832883D7CF2091790630917A06232B0C
:1029000041F4209106023091070230937A06209319
:10291000790620910402309105022115310541F418
:102920002DB73EB74091080250910902241B350B88
:10293000E0917906F0917A06E217F307A0F42E1BD6
:102940003F0B2817390778F0AC014E5F5F4F241713
:10295000350748F04E0F5F1F50937A064093790673
:10296000819391939FCFF0E0E0E09CCFCF93DF93F2
:102970000097E9F0FC01329713821282A0917B0646
:10298000B0917C06ED0130E020E01097A1F42081A9
:102990003181820F931F2091790630917A06281792
:1029A000390709F061C0F0937A06E0937906DF9168
:1029B000CF910895EA01CE17DF07E8F54A815B81E0
:1029C0009E0141155105B1F7E901FB83EA83499165
:1029D0005991C40FD51FEC17FD0761F480819181D7
:1029E0000296840F951FE9019983888382819381E0
:1029F0009B838A83F0E0E0E012968D919C9113977F
:102A00000097B9F52D913C911197CD010296820F57
:102A1000931F2091790630917A062817390739F6E5
:102A2000309751F510927C0610927B06B0937A068F
:102A3000A0937906BCCFD383C28340815181840F98
:102A4000951FC817D90761F44E5F5F4F8881998140
:102A5000480F591F518340838A819B8193838283CE
:102A60002115310509F0B0CFF0937C06E0937B0689
:102A70009ECFFD01DC01C0CF13821282D7CF4F92CF
:102A80005F926F927F928F929F92AF92BF92CF92FE
:102A9000DF92EF92FF920F931F93CF93DF938C01FE
:102AA000009799F4CB01DF91CF911F910F91FF9087
:102AB000EF90DF90CF90BF90AF909F908F907F90DE
:102AC0006F905F904F900C941A14FC01E60FF71F63
:102AD0009C0122503109E217F30708F4AEC0D90176
:102AE000CD91DC911197C617D70720F1C530D105DC
:102AF00078F0CE0104978617970750F0C61BD70BC6
:102B00002297C193D1936D937C93CF010E94B61409
:102B1000C801DF91CF911F910F91FF90EF90DF904F
:102B2000CF90BF90AF909F908F907F906F905F906D
:102B30004F9008955B01AC1ABD0A4C018C0E9D1E8E
:102B4000A0917B06B0917C06512C412CF12CE12CFC
:102B5000109731F58091790690917A06881599053C
:102B600009F05CC04616570608F058C08091040270
:102B700090910502009741F48DB79EB740910802ED
:102B800050910902841B950BE817F90708F055C00E
:102B9000F0937A06E0937906F90171836083B8CFE8
:102BA0008D919C91119712966C90129713967C9030
:102BB0001397A815B90559F56C0142E0C40ED11C54
:102BC000CA14DB0420F1AC014A195B09DA01129640
:102BD000159780F06282738251834083D9016D938F
:102BE0007C93E114F10471F0D7011396FC93EE93FA
:102BF00012978ECF22968C0F9D1FF90191838083AF
:102C0000F301EFCFF0937C06E0937B0681CF48166B
:102C1000590608F42C017D01D3019ACFCB010E9403
:102C20001A147C01009749F0AE01B8010E942016E9
:102C3000C8010E94B61487016BCF10E000E068CF96
:102C4000FB01DC0102C001900D9241505040D8F7C9
:102C50000895FB01DC018D91019080190110D9F3D9
:102C6000990B0895FB01DC0101900D920020E1F722
:062C70000895F894FFCF67
:102C7600FFFFFFFF00007D068000000040001400FB
:102C86005400000000006C03D6020303B9033403AA
:102C96001203260300000000C7049A04DD05700431
:102CA60093048004710400000000510BD602F70A59
:102CB600C60C00000000710ED602DD05C60C5800D9
:102CC600583A0020593A00205A3A0059005A00430F
:102CD6004E43204C617365722043757474657200AF
:102CE600583A3020593A30205A3A30004C617365D0
:102CF60072204F66662028496E616374697665297D
:102D0600004C61736572204F4E20004C61736572F2
:062D1600204F46460000BC
:00000001FF
